:020000040800F2
:1000000088C10020A10100080B55000883230008C7
:1000100009550008A1080008596C000800000000FC
:10002000000000000000000000000000DB5C000891
:10003000690B000800000000915C0008DD5C00080E
:10004000BB010008BB010008BB010008BB010008A0
:10005000BB010008BB010008BB010008BB01000890
:10006000BB010008BB010008BB010008BB01000880
:10007000BB010008BB010008BB010008BB01000870
:10008000BB010008BB010008BB010008BB01000860
:10009000BB010008BB010008BB010008BB01000850
:1000A000BB010008BB010008BB010008BB01000840
:1000B000BB010008BB010008BB010008BB01000830
:1000C000BB010008BB010008BB010008BB01000820
:1000D000BB010008BB010008BB010008BB01000810
:1000E000BB010008BB010008BB010008BB01000800
:1000F000BB010008BB010008BB010008BB010008F0
:10010000BB010008BB010008BB010008BB010008DF
:10011000BB010008BB010008855D0008BB010008A9
:10012000BB010008BB010008BB010008BB010008BF
:10013000BB010008BB010008BB010008BB010008AF
:10014000BB010008BB010008BB010008BB0100089F
:10015000BB010008BB010008BB010008BB0100088F
:10016000BB010008BB010008BB010008BB0100087F
:10017000BB010008BB010008BB0100080000000033
:10018000BB010008BB010008DFF810D000F0DEFA68
:1001900000480047814B0208AFF3008088C100206F
:1001A0000648804706480047FEE7FEE7FEE7FEE711
:1001B000FEE7FEE7FEE7FEE7FEE7FEE7755D000807
:1001C000890100082DE9F05F0546002092469B4614
:1001D00088460646814640241BE02846414647465D
:1001E000224600F0E2F953465A46C01A914110D314
:1001F00011461846224600F0C9F92D1A67EB01088E
:100200004F4622460120002100F0C0F917EB0009FB
:100210004E41201EA4F10104DFDC484631462A4647
:100220004346BDE8F09FD2B201E000F8012B491E21
:10023000FBD270470022F6E710B513460A46044683
:100240001946FFF7F0FF204610BD421C10F8011BB5
:100250000029FBD1801A704710B5002200E0521C23
:10026000835C8C5CA34201D1002BF8D1D8B2E1B2FF
:10027000401A10BD034611F8012B00F8012B002A8B
:10028000F9D1184670472DE9FE4F804681EA0300F8
:10029000C00F0C46009021F0004123F00045B8EB60
:1002A0000200A94105D24046214690461C460B4615
:1002B000024623F00040104347D0270DC7F30A0041
:1002C000C3F30A510290401A019040286BDAC3F33D
:1002D000130040F4801B0098924620B10023D2EB1B
:1002E000030A63EB0B0B01985946C0F140025046DC
:1002F00000F04CF906460D4650465946019A00F06A
:1003000064F910EB08006141002487EA115284EA85
:10031000E7731A4340D0009A62B3019A012A4FEA68
:10032000075215DC001B61EB02014FF0004202EAAC
:100330000752CDE90042001C41F5801132462B46A0
:1003400000F064F903B0BDE8F08F40462146F9E7BC
:10035000001B61EB0201001C41F5801300185B419A
:100360002018A2F5001747EB030140EAD570B61933
:100370006D4111E06D084FEA360645EAC0754FEA57
:100380000752001B61EB0201001C41F58011490876
:100390004FEA30000019514132462B4603B0BDE808
:1003A000F04F00F024B90098012240000023D0EB68
:1003B000020263EBE073009821464FEAE074B8EB69
:1003C000000061EB0401E9E783F000435BE781F0A3
:1003D000004158E72DE9FE4F81EA030404F0004490
:1003E00021F0004100944FF0000B23F0004350EA4D
:1003F00001045ED052EA03045BD0C3F30A54C1F394
:100400000A552C44A4F2F3340194A0FB0254C1F326
:10041000130141F48011C3F3130343F4801301FB70
:10042000024400FB034E840A970A44EA815447EAD7
:100430008357A4FB076802958D0A05FB07854FEAE1
:10044000932C04FB0C542705029D4FEA065847EAFB
:100450001637B5EB08056EEB070C870E920E47EAD0
:10046000811742EA8312A7FB0201B6EB0B0164EB92
:1004700000042B0D43EA0C335E1844EB1C50DA46A3
:100480005146E7FB0201C5F313044FEA0B3343EA7D
:1004900014534FEA0432019C43EA0603A4F10C040E
:1004A0000294009CCDE900B400F0B0F803B0BDE8C0
:1004B000F08F00200146F9E70EB540F2334102917A
:1004C0000021CDE900110A460B4600F09FF803B069
:1004D00000BDC1F30A5210B5C1F3130140F2FF335E
:1004E00041F480119A4201DA002010BD40F23343FA
:1004F0009A42A2F2334203DC524200F056F810BD99
:10050000904010BD00F0004230F000400AD0C10D14
:1005100001F56071C0F3160042EA0151C2084007BC
:1005200011437047002001467047000030B5041E9B
:1005300071F1000404DB4FF00044404264EB010120
:10054000141E73F1000405DB1C464FF000435242B9
:1005500063EB04038B4208BF824230BD30B5041EFA
:1005600071F1000404DB4FF00044404264EB0101F0
:10057000141E73F1000405DB1C464FF00043524289
:1005800063EB0403994208BF904230BD202A04DB8C
:10059000203A00FA02F1002070479140C2F1200396
:1005A00020FA03F3194390407047202A04DB203AD5
:1005B00021FA02F00021704721FA02F3D040C2F183
:1005C00020029140084319467047202A06DBCB17CA
:1005D000203A41FA02F043EAE07306E041FA02F3FE
:1005E000D040C2F12002914008431946704710B52F
:1005F000141E73F1000408DA401C41F10001921846
:100600005B411A4301D120F0010010BD2DE9F04DEE
:1006100092469B4611B1B1FA81F202E0B0FA80F243
:1006200020329046FFF7B2FF04460F4640EA0A0028
:1006300041EA0B0153465A46084313D0114653EA88
:10064000010019D0C8F140025046FFF7AEFF054641
:100650000E46504659464246FFF798FF084305D0DC
:10066000012004E020463946BDE8F08D0020054316
:1006700046EAE0762C4337430A986305E40AA0EB88
:1006800008000022FD0A44EA47540A3002D500203F
:100690000146E9E7010510196941DDE9084500193E
:1006A0006941BDE8F04DA2E72DE9F04D00231A465F
:1006B0001B1A8A4103DB00200146BDE8F08DC1F31F
:1006C0000A52C1F3130141F480154FF0000BD1071A
:1006D00002D100186D41521E0027044640F2FF115E
:1006E000384601EB620A3E468046024600204FF43F
:1006F0008011FFF75AFFC2197141BB1846EB010088
:10070000B4EB030C75EB000C04D3E41A65EB0005A5
:1007100017460E46241908F101006D418046342821
:10072000E3DDF91946EB0600091BA84103D24FF09F
:10073000FF32134601E0002213461BEB070046EB95
:100740000A51BDE8F04DFFF752BF0000064C074DBF
:1007500006E0E06840F0010394E807009847103491
:10076000AC42F6D3FFF714FD783C0308983C03082D
:1007700070B58C1810F8015B15F0070301D110F863
:10078000013B2A1106D110F8012B03E010F8016B90
:1007900001F8016B5B1EF9D12B0705D40023521E13
:1007A0000DD401F8013BFAE710F8013BCB1A921C7B
:1007B00003E013F8015B01F8015B521EF9D5A14279
:1007C000D8D3002070BD01F0FDBD2DE9F0410D46EC
:1007D0000146002004464E1908E00702301B401E67
:1007E00080B200F007F8641C3844E4B2AC42F4D3A1
:1007F000BDE8F08110B5044601F08CFE200AA0216E
:1008000001EB4000C0B201F055FE01F0C5FEE0B2C0
:1008100001F050FE01F0C0FE01F07CFEA12001F0CD
:1008200049FE01F0B9FE002001F010FE044601F07F
:1008300091FE204610BD2DE9F04116460D460746B3
:10084000002409E0E00025FA00F0C1B2381980B2B6
:1008500000F006F8641CE4B2B442F3D3BDE8F081C2
:1008600070B50D46044601F055FE200AA02101EBAB
:100870004000C0B201F01EFE01F08EFEE0B201F0B9
:1008800019FE01F089FE284601F014FE01F084FEF5
:1008900001F060FEBDE870400A200AF039B87047E8
:1008A000FEE7000070B50F4C0025C4F880520E48DA
:1008B000016821F440010160016841F48001016098
:1008C000022004F520740AF031F80848C0F8AC5250
:1008D00002200AF02BF80120206002200AF026F8FE
:1008E000256070BD008040420014024000804242FA
:1008F000154810B5016886B041F002010160016839
:1009000001F002010591016841F0200101600068D9
:10091000012400F02000009405900320CDE902405E
:1009200001946946094800F02FFDE00200906946F5
:10093000074800F029FD0748C0F8AC420648C0F857
:10094000804206B010BD0000303802400004024072
:1009500000140240008042420080404270B50F4CBB
:100960000025C4F880520E48016821F4400101605E
:10097000016841F480010160022004F5207409F04F
:10098000D5FF08480126C0F8AC62022009F0CEFF6E
:100990002660022009F0CAFF256070BD0080404239
:1009A00000140240008042422DE9F0478246184878
:1009B0000024016821F440010160016801601E20EB
:1009C00009F0B4FF0025134EDFF84C902F464FF08E
:1009D000010800BFC6F88072022009F0A7FFC6F820
:1009E00080826006040ED9F82C0208B1641CE4B2BF
:1009F0006D1CEDB2082DEDD3BAF1000F04D0FFF756
:100A000051FF2046BDE8F087FFF7A8FFF9E7000097
:100A10000014024000804042008042422DE9F0472D
:100A200006461548016821F440010160016841F45F
:100A300080010160114D0027C5F88072022009F085
:100A400075FFDFF83C8000244FF00109F109C8F878
:100A5000AC127006060EC5F88092022009F066FFFF
:100A6000C5F88072022009F061FF641CE4B2082C12
:100A7000ECD3BDE8F0870000001402400080404243
:100A80000080424270B50F48016821F440010160C6
:100A9000016841F4800101600B4C0120C4F8AC02F4
:100AA0000A4DC5F880021E2004F52B7405F520754B
:100AB00009F03CFF00262660022009F037FF2E6077
:100AC00070BD00000014024000804242008040429D
:100AD00070B50D48016821F440010160016841F4DE
:100AE0008001016009480125C0F880521E2009F0EC
:100AF0001DFF074C0020C4F8AC02022004F52B7443
:100B000009F014FF256070BD0014024000804042CF
:100B10000080424270B511480024016821F4400170
:100B20000160016801600E4E0120C6F8AC020D4D57
:100B3000C5F8800207E0641CE4B2FA2C03D9FFF781
:100B4000C7FF012070BD022009F0F0FED6F82C028C
:100B50000028F0D1C5F8800270BD000000140240EA
:100B60000080424200804042704772B6FEE7704704
:100B700030B5B3F5804F05D06FF0704140F82210CA
:100B8000002030BD8C690B688D6823434C688989CF
:100B9000240144EA0524234343EA014150F822306A
:100BA000014C23401943E9E70000F0CF10B50A6873
:100BB00050F8223023F0010340F822308C68082CD2
:100BC00023D000234A682243CC681C430B6922438C
:100BD0001A434B690E4C1A43CB691A430B6A1A43EA
:100BE0004B6A1A438B6A1A43CB6A1A430B6B1A433C
:100BF0008B691343CA6B09681A4350F82130A34329
:100C0000134340F82130002010BD4023DAE70000F4
:100C10007FFF0F0030B5D1E9003443EA04138C683C
:100C20008D89240244EA054423430C8A094D00EBD4
:100C3000820005EB045423430C7D6D0105EB046435
:100C4000896923430B43416801F040410B434360F2
:100C5000002030BD0000F0FF70B5324888B000249D
:100C6000016841F002010160016801F00201069192
:100C7000016841F004010160006801A900F004006E
:100C800006900220012581E83100032004902648C7
:100C900000F07AFB6803CDE9010501A9234800F0C3
:100CA00073FBFFF725FE224EC6F8B442142006F56A
:100CB0002D7609F02DFE3560322009F029FE8DF8E1
:100CC000004001226946002000F006F90122694631
:100CD000A42000F001F916208DF8000001226946D9
:100CE000802000F0F9F80C208DF800000122694600
:100CF000882000F0F1F802226946A12000F020F8D7
:100D00009DF80000302803D19DF80100032802D08F
:100D1000012008B070BD43F2030106A005F09EFF5C
:100D20000020F6E73038024000040240000802408C
:100D3000000041424354502049443A25780D0A00AE
:100D40002DE9F04115460E460446FFF79BFE702044
:100D5000FFF764FEFFF7DEFEE0B2FFF75FFEFFF78E
:100D6000D9FEFFF78FFE7120FFF758FEFFF7D2FE86
:100D700000246F1E09E0BC4201D0012000E00020E9
:100D8000FFF712FE3055641CE4B2AC42F3D3BDE869
:100D9000F041FFF79DBE00002DE9F1474B4E0024C6
:100DA0004FF00A0A307881B0401CC0B2B0FBFAF2B2
:100DB0000AFB1201DFF818812746307009B10A28B2
:100DC00067D2012201A90220FFF7BAFF9DF80400B3
:100DD00001075ED000F00F0106295AD2FF2088409B
:100DE000C04340F0C000454688F8200001274FF07E
:100DF000000900BF95F8200007FA04F108423BD033
:100E000034480422694630F81400FFF799FF95F83A
:100E100030009DF80010C0079DF8010001F00F019F
:100E20000ED000EB012105EB4400C1829DF80220A9
:100E30009DF8031002F00F0201EB022181810FE007
:100E400000EB0120C0F5F07105EB440081819DF8B5
:100E500002209DF8031002F00F0201EB0221C18273
:100E60009DF800000821B1EB101F05D005EB4400F0
:100E7000A0F81690A0F80C90641CE4B2052CB9D32D
:100E8000A889012718B9E88A08B98DF8049086F86E
:100E900000909DF80400C00610D198F820000106CB
:100EA00002D520F0800007E04FF6FF71A8F80C1083
:100EB000A8F8161000F0E00088F820003078F0283C
:100EC00001D986F800A03846BDE8FC873400002030
:100ED00048000020908B02082DE9F04116460F468D
:100EE00004460025FFF7CEFD7020FFF797FDFFF7C2
:100EF00011FEE0B2FFF792FDFFF70CFE002408E0C0
:100F0000385DFFF78BFDFFF705FE050003D1641C7C
:100F1000E4B2B442F4D3FFF7DBFD2846BDE8F0812C
:100F20002DE9F0433B4889B00024016841F00201FB
:100F30000160016801F002010791016841F00401BC
:100F400001600068022600F00400079001AA012554
:100F500003270096DFF8C09082E8B0006946484653
:100F600000F012FA6803CDE9000569462B4800F04D
:100F70000BFAFFF7BDFCDFF8A880C8F8B4420A20DE
:100F800009F0C6FCC8F8B4520A2009F0C1FC039766
:100F90000096CDE901546946484600F0F5F9642011
:100FA00009F0B6FC042205A948F2401000F04EF802
:100FB0008DF8184005A91BA005F050FE1CA105A83E
:100FC000FFF74AF908BB48F240058DF8146001228A
:100FD00005A9284600F048F9012205A9E81D00F0FE
:100FE00035F89DF81410602905D213A005F036FEDF
:100FF000012000F011F90A2009F08AFC8DF8144054
:10100000012205A9284600F02FF909B00020BDE80B
:10101000F083000030380240000402400008024023
:10102000000041424354502049443A25730D0A00C0
:10103000393134370000000044656661756C7420F6
:101040005665723A25640D0A000000002DE9F04152
:1010500015460E460446FFF715FD2820FFF7DEFC77
:10106000FFF758FD200AFFF7D9FCFFF753FDE0B268
:10107000FFF7D4FCFFF74EFDFFF704FD2920FFF733
:10108000CDFCFFF747FD00246F1E09E0BC4201D0F4
:10109000012000E00020FFF787FC3055641CE4B21B
:1010A000AC42F3D3BDE8F041FFF712BD2DE9F147A3
:1010B000554E00244FF00A0A307885B0401CC0B26B
:1010C000B0FBFAF20AFB1201504DA046307009B194
:1010D0000A286ED248F24E19012205A94846FFF7A8
:1010E000B5FF00278DF8007001226946484600F0E0
:1010F000BBF89DF8140001075BD000F00F01062932
:1011000057D2FF2088408DF80000C04395F820900A
:1011100040F0C00085F82000A889A882E88AE8830A
:101120004FF0010895F8201008FA04F0014225D08C
:101130003748042201A930F81400FFF787FF95F81B
:1011400030009DF80510C0079DF8040000EB012158
:1011500005EB44000AD0C1829DF806109DF80720D7
:1011600001EB0221C1F54871818107E081819DF881
:1011700006109DF8072001EB0221C182641CE4B235
:10118000052CCFD32349AA894FF001080B882846A4
:101190009A4203D8C28A49888A4209D99DF8141014
:1011A00001F00F0101290BD9C1898181018BE982ED
:1011B00037709DF8140000F08F0080280AD01AE0E4
:1011C000818A8181C18BC18280218DF8141085F8BC
:1011D0002090EEE795F82000010603D520F080006E
:1011E00085F820004FF6FF7025F80C0F6881287DE8
:1011F00000F0E00028753078F02801D986F800A0CA
:1012000006B04046BDE8F0873500002048000020C9
:10121000528C02084404002008B500218DF800100B
:101220008DF801000F4800BF435C9DF80020491C69
:101230001A44C9B28DF80020B829F5D3D0B2C04302
:10124000401C8DF80000B822064948F2470000F023
:101250000BF80222694648F2FF0000F005F8002072
:1012600008BD00009A8B02082DE9F04116460F4692
:1012700004460025FFF706FC2820FFF7CFFBFFF709
:1012800049FC200AFFF7CAFBFFF744FCE0B2FFF776
:10129000C5FBFFF73FFC002408E0385DFFF7BEFB0D
:1012A000FFF738FC050003D1641CE4B2B442F4D368
:1012B000FFF70EFC2846BDE8F081000070B504463B
:1012C00000F068F90546601C02D004480078044428
:1012D00000F060F9401BA042FAD370BD0800002066
:1012E0002DE9F04186B014216846FEF7A3FF20489F
:1012F0000168002939D1012101601E4800240168DC
:1013000041F00101016000684FF4805800F00100D5
:101310000C27CDF80080CDE9047003260225039642
:10132000CDE901546946144800F02EF84FF680705C
:10133000CDE9000502AA694682E8D0000F4800F016
:1013400023F84CF23370CDE9000502AA694682E821
:10135000D0000B4800F018F802AA694682E8D000D5
:10136000CDE90085074800F00FF806B0BDE8F08130
:1013700000000020383802400014024000100240F3
:10138000000C0240001802402DE9F84FDFF8BCA124
:101390000022012503264FF00F090AF1040BAAF1E0
:1013A000040E00BF0B6805FA02F42340A34270D17B
:1013B0000F7907F00307012F01D0022F16D187689C
:1013C0004FEA420806FA08FC27EA0C07D1F80CC0DD
:1013D0000CFA08FC4CEA070CC0F808C04768A743A1
:1013E0000C79C4F3001494403C4344600C79E4430A
:1013F000A4070AD0C4684FEA420C06FA0CF7BC43B3
:101400008F6807FA0CF72743C7600C7904F00304D0
:10141000022C12D1D40800EB840CDCF820405707D2
:10142000FF0E09FA07F824EA0804D1F8108008FA38
:1014300007F848EA0408CCF8208004684FEA420C18
:1014400006FA0CF7BC430F7907F0030707FA0CF70D
:10145000274307604C6814F4403F70D03C4C276829
:1014600047F480472760246822F0030704F480448F
:101470000094384C07EB040CDCF8084897074FEA57
:10148000177809FA08F7BC43334FB84202D1002756
:1014900024E054E0314FB84201D101271EE0304F23
:1014A000B84201D1022719E02E4FB84201D10327DB
:1014B00014E02D4FB84201D104270FE02B4FB84262
:1014C00001D105270AE02A4FB84201D1062705E0DD
:1014D000284FB84201D1072700E0082707FA08F78C
:1014E0002743CCF80878DAF800405746D1F804C012
:1014F0009C435FEACC2C00D51C433C60DBF80040E9
:101500005F46D1F804C09C435FEA8C2C00D51C4395
:101510003C60DEF800407746D1F804C09C435FEAA7
:101520008C3C00D51C433C60084F083F3C68D1F818
:1015300004C09C435FEACC3C00D51C433C60521C79
:10154000102AFFF42FAFBDE8F88F0000083C0140DF
:1015500044380240003001400000024000040240D4
:1015600000080240000C024000100240001402403B
:1015700000180240001C0240426921EA02030A40AE
:1015800043EA0241816170470AB1816170470904F1
:10159000FBE7000001488068704700000800002059
:1015A00070B5040025D094F83D00002520B984F8DA
:1015B0003C50204600F0B8F8242084F83D00206814
:1015C000016821F0010101602068016841F40041D7
:1015D00001602068016821F40041016000F00CFA0C
:1015E0004D4A6168914201D84C4900E04C4988421B
:1015F00001D2012070BD4B492368B0FBF1F15E6858
:1016000026F03F060E435E606368934206D94FF4AE
:10161000967359434FF47A73B1FBF3F12368491C75
:101620001E6A26F03F06314319626168914210D864
:101630004900401EB0FBF1F2521CC2F30B02042A17
:1016400001D2042022E0B0FBF1F0401CC0F30B00FB
:101650001CE0A268F2B301EBC10303EB0116431EC9
:10166000B3FBF6F35B1C43F480431B0549D092B3F4
:1016700001EBC10202EB0111401EB0FBF1F0401C76
:10168000C0F30B0040F4804040F400402168CA6978
:101690004CF6FF739A431043C861D4E90710014325
:1016A0002068026822F0C00211430160D4E90301FE
:1016B00001432068826848F2FF339A4311438160F6
:1016C000D4E9050108432168CA6822F0FF021043EB
:1016D000C86001E00EE016E02068016841F00101F9
:1016E00001602564202084F83D00256384F83E5085
:1016F000002070BD01EB4106431EB3FBF6F35B1CFB
:10170000B3E70120C2E701EB4101401EB0FBF1F05D
:10171000401CC0F30B00B7E7A086010080841E00C8
:1017200000093D0040420F0010B586B00446142168
:101730006846FEF77FFD13492068884220D1124891
:10174000016841F0020101600068694600F0020092
:101750000590C020009012200190012002900320EB
:101760000390042004900948FFF70EFE064810304D
:10177000016841F400110160006800F40010059058
:1017800006B010BD00540040303802400004024052
:101790000248816802781144816070470800002087
:1017A0000B4810B5016841F400710160016841F413
:1017B00080610160016841F480710160032000F0E4
:1017C0006FF80F2000F006F800F024F8002010BD9C
:1017D000003C024070B50D4D04464FF47A712878F4
:1017E000B1FBF0F00A490968B1FBF0F000F046FBEC
:1017F00048B9102C07D200222146501E00F030F8C4
:1018000000206C6070BD012070BD00000800002049
:10181000140000200A4808B5016841F480410160C5
:10182000006800F4804000900548001F016841F006
:1018300080510160006800F08050009008BD0000F9
:1018400044380240002809DB00F01F0201219140CA
:101850004009800000F1E020C0F80011704700004E
:10186000F0B40E4B1B680C46C3F30223C3F107050B
:10187000042D00D90425191D072901D2002300E0F9
:10188000DB1E012606FA05F1491E214099409E40C3
:10189000761E16403143F0BC05F0F0B90CED00E0C7
:1018A000064900F0070208684FF6FF03184040EAB7
:1018B0000220034A10430860704700000CED00E06E
:1018C0000000FA052DE9F0470E46050065D0DFF867
:1018D0001481D8F80000F7B200F00700B04207D238
:1018E00088F80070D8F8000000F00700B04254D12A
:1018F00028683D4C810712D5400703D5206840F485
:10190000E05020602878000703D5206840F460404C
:1019100020602068A96820F0F00008432060287843
:10192000C0072DD0304968680839012812D0022834
:1019300013D0032811D00968890700292DDA2168FE
:1019400021F0030101432160FFF724FE814641F2AB
:10195000883A0EE009688903EFE709688901ECE736
:10196000FFF718FEA0EB0901514502D90320BDE89D
:10197000F0872068696800F00C00B0EB810FEFD1B0
:10198000D8F80010404601F00701B14207D90770AE
:10199000006800F00700B04201D00120E7E7287896
:1019A000400705D52068E96820F4E050084320602E
:1019B0002878000706D52068296920F4604040EAAD
:1019C000C100206000F038F82168084AC1F3031113
:1019D000515CC8400649086006480068FFF7FAFEF7
:1019E0000020C4E7003C024008380240788B02081F
:1019F000140000200C000020044805490068096814
:101A0000044AC1F38221515CC84070471400002091
:101A100008380240888B02080448054900680968B4
:101A2000044AC1F34231515CC840704714000020A1
:101A300008380240888B0208154810B5006810F07D
:101A40000C02144813D04110042A0FD0082A0ED1DA
:101A50000F4C241F2268236802F03F025B0207D567
:101A60002068C0F38810A0FB010106E0084610BD05
:101A70002168C1F38811A1FB00010023FEF7A2FB3E
:101A80002168C1F30141491C4900B0FBF1F010BDD0
:101A9000083802400024F4002DE9F84F04006ED00D
:101AA0002078DFF84C93C007A9F104054AD009F16A
:101AB00004000168C1F38101012908D00068C0F366
:101AC000810002280AD1D9F80000400206D5286812
:101AD000800337D560680028E1D033E06068B0F556
:101AE000803F10D0B0F5A02F286810D020F48030AF
:101AF0002860286820F4802028606068A8B1FFF77B
:101B000049FD06460DE0286840F48030F4E740F4D3
:101B100080202860F7E700BFFFF73CFD801B6428AA
:101B200073D828688003F7D50CE0FFF733FD06462D
:101B300005E000BFFFF72EFD801B6428F0D8286861
:101B40008003F7D42078DFF8AC8280074FF0000ADA
:101B50003ED5A748001D016811F00C0F08D00068A1
:101B6000C0F3810002280BD1D9F80000400207D44D
:101B70002868800716D5E068012800D112E033E11B
:101B8000E068B8B10120C8F80000FFF703FD064681
:101B900005E000BFFFF7FEFC801B0228C0D82868C4
:101BA0008007F7D52868216920F0F80040EAC100D5
:101BB00028600DE0C8F800A0FFF7ECFC064604E042
:101BC000FFF7E8FC801B02281FD828688007F7D49D
:101BD0002078000722D5864F87486169703771B138
:101BE00001210160FFF7D6FC064604E0FFF7D2FCB6
:101BF000801B022809D838688007F7D50EE0C0F8A6
:101C000000A0FFF7C7FC064605E082E0FFF7C2FC34
:101C1000801B02287DD838688007F7D420784007D9
:101C200068D5DFF8CCB100270BF13C0BDBF80000E6
:101C3000C0000BD4DBF8001041F08051CBF800104D
:101C4000DBF80000012700F0805000906B4E3068F8
:101C5000C00510D4306840F480703060FFF79AFC03
:101C6000009005E0FFF796FC0099401A022850D832
:101C70003068C005F6D55E4EA0686C3601280FD0DE
:101C80000528306810D020F001003060306820F066
:101C900004003060A068B8B1FFF77CFC00900FE052
:101CA000306840F00100F4E740F004003060F7E7EE
:101CB000FFF770FC0099411A41F28830814266D8E2
:101CC00030688007F4D50EE0FFF764FC009007E071
:101CD000FFF760FC0099411A41F28830814256D8E2
:101CE00030688007F4D42FB1DBF8001021F0805168
:101CF000CBF80010A069C8B33D49091D0968C1F3BC
:101D0000810102294AD00228504607D0C8F8600055
:101D100000E03CE0FFF73EFC04463BE04746C8F8E5
:101D20006000FFF737FC064605E000BFFFF732FC16
:101D3000801B02282BD828688001F7D4D4E907013A
:101D40000843A16A2E4A490802EB0141626A41EA4E
:101D50008211084394F82C1040EA0161C9F8001080
:101D600001203866FFF716FC044606E03EE000BF9F
:101D7000FFF710FC001B022809D828688001F7D55E
:101D800034E000BFFFF706FC001B022802D9032045
:101D9000BDE8F88F28688001F4D427E00128F7D047
:101DA000D9F80000E26900F4800191421CD1226A56
:101DB00000F03F01914217D147F6C071626A0140BD
:101DC000B1EB821F10D1A26A4FF0FF3300F4403113
:101DD00003EB5202B1EB024F06D194F82C1000F045
:101DE0007060B0EB016F01D00120D1E70020CFE798
:101DF0000438024000004742800E47420070004015
:101E00000000FFFF70B515460E46040003D094F89D
:101E1000490010B107E0012070BD002084F848009F
:101E2000204600F01DF804F108012068FEF7BEFE10
:101E30003146A2682068FEF7EDFED4E9010229468A
:101E4000236BFEF795FE2168A06851F8202042F030
:101E5000010241F82020012084F84900002070BDD3
:101E6000FFF73EBA4FF0E0210428086903D020F0C4
:101E700004000861704740F00400FAE710B5401E06
:101E8000B0F1807F01D3012010BD4FF0E0246061EC
:101E90000F21601704F0F2FE0020A06107202061EE
:101EA000002010BD7047704770B590F83C20012AA3
:101EB00032D0012480F83C40022280F83D200368A3
:101EC0005A689D6822F070060A6832435A60134BC4
:101ED00002689A4214D0B2F1804F11D0104B9A424E
:101EE0000ED0104B9A420BD00F4B9A4208D00F4B9A
:101EF0009A4205D00E4B9A4202D00E4B9A4204D120
:101F0000496825F080031943916080F83D40002125
:101F100080F83C10084670BD022070BD00000140F2
:101F20000004004000080040000C00400004014094
:101F3000004001400018004010B5040003D094F8A0
:101F40003D0010B107E0012010BD002084F83C00E6
:101F5000204600F01FF8022084F83D00211D206873
:101F600003F016FF012084F8460084F83E0084F850
:101F70003F0084F8400084F8410084F8420084F86F
:101F8000430084F8440084F8450084F83D000020B4
:101F900010BD000008B500680B49884212D10B48FB
:101FA000016841F0100101600068002200F010009B
:101FB000009011463620FFF753FCBDE8084036205C
:101FC000FFF740BC08BD0000001000404038024050
:101FD00090F83D10012901D001207047022180F8BE
:101FE0003D100168CA6842F00102CA6000681149E8
:101FF000884214D0B0F1804F11D00F4988420ED0E2
:102000000E4988420BD00E49884208D00D498842BB
:1020100005D00D49884202D00C49884204D181681C
:1020200001F00701062903D0016841F001010160B8
:1020300000207047000001400004004000080040FC
:10204000000C004000040140004001400018004026
:10205000704770B50446006801694FF00005C94338
:10206000890715D4C168C943890711D4E91E0161E4
:1020700001202077206880698007204602D0FFF782
:10208000E7FF04E000F098F8204600F096F8257786
:1020900020680169C943490717D4C168C943490782
:1020A00013D46FF004010161022020772068806959
:1020B00010F4407F204602D0FFF7CAFF04E000F092
:1020C0007BF8204600F079F8257720680169C9433C
:1020D000090716D4C168C943090712D46FF0080173
:1020E0000161042020772068C0698007204602D063
:1020F000FFF7AEFF04E000F05FF8204600F05DF867
:10210000257720680169C943C90617D4C168C94346
:10211000C90613D46FF010010161082020772068F0
:10212000C06910F4407F204602D0FFF791FF04E021
:1021300000F042F8204600F040F825772068016959
:10214000C943C90708D1C168C943C90704D1891E59
:102150000161204600F032F820680169C943090690
:1021600009D4C168C943090605D46FF08001016133
:102170002046FFF797FE20680169C943490609D444
:10218000C168C943490605D46FF04001016120468A
:1021900000F036F820680169C94389060BD4C1688C
:1021A000C943890607D46FF0200101612046BDE8CC
:1021B0007040FFF778BE70BD7047704710B50D498D
:1021C00000680968884213D10B480188491C89B20C
:1021D000018002290CD3002101800A2021F0B6FFE2
:1021E00022F046F805488168BDE810400120084704
:1021F00010BD0000680300207C00002028000020A3
:10220000704770B5040004D094F83D00002510B16B
:1022100006E0012070BD84F83C50204600F022F812
:10222000242084F83D002068C16821F40051C16079
:10223000204604F04FFC2068016921F490410161BF
:102240002068416921F02A0141612068C16841F498
:102250000051C1602564202084F83D0084F83E00D0
:10226000002070BD10B586B0044614216846FDF705
:10227000E1FF14492068884221D1134800210268F7
:1022800042F010020260006800F0100005900E4855
:102290001438026842F001020260006800F0010098
:1022A00005904FF4C06000900220CDE901010320A9
:1022B00003900720049069460448FFF765F806B0CC
:1022C00010BD0000001001404438024000000240F0
:1022D0002DE9F843044690F83D001F4616460D468A
:1022E00020284CD1C5B1BEB194F83C00012846D09D
:1022F000012084F83C004FF00008C4F84080212001
:1023000084F83D00FFF746F9A6848146E684A0687C
:10231000B0F5805F03D004E00120BDE8F8832069B8
:1023200028B12E465FF0000584F83C800EE00026C0
:10233000FAE78021204604F053FCA0B9AEB116F8AC
:10234000010B21684860E08C401EE084E08C4B4625
:102350004FF0000200970028EBD14FF040012046DB
:1023600004F03EFC30B10320D7E735F8020BC0F390
:102370000800E6E7202084F83D000020CDE7022099
:10238000CBE7FEE770B50D4C0025C4F8A0520C4811
:10239000016821F440210160016841F4802101605D
:1023A000C4F8A452022004F5287408F0BFFA0120F2
:1023B0002060022008F0BAFA256070BD008040421B
:1023C000000402400E4810B5016886B041F00201D9
:1023D00001600068012400F0020005904FF4407095
:1023E000CDE900040220CDE9024069460548FEF728
:1023F000CBFF0548C0F8A442C0F8A04206B010BD0B
:1024000030380240000402400080404270B50D4C5C
:102410000025C4F8A0520C48016821F44021016055
:10242000016841F4802101600126C4F8A462022001
:1024300004F5287408F07AFA2660022008F076FA8B
:10244000256070BD00804042000402402DE9F04745
:10245000814616480024016821F44021016001688A
:102460000160134E254627464FF00108C6F8A072BA
:10247000022008F05BFAC6F8A0826006040ED6F8C7
:10248000240208B1641CE4B2012008F04FFA6D1C6C
:10249000EDB2082DEAD3B9F1000F04D0FFF772FFB7
:1024A0002046BDE8F087FFF7B1FFF9E700040240DE
:1024B000008040422DE9F04106461448016821F4AD
:1024C00040210160016841F480210160104C002727
:1024D000C4F8A0723D464FF00108F009C4F8A40208
:1024E0007006060E022008F021FAC4F8A08202202D
:1024F00008F01CFAC4F8A072022008F017FA6D1C4C
:10250000EDB2082DE9D3BDE8F081000000040240DF
:102510000080404270B50D48016821F440210160FF
:10252000016841F480210160094C0120C4F8A40233
:10253000C4F8A002042004F5287408F0F7F9002577
:102540006560042008F0F2F9256070BD00040240C7
:10255000008040420E4810B5016821F4402101601E
:10256000016841F4802101600A4C0020C4F8A002F7
:10257000C4F8A402042004F5287408F0D7F9012057
:1025800020606060BDE81040042008F0CFB9000072
:10259000000402400080404270B5124800240168E7
:1025A00021F440210160016801600F4D0126C5F84A
:1025B000A462304608F0BAF9C5F8A062012008F01C
:1025C000B5F907E0641CE4B2FA2C03D9FFF7C2FFA7
:1025D000012070BDD5F824020028F3D1C5F8A0026F
:1025E00070BD0000000402400080404270B50B49FD
:1025F0000646002408884D8821464543204602F0BF
:10260000ABFC02F01BFEB0B24FF0D84103E000BFBC
:10261000A1F88000641CAC42FAD370BD44040020D1
:102620002DE9F0478246A2EB0A00401C0E4685B217
:10263000981B401C87B200244FF0D849DDF8208059
:1026400016E0301981B2504602F086FC02F0F6FD29
:102650000020494608E000BF04FB050338F81320BA
:10266000A1F88020401C80B2A842F5D3641CA4B21B
:10267000BC42E6D3BDE8F0872DE9F04F33492C2466
:102680000A4688712A2592882B2645F2105B4FF462
:10269000305E4FF448774FF0F00949F2413A4FF479
:1026A000A07845F2103C4FF4F07358B1A1F80080C7
:1026B000A1F80290524501D0624529D10C814D818B
:1026C0008E8139E0A1F80090A1F80280524501D036
:1026D000624508D10C814D818E81624531D1A1F8CE
:1026E00000804B802DE05A4508D1A1F808E04FF456
:1026F000285048814FF42C50888106E0A2F5C8503C
:1027000063381ED10C814E818D810B804F8018E083
:102710005A4508D1A1F808E04FF4285048814FF4F9
:102720002C50888106E0A2F5C850633804D10C8192
:102730004D818E810F804B80624502D10B80A1F8C4
:102740000280BDE8F04F002002F02ABB44040020C4
:102750002DE9FE4F161ACDE900104FF000085D1A62
:1027600047464FF0FF30002E02DD4FF0010102E03E
:1027700003D14FF000018B4602E08346C6F100060C
:10278000002D02DD4FF0010002E003D14FF0000008
:10279000824602E08246C5F10005AE4201DD3446C4
:1027A00000E02C46601C4FF00009029018E00098F1
:1027B00081B2019880B200F019F8B0442F44A045CE
:1027C00004DD0198A8EB040858440190A74203DDFA
:1027D00000983F1B5044009009F101001FFA80F956
:1027E00002998945E3DDBDE8FE8F000000B502F0E7
:1027F000B3FB02F023FD03484FF0D8410088A1F855
:10280000800000BD380000202DE9FC4F80460025E7
:10281000144603200F46A0EB440649E0381B81B262
:1028200008EB050A01901FFA8AF0FFF7DFFF781B1B
:1028300081B208EB040900901FFA89F0FFF7D6FF78
:1028400007EB050B1FFA8BF11FFA89F0FFF7CEFF9C
:1028500007EB04091FFA89F11FFA8AF0FFF7C6FF98
:10286000A8EB050A1FFA89F11FFA8AF0FFF7BEFFED
:10287000A8EB04091FFA8BF11FFA89F0FFF7B6FFE6
:10288000019881B21FFA8AF0FFF7B0FF009881B279
:102890001FFA89F0FFF7AAFF6D1C002E03DA06EB82
:1028A0008506B61D04E0281B06EB8006641E0A366A
:1028B000A542B3DDBDE8FC8F2DE9F041354C9046D3
:1028C0000D460246060AA18820462F0A4089A1F536
:1028D0001343413B0CD0A1F5A643103B08D0A1F512
:1028E000AA43103B10D0A1F5C853633B25D048E064
:1028F00002F097FC304602F088FCD0B202F085FC72
:10290000A08902F08EFC36E002F08BFC304602F02B
:102910007CFC6089401C80B202F083FCD0B202F0E3
:1029200074FCA08902F07DFC384602F06EFCA089A0
:10293000401C80B202F075FC20E0A17919B9218811
:10294000891A491E8AB202F06CFC160A304602F05F
:102950005CFCD0B202F059FC304602F056FCD0B21A
:1029600002F053FCA08902F05CFC384602F04DFCFA
:10297000E8B202F04AFC384602F047FCE8B202F046
:1029800044FC4FF0D840218920F87E1FA0F8028037
:10299000BDE8F081440400202DE9F04FFF4895B0D8
:1029A0000025016841F00201016000684FF0010854
:1029B00000F00200009003204FF4004BCDE912809C
:1029C000CDE910B810A9F648FEF7DEFCF548F64947
:1029D0004FF02044C0E900410621C0E90215102152
:1029E000C0E9045185610902C561C0E90951890046
:1029F000C0E90B5189014563C0E90E510F20CDE9B3
:102A000009053C200B900920CDE9020508200F950F
:102A10000490059502AA09A90895E248FFF7F2F982
:102A2000322007F075FFD32002F0FBFB02F086F99D
:102A3000DC4A5032908002F081F9908002F07EF9F9
:102A40004FF6FF7909EA0020908002F077F991882B
:102A500049F2413A0843908045F2103645F210554C
:102A600041F66317504548D0D42002F0DAFB02F05B
:102A700065F9908002F062F9908002F05FF909EA4E
:102A80000020908002F05AF9918808439080B0426B
:102A900033D04FF45A4002F0C4FB02F04FF990805B
:102AA0004FF45B4002F0BDFB02F048F909EA002058
:102AB00090804FF45C4002F0B4FB02F03FF9918843
:102AC00008439080584501D1958016E0A84214D063
:102AD000A12002F0A6FB02F031F9908002F02EF95D
:102AE00009EA0020908002F029F991880843A0F5B6
:102AF000AE419080613900D1978091469188ABA01A
:102B000004F0ACF8B9F8040050457CD1CF2002F0B5
:102B100088FB002002F079FBC12002F076FB302018
:102B200002F073FBED2002F07CFB642002F06DFBF1
:102B3000032002F06AFB122002F067FB812002F002
:102B400064FBE82002F06DFB852002F05EFB1020A4
:102B500002F05BFB7A2002F058FBCB2002F061FB15
:102B6000392002F052FB2C2002F04FFB002002F033
:102B70004CFB342002F049FB022002F046FBF72018
:102B800002F04FFB202002F040FBEA2002F049FB5C
:102B9000002002F03AFB002002F037FBC02002F0D8
:102BA00040FB1B2002F031FBC12002F03AFB012068
:102BB00002F02BFBC52002F034FB302002F025FB95
:102BC000302002F022FBC72002F02BFBB72002F0DE
:102BD0001CFB362002F025FB482002F016FB3A20B1
:102BE00002F01FFB552002F010FBB12002F019FB90
:102BF000002002F00AFB1A2002F007FBB62002F0C8
:102C000010FB0A2000E097E002F0FFFAA22002F099
:102C1000FCFAF22002F005FB002002F0F6FA262072
:102C200002F0FFFA012002F0F0FAE02002F0F9FAD7
:102C30000F2002F0EAFA2A2002F0E7FA282002F038
:102C4000E4FA082002F0E1FA0E2002F0DEFA082091
:102C500002F0DBFA542002F0D8FAA92002F0D5FAEB
:102C6000432002F0D2FA0A2002F0CFFA0F2002F03D
:102C7000CCFA002002F0C9FA002002F0C6FA0020C7
:102C800002F0C3FA002002F0C0FAE12002F0C9FA13
:102C9000002002F0BAFA152002F0B7FA172002F06D
:102CA000B4FA072002F0B1FA112002F0AEFA0620C1
:102CB00002F0ABFA2B2002F0A8FA562002F0A5FA97
:102CC0003C2002F0A2FA052002F09FFA102002F048
:102CD0009CFA0F2002F099FA3F2002F096FA3F206A
:102CE00002F093FA0F2002F090FA2B2002F099FAEA
:102CF000002002F08AFA002002F087FA012002F098
:102D000084FA3F2002F081FA2A2002F08AFA002099
:102D100002F07BFA002002F078FA002002F075FA47
:102D2000EF2002F072FA112002F07BFA782007F00F
:102D3000EFFD292001F010BFB0427CD1ED2002F060
:102D400070FA012002F061FAFE2002F05EFAEE2035
:102D500002F067FADE2002F058FA212002F055FA5C
:102D6000F12002F05EFA012002F04FFADF2002F0BB
:102D700058FA102002F049FAC42002F052FA8F20CB
:102D800002F043FAC62002F04CFA002002F03DFAAD
:102D9000E22002F03AFAE22010E00000303802406F
:102DA00000040240F4030020040100A0204C43442E
:102DB0002049443A25780D0A0000000002F025FA67
:102DC000E22002F022FABF2002F02BFAAA2002F041
:102DD0001CFAB02002F025FA0D2002F016FA0020AD
:102DE00002F013FA0D2002F010FA002002F00DFAA2
:102DF000112002F00AFA002002F007FA192002F06E
:102E000004FA002002F001FA212002F0FEF900206D
:102E100002F0FBF92D2002F0F8F9002002F0F5F99C
:102E20003D2002F0F2F9002002F0EFF95D2002F0FF
:102E3000ECF9002000E0FCE302F0E7F95D2002F08D
:102E4000E4F9002002F0E1F9B12002F0EAF9802073
:102E500002F0DBF9002002F0D8F98B2002F0D5F95E
:102E6000002002F0D2F9962002F0CFF9002002F003
:102E7000CCF9B22002F0D5F9002002F0C6F900200A
:102E800002F0C3F9022002F0C0F9002002F0BDF9FF
:102E9000032002F0BAF9002002F0B7F9B32002F0E3
:102EA000C0F9002002F0B1F9002002F0AEF90020D4
:102EB00002F0ABF9002002F0A8F9002002F0A5F919
:102EC000002002F0A2F9002002F09FF9002002F099
:102ED0009CF9002002F099F9002002F096F90020F8
:102EE00002F093F9002002F090F9002002F08DF931
:102EF000002002F08AF9002002F087F9002002F099
:102F000084F9002002F081F9002002F07EF900200F
:102F100002F07BF9002002F078F9002002F075F948
:102F2000002002F072F9002002F06FF9002002F098
:102F30006CF9B42002F075F98B2002F066F90020DC
:102F400002F063F9962002F060F9002002F05DF9CA
:102F5000A12002F05AF9002002F057F9B52002F042
:102F600060F9022002F051F9002002F04EF903202E
:102F700002F04BF9002002F048F9042002F045F974
:102F8000002002F042F9B62002F04BF9002002F0D6
:102F90003CF9002002F039F9B72002F042F9002094
:102FA00002F033F9002002F030F93F2002F02DF951
:102FB000002002F02AF95E2002F027F9002002F03A
:102FC00024F9642002F021F9002002F01EF98C207F
:102FD00002F01BF9002002F018F9AC2002F015F9FC
:102FE000002002F012F9DC2002F00FF9002002F0BC
:102FF0000CF9702002F009F9002002F006F9902087
:1030000002F003F9002002F000F9EB2002F0FDF8D5
:10301000002002F0FAF8DC2002F0F7F8002002F0BD
:10302000F4F8B82002F0FDF8002002F0EEF80020DD
:1030300002F0EBF8002002F0E8F8002002F0E5F8DA
:10304000002002F0E2F8002002F0DFF8002002F099
:10305000DCF8002002F0D9F8BA2002F0E2F82420CF
:1030600002F0D3F8002002F0D0F8002002F0CDF8F2
:10307000002002F0CAF8C12002F0D3F8202002F0AC
:10308000C4F8002002F0C1F8542002F0BEF800207D
:1030900002F0BBF8FF2002F0B8F8002002F0B5F80B
:1030A000C22002F0BEF80A2002F0AFF8002002F0C1
:1030B000ACF8042002F0A9F8002002F0A6F8C32022
:1030C00002F0AFF83C2002F0A0F8002002F09DF8DA
:1030D0003A2002F09AF8002002F097F8392002F026
:1030E00094F8002002F091F8372002F08EF80020CA
:1030F00002F08BF83C2002F088F8002002F085F8FE
:10310000362002F082F8002002F07FF8322002F030
:103110007CF8002002F079F82F2002F076F80020E9
:1031200002F073F82C2002F070F8002002F06DF825
:10313000292002F06AF8002002F067F8262002F049
:1031400064F8002002F061F8242002F05EF800200C
:1031500002F05BF8242002F058F8002002F055F845
:10316000232002F052F8002002F04FF83C2002F039
:103170004CF8002002F049F8362002F046F8002012
:1031800002F043F8322002F040F8002002F03DF84F
:103190002F2002F03AF8002002F037F82C2002F03D
:1031A00034F8002002F031F8292002F02EF8002037
:1031B00002F02BF8262002F028F8002002F025F873
:1031C000242002F022F8002002F01FF8242002F050
:1031D0001CF8002002F019F8232002F016F8002055
:1031E00002F013F8C42002F01CF8622002F00DF87F
:1031F000002002F00AF8052002F007F8002002F093
:1032000004F8842002F001F8002001F0FEFFF02015
:1032100001F0FBFF002001F0F8FF182001F0F5FF9E
:10322000002001F0F2FFA42001F0EFFF002001F0E8
:10323000ECFF182001F0E9FF002001F0E6FF50202C
:1032400001F0E3FF002001F0E0FF0C2001F0DDFFC2
:10325000002001F0DAFF172001F0D7FF002001F075
:10326000D4FF952001F0D1FF002001F0CEFFF32024
:1032700001F0CBFF002001F0C8FFE62001F0C5FF00
:10328000002001F0C2FFC52001F0CBFF322001F089
:10329000BCFF002001F0B9FF442001F0B6FF002080
:1032A00001F0B3FF652001F0B0FF002001F0ADFF99
:1032B000762001F0AAFF002001F0A7FF882001F08E
:1032C000A4FF002001F0A1FFC62001F0AAFF2020EA
:1032D00001F09BFF002001F098FF172001F095FFFF
:1032E000002001F092FF012001F08FFF002001F08B
:1032F0008CFFC72001F095FF002001F086FF002021
:1033000001F083FF002001F080FF002001F07DFF2D
:10331000C82001F086FF002001F077FF002001F0B7
:1033200074FF002001F071FF002001F06EFFC92042
:1033300001F077FF002001F068FF002001F065FF39
:10334000002001F062FF002001F05FFF002001F08B
:103350005CFF002001F059FF002001F056FF002023
:1033600001F053FF002001F050FF002001F04DFF5D
:10337000002001F04AFF002001F047FF002001F08B
:1033800044FF002001F041FF002001F03EFF00203B
:1033900001F03BFFE02001F044FF162001F035FF73
:1033A000002001F032FF1C2001F02FFF002001F06F
:1033B0002CFF212001F029FF002001F026FF3620FC
:1033C00001F023FF002001F020FF462001F01DFF47
:1033D000002001F01AFF522001F017FF002001F039
:1033E00014FF642001F011FF002001F00EFF7A208D
:1033F00001F00BFF002001F008FF8B2001F005FF1A
:10340000002001F002FF992001F0FFFE002001F0F2
:10341000FCFEA82001F0F9FE002001F0F6FEB92024
:1034200001F0F3FE002001F0F0FEC42001F0EDFEFB
:10343000002001F0EAFECA2001F0E7FE002001F0C2
:10344000E4FED22001F0E1FE002001F0DEFED920F2
:1034500001F0DBFE002001F0D8FEE02001F0D5FEF7
:10346000002001F0D2FEF32001F0CFFE002001F099
:10347000CCFEE12001F0D5FE162001F0C6FE0020B2
:1034800001F0C3FE1C2001F0C0FE002001F0BDFED3
:10349000222001F0BAFE002001F0B7FE362001F034
:1034A000B4FE002001F0B1FE452001F0AEFE002088
:1034B00001F0ABFE522001F0A8FE002001F0A5FEB5
:1034C000642001F0A2FE002001F09FFE7A2001F0AE
:1034D0009CFE002001F099FE8B2001F096FE00205A
:1034E00001F093FE992001F090FE002001F08DFE86
:1034F000A82001F08AFE002001F087FEB92001F02B
:1035000084FE002001F081FEC42001F07EFE002038
:1035100001F07BFECA2001F078FE002001F075FE6C
:10352000D22001F072FE002001F06FFED82001F0E1
:103530006CFE002001F069FEE02001F066FE002034
:1035400001F063FEF32001F060FE002001F05DFE5B
:10355000E22001F066FE052001F057FE002001F098
:1035600054FE0B2001F051FE002001F04EFE1B2006
:1035700001F04BFE002001F048FE342001F045FE32
:10358000002001F042FE442001F03FFE002001F047
:103590003CFE4F2001F039FE002001F036FE612094
:1035A00001F033FE002001F030FE792001F02DFE05
:1035B000002001F02AFE882001F027FE002001F003
:1035C00024FE972001F021FE002001F01EFEA6201F
:1035D00001F01BFE002001F018FEB72001F015FEDF
:1035E000002001F012FEC22001F00FFE002001F0C9
:1035F0000CFEC72001F009FE002001F006FED120DC
:1036000001F003FE002001F000FED62001F0FDFDD8
:10361000002001F0FAFDDD2001F0F7FD002001F0AF
:10362000F4FDF32001F0F1FD002001F0EEFDE320B8
:1036300000E00FE301F0F5FD052001F0E6FD0020BC
:1036400001F0E3FD0A2001F0E0FD002001F0DDFDC6
:103650001C2001F0DAFD002001F0D7FD332001F03D
:10366000D4FD002001F0D1FD442001F0CEFD00206A
:1036700001F0CBFD502001F0C8FD002001F0C5FD98
:10368000622001F0C2FD002001F0BFFD782001F0B2
:10369000BCFD002001F0B9FD882001F0B6FD00203E
:1036A00001F0B3FD972001F0B0FD002001F0ADFD69
:1036B000A62001F0AAFD002001F0A7FDB72001F02F
:1036C000A4FD002001F0A1FDC22001F09EFD00201C
:1036D00001F09BFDC72001F098FD002001F095FD51
:1036E000D12001F092FD002001F08FFDD52001F0E6
:1036F0008CFD002001F089FDDD2001F086FD002019
:1037000001F083FDF32001F080FD002001F07DFD3C
:10371000E42001F086FD012001F077FD002001F09A
:1037200074FD012001F071FD002001F06EFD02200A
:1037300001F06BFD002001F068FD2A2001F065FD1D
:10374000002001F062FD3C2001F05FFD002001F04F
:103750005CFD4B2001F059FD002001F056FD5D207D
:1037600001F053FD002001F050FD742001F04DFDEB
:10377000002001F04AFD842001F047FD002001F007
:1037800044FD932001F041FD002001F03EFDA22008
:1037900001F03BFD002001F038FDB32001F035FDC4
:1037A000002001F032FDBE2001F02FFD002001F0CD
:1037B0002CFDC42001F029FD002001F026FDCD20C4
:1037C00001F023FD002001F020FDD32001F01DFDBC
:1037D000002001F01AFDDD2001F017FD002001F0AE
:1037E00014FDF32001F011FD002001F00EFDE52095
:1037F00001F017FD002001F008FD002001F005FD9B
:10380000002001F002FD002001F0FFFC022001F089
:10381000FCFC002001F0F9FC292001F0F6FC00205E
:1038200001F0F3FC3C2001F0F0FC002001F0EDFC85
:103830004B2001F0EAFC002001F0E7FC5D2001F0E4
:10384000E4FC002001F0E1FC742001F0DEFC00202B
:1038500001F0DBFC842001F0D8FC002001F0D5FC55
:10386000932001F0D2FC002001F0CFFCA22001F057
:10387000CCFC002001F0C9FCB32001F0C6FC002004
:1038800001F0C3FCBE2001F0C0FC002001F0BDFC33
:10389000C42001F0BAFC002001F0B7FCCD2001F0FB
:1038A000B4FC002001F0B1FCD32001F0AEFC0020FC
:1038B00001F0ABFCDC2001F0A8FC002001F0A5FC2D
:1038C000F32001F0A2FC002001F09FFCE62001F0B3
:1038D000A8FC112001F099FC002001F096FC342096
:1038E00001F093FC002001F090FC562001F08DFCCB
:1038F000002001F08AFC762001F087FC002001F016
:1039000084FC772001F081FC002001F07EFC662021
:1039100001F07BFC002001F078FC882001F075FCB0
:10392000002001F072FC992001F06FFC002001F0F2
:103930006CFCBB2001F069FC002001F066FC9920C2
:1039400001F063FC002001F060FC662001F05DFCEA
:10395000002001F05AFC552001F057FC002001F036
:1039600054FC552001F051FC002001F04EFC452094
:1039700001F04BFC002001F048FC432001F045FC25
:10398000002001F042FC442001F03FFC002001F047
:103990003CFCE72001F045FC322001F036FC002021
:1039A00001F033FC552001F030FC002001F02DFC2B
:1039B000762001F02AFC002001F027FC662001F0AF
:1039C00024FC002001F021FC672001F01EFC0020F7
:1039D00001F01BFC672001F018FC002001F015FC31
:1039E000872001F012FC002001F00FFC992001F06B
:1039F0000CFC002001F009FCBB2001F006FC0020BB
:103A000001F003FC992001F000FC002001F0FDFB17
:103A1000772001F0FAFB002001F0F7FB442001F0D1
:103A2000F4FB002001F0F1FB562001F0EEFB00203A
:103A300001F0EBFB232001F0E8FB002001F0E5FBA7
:103A4000332001F0E2FB002001F0DFFB452001F014
:103A5000DCFB002001F0D9FBE82001F0E2FB0020B4
:103A600001F0D3FB002001F0D0FB992001F0CDFB49
:103A7000002001F0CAFB872001F0C7FB002001F005
:103A8000C4FB882001F0C1FB002001F0BEFB7720C1
:103A900001F0BBFB002001F0B8FB662001F0B5FB94
:103AA000002001F0B2FB882001F0AFFB002001F004
:103AB000ACFBAA2001F0A9FB002001F0A6FBBB2073
:103AC00001F0A3FB002001F0A0FB992001F09DFB79
:103AD000002001F09AFB662001F097FB002001F026
:103AE00094FB552001F091FB002001F08EFB552046
:103AF00001F08BFB002001F088FB442001F085FBE6
:103B0000002001F082FB442001F07FFB002001F047
:103B10007CFB552001F079FB002001F076FBE920C9
:103B200001F07FFBAA2001F070FB002001F06DFB8B
:103B3000002001F06AFB002001F067FB002001F08B
:103B400070FBAA2001F061FBCF2001F06AFB00208E
:103B500001F05BFB002001F058FB002001F055FB59
:103B6000002001F052FB002001F04FFB002001F08B
:103B70004CFB002001F049FB002001F046FB002037
:103B800001F043FB002001F040FB002001F03DFB71
:103B9000002001F03AFB002001F037FB002001F08B
:103BA00034FB002001F031FB002001F02EFB00204F
:103BB00001F02BFBF02001F034FB002001F025FB8D
:103BC000502001F022FB002001F01FFB002001F03B
:103BD0001CFB002001F019FBF32001F022FB002068
:103BE00001F013FBF92001F01CFB062001F00DFB96
:103BF000102001F00AFB292001F007FB002001F052
:103C000004FB3A2001F00DFB552001F0FEFA1120D3
:103C100001F007FB642006F07BFE292001F001FB88
:103C2000352001F0FEFA002001F0EFFA512001F0FA
:103C3000F8FAFF2001F0E9FA532001F0F2FA2C2003
:103C400001F0E3FA552001F0ECFA822001F0DDFAF0
:103C50002C20FDE3A8427DD14FF470435521184636
:103C600001F0F6FA4FF2010BAA21584601F0F0FAE2
:103C700052214FF2020001F0EBFA08214FF203004B
:103C800001F0E6FA01214FF2040001F0E1FA0D2102
:103C90004FF4304001F0DCFA0D214BF2010001F04D
:103CA000D7FA0D214BF2020001F0D2FA34214FF481
:103CB000364001F0CDFA34214BF2016001F0C8FA30
:103CC00034214BF2026001F0C3FA0D214FF4314070
:103CD00001F0BEFA0D214BF2011001F0B9FA0D21ED
:103CE0004BF2021001F0B4FA34214FF4374001F0E6
:103CF000AFFA34214BF2017001F0AAFA34214BF2F1
:103D0000027001F0A5FA00214FF4324001F0A0FA50
:103D100000214BF2012001F09BFA00214BF202201E
:103D200001F096FA24214FF4384001F091FA242151
:103D30004BF6010001F08CFA24214BF6020001F051
:103D400087FA01214FF43F4001F082FA0F214FF42E
:103D5000334000E0FEE301F07BFA0F214BF201302B
:103D600001F076FA0F214BF2023001F071FA3421A2
:103D70004FF4394001F06CFA34214BF6011001F098
:103D800067FA34214BF6021001F062FA08214FF471
:103D9000354001F05DFA08214BF2015001F058FA6C
:103DA00008214BF2025001F053FA03214FF4424034
:103DB00001F04EFA24214FF43A4001F049FA24214F
:103DC0004BF6012001F044FA24214BF6022001F0C9
:103DD0003FFA00214FF43C4001F03AFA78214BF6CB
:103DE000014001F035FA00214BF6024001F030FAB3
:103DF00000214FF43D4001F02BFA78214BF60150A1
:103E000001F026FA00214BF6025001F021FA0021C0
:103E10004FF43E4001F01CFA64214BF6016001F0C2
:103E200017FA00214FF4514001F012FA33214DF2FC
:103E3000011001F00DFA00214DF2021001F008FA14
:103E400034214DF2031001F003FA00214DF2041069
:103E500001F0FEF93A214DF2051001F0F9F90021C7
:103E60004DF2061001F0F4F94A214DF2071001F06D
:103E7000EFF900214DF2081001F0EAF95C214DF252
:103E8000091001F0E5F900214DF20A1001F0E0F906
:103E900081214DF20B1001F0DBF900214DF20C10E5
:103EA00001F0D6F9A6214DF20D1001F0D1F9002153
:103EB0004DF20E1001F0CCF9E5214DF20F1001F09A
:103EC000C7F901214DF2101001F0C2F913214DF292
:103ED000111001F0BDF901214DF2121001F0B8F9F5
:103EE00054214DF2131001F0B3F901214DF21410D9
:103EF00001F0AEF982214DF2151001F0A9F901216E
:103F00004DF2161001F0A4F9CA214DF2171001F07C
:103F10009FF902214DF2181001F09AF900214DF29B
:103F2000191001F095F902214DF21A1001F090F9E3
:103F300001214DF21B1001F08BF902214DF21C10F2
:103F400001F086F934214DF21D1001F081F90221B2
:103F50004DF21E1001F07CF967214DF21F1001F0A7
:103F600077F902214DF2201001F072F984214DF20F
:103F7000211001F06DF902214DF2221001F068F9D3
:103F8000A4214DF2231001F063F902214DF2241017
:103F900001F05EF9B7214DF2251001F059F9022127
:103FA0004DF2261001F054F9CF214DF2271001F007
:103FB0004FF902214DF2281001F04AF9DE214DF2AD
:103FC000291001F045F902214DF22A1001F040F9C3
:103FD000F2214DF22B1001F03BF902214DF22C1091
:103FE00001F036F9FE214DF22D1001F031F90321D7
:103FF0004DF22E1001F02CF910214DF22F1001F08E
:1040000027F903214DF2301001F022F933214DF24E
:10401000311001F01DF903214DF2321001F018F9B1
:104020006D214DF2331001F013F900214FF452408D
:1040300001F00EF933214DF2012001F009F90021C0
:104040004DF2022001F004F934214DF2032001F079
:10405000FFF800214DF2042001F0FAF83A214DF268
:10406000052001F0F5F800214DF2062001F0F0F8EE
:104070004A214DF2072001F0EBF800214DF2082013
:1040800001F0E6F85C214DF2092001F0E1F8002191
:104090004DF20A2001F0DCF881214DF20B2001F0F5
:1040A000D7F800214DF20C2001F0D2F8A6214DF2F4
:1040B0000D2001F0CDF800214DF20E2001F0C8F8DE
:1040C000E5214DF20F2001F0C3F801214DF210203F
:1040D00001F0BEF813214DF2112001F0B9F80121D1
:1040E0004DF2122001F0B4F854214DF2132001F0EA
:1040F000AFF801214DF2142001F0AAF882214DF20F
:10410000152001F0A5F801214DF2162001F0A0F8CC
:10411000CA214DF2172001F09BF802214DF2182020
:1041200001F096F800214DF2192001F091F80221DA
:104130004DF21A2001F08CF801214DF21B2001F004
:1041400087F802214DF21C2001F082F834214DF253
:104150001D2001F07DF802214DF21E2001F078F8BB
:1041600067214DF21F2001F073F802214DF220204B
:1041700001F06EF884214DF2212001F069F802214E
:104180004DF2222001F064F8A4214DF2232001F029
:104190005FF802214DF2242001F05AF8B7214DF2C8
:1041A000252001F055F802214DF2262001F050F8AB
:1041B000CF214DF2272001F04BF802214DF22820AB
:1041C00001F046F8DE214DF2292001F041F80221EC
:1041D0004DF22A2001F03CF8F2214DF22B2001F0A3
:1041E00037F802214DF22C2001F032F8FE214DF279
:1041F0002D2001F02DF803214DF22E2001F028F89A
:1042000010214DF22F2001F023F803214DF2302030
:1042100001F01EF833214DF2312001F019F803218D
:104220004DF2322001F014F86D214DF2332001F0EF
:104230000FF800214FF4534001F00AF833214DF2FA
:10424000013001F005F800214DF2023001F000F8D4
:1042500034214DF2033000F0FBFF00214DF2043019
:1042600000F0F6FF3A214DF2053000F0F1FF002199
:104270004DF2063000F0ECFF4A214DF2073000F01D
:10428000E7FF00214DF2083000F0E2FF5C214DF223
:10429000093000F0DDFF00214DF20A3000F0D8FFB8
:1042A00081214DF20B3000F0D3FF00214DF20C3094
:1042B00000F0CEFFA6214DF20D3000F0C9FF002125
:1042C0004DF20E3000F0C4FFE5214DF20F3000F04A
:1042D000BFFF01214DF2103000F0BAFF13214DF263
:1042E000113000F0B5FF01214DF2123000F0B0FFA7
:1042F00054214DF2133000F0ABFF01214DF2143088
:1043000000F0A6FF82214DF2153000F0A1FF01213F
:104310004DF2163000F09CFFCA214DF2173000F02C
:1043200097FF02214DF2183000F092FF00214DF26C
:10433000193000F08DFF02214DF21A3000F088FF95
:1043400001214DF21B3000F083FF02214DF21C30A1
:1043500000F07EFF34214DF21D3000F079FF022184
:104360004DF21E3000F074FF67214DF21F3000F057
:104370006FFF02214DF2203000F06AFF84214DF2E0
:10438000213000F065FF02214DF2223000F060FF85
:10439000A4214DF2233000F05BFF02214DF22430C6
:1043A00000F056FFB7214DF2253000F051FF0221F9
:1043B0004DF2263000F04CFFCF214DF2273000F0B7
:1043C00047FF02214DF2283000F042FFDE214DF27E
:1043D000293000F03DFF02214DF22A3000F038FF75
:1043E000F2214DF22B3000F033FF02214DF22C3040
:1043F00000F02EFFFE214DF22D3000F029FF0321A9
:104400004DF22E3000F024FF10214DF22F3000F03D
:104410001FFF03214DF2303000F01AFF33214DF21F
:10442000313000F015FF03214DF2323000F010FF63
:104430006D214DF2333000F00BFF00214FF454405A
:1044400000F006FF33214DF2014000F001FF00E0D3
:1044500082E300214DF2024000F0FAFE34214DF2D9
:10446000034000F0F5FE00214DF2044000F0F0FEA4
:104470003A214DF2054000F0EBFE00214DF20640DE
:1044800000F0E6FE4A214DF2074000F0E1FE002177
:104490004DF2084000F0DCFE5C214DF2094000F0D6
:1044A000D7FE00214DF20A4000F0D2FE81214DF2EC
:1044B0000B4000F0CDFE00214DF20C4000F0C8FE94
:1044C000A6214DF20D4000F0C3FE00214DF20E403A
:1044D00000F0BEFEE5214DF20F4000F0B9FE0121D3
:1044E0004DF2104000F0B4FE13214DF2114000F0E7
:1044F000AFFE01214DF2124000F0AAFE54214DF210
:10450000134000F0A5FE01214DF2144000F0A0FE82
:1045100082214DF2154000F09BFE01214DF2164024
:1045200000F096FECA214DF2174000F091FE0221E4
:104530004DF2184000F08CFE00214DF2194000F0C1
:1045400087FE02214DF21A4000F082FE01214DF259
:104550001B4000E003E300F07BFE02214DF21C4013
:1045600000F076FE34214DF21D4000F071FE022174
:104570004DF21E4000F06CFE67214DF21F4000F02E
:1045800067FE02214DF2204000F062FE84214DF2D0
:10459000214000F05DFE02214DF2224000F058FE65
:1045A000A4214DF2234000F053FE02214DF224409D
:1045B00000F04EFEB7214DF2254000F049FE0221E9
:1045C0004DF2264000F044FECF214DF2274000F08E
:1045D0003FFE02214DF2284000F03AFEDE214DF26E
:1045E000294000F035FE02214DF22A4000F030FE55
:1045F000F2214DF22B4000F02BFE02214DF22C4017
:1046000000F026FEFE214DF22D4000F021FE032198
:104610004DF22E4000F01CFE10214DF22F4000F014
:1046200017FE03214DF2304000F012FE33214DF20F
:10463000314000F00DFE03214DF2324000F008FE43
:104640006D214DF2334000F003FE00214FF4554040
:1046500000F0FEFD33214DF2015000F0F9FD002184
:104660004DF2025000F0F4FD34214DF2035000F001
:10467000EFFD00214DF2045000F0EAFD3A214DF229
:10468000055000F0E5FD00214DF2065000F0E0FD80
:104690004A214DF2075000F0DBFD00214DF2085099
:1046A00000F0D6FD5C214DF2095000F0D1FD002153
:1046B0004DF20A5000F0CCFD81214DF20B5000F07C
:1046C000C7FD00214DF20C5000F0C2FDA6214DF2B5
:1046D0000D5000F0BDFD00214DF20E5000F0B8FD70
:1046E000E5214DF20F5000F0B3FD01214DF21050C5
:1046F00000F0AEFD13214DF2115000F0A9FD012193
:104700004DF2125000F0A4FD54214DF2135000F070
:104710009FFD01214DF2145000F09AFD82214DF2CF
:10472000155000F095FD01214DF2165000F090FD5E
:10473000CA214DF2175000F08BFD02214DF21850A6
:1047400000F086FD00214DF2195000F081FD02219C
:104750004DF21A5000F07CFD01214DF21B5000F08B
:1047600077FD02214DF21C5000F072FD34214DF214
:104770001D5000F06DFD02214DF21E5000F068FD4D
:1047800067214DF21F5000F063FD02214DF22050D1
:1047900000F05EFD84214DF2215000F059FD022110
:1047A0004DF2225000F054FDA4214DF2235000F0B0
:1047B0004FFD02214DF2245000F04AFDB7214DF289
:1047C000255000F045FD02214DF2265000F040FD3D
:1047D000CF214DF2275000F03BFD02214DF2285031
:1047E00000F036FDDE214DF2295000F031FD0221AE
:1047F0004DF22A5000F02CFDF2214DF22B5000F02A
:1048000027FD02214DF22C5000F022FDFE214DF239
:104810002D5000F01DFD03214DF22E5000F018FD2B
:1048200010214DF22F5000F013FD03214DF23050B6
:1048300000F00EFD33214DF2315000F009FD03214F
:104840004DF2325000F004FD6D214DF2335000F076
:10485000FFFC00214FF4564000F0FAFC33214DF2EA
:10486000016000F0F5FC00214DF2026000F0F0FC68
:1048700034214DF2036000F0EBFC00214DF20460A6
:1048800000F0E6FC3A214DF2056000F0E1FC002169
:104890004DF2066000F0DCFC4A214DF2076000F0AA
:1048A000D7FC00214DF2086000F0D2FC5C214DF2F3
:1048B000096000F0CDFC00214DF20A6000F0C8FC58
:1048C00081214DF20B6000F0C3FC00214DF20C6021
:1048D00000F0BEFCA6214DF20D6000F0B9FC0021F5
:1048E0004DF20E6000F0B4FCE5214DF20F6000F0D7
:1048F000AFFC01214DF2106000F0AAFC13214DF233
:10490000116000F0A5FC01214DF2126000F0A0FC46
:1049100054214DF2136000F09BFC01214DF2146014
:1049200000F096FC82214DF2156000F091FC01210F
:104930004DF2166000F08CFCCA214DF2176000F0B9
:1049400087FC02214DF2186000F082FC00214DF23C
:10495000196000F07DFC02214DF21A6000F078FC35
:1049600001214DF21B6000F073FC02214DF21C602E
:1049700000F06EFC34214DF21D6000F069FC022154
:104980004DF21E6000F064FC67214DF21F6000F0E4
:104990005FFC02214DF2206000F05AFC84214DF2B0
:1049A000216000F055FC02214DF2226000F050FC25
:1049B000A4214DF2236000F04BFC02214DF2246053
:1049C00000F046FCB7214DF2256000F041FC0221C9
:1049D0004DF2266000F03CFCCF214DF2276000F044
:1049E00037FC02214DF2286000F032FCDE214DF24E
:1049F000296000F02DFC02214DF22A6000F028FC15
:104A0000F2214DF22B6000F023FC02214DF22C60CC
:104A100000F01EFCFE214DF22D6000F019FC032178
:104A20004DF22E6000F014FC10214DF22F6000F0CA
:104A30000FFC03214DF2306000F00AFC33214DF2EF
:104A4000316000F005FC03214DF2326000F000FC03
:104A50006D214DF2336000F0FBFB5521184600F04C
:104A6000F7FBAA21584600F0F3FB52214FF2020057
:104A700000F0EEFB08214FF2030000F0E9FB0021FB
:104A80004FF2040000F0E4FBCC214FF4314000F081
:104A9000DFFB00214BF2011000F0DAFB05214FF49F
:104AA000364000F0D5FB70214FF4374000F0D0FBCA
:104AB00070214BF2017000F0CBFB01214FF4384024
:104AC00000F0C6FB03214BF6010000F0C1FB0321FF
:104AD0004BF6020000F0BCFB03214BF6030000F094
:104AE000B7FB02214FF43C4000F0B2FB00214BF633
:104AF000014000F0ADFB00214BF6024000F0A8FBA6
:104B0000D0214FF4494000F0A3FB02214CF60110E4
:104B100000F09EFB50214CF6021000F099FB502152
:104B20004CF6031000F094FB50214CF6041000F0FA
:104B30008FFB00214FF4545000F08AFB55214FF4B5
:104B4000685000F085FB4FF4885000F06AFB782035
:104B500005F0ECFE4FF4245000F063FBB9E0B842DE
:104B6000FCD1E22000F05DFB1D2000F04EFB022096
:104B700000F04BFB042000F048FB642005F0D6FE5B
:104B8000E02000F04EFB012000F03FFB0A2005F082
:104B9000BFFEE02000F045FB032000F036FB0C20B8
:104BA00005F0B6FE012000F03CFB0A2005F0B0FE47
:104BB000E62000F036FB2F2000F027FBFF2000F05E
:104BC00024FBFF2000F021FBB02000F02AFB202076
:104BD00000F01BFB002000F018FB032000F015FB89
:104BE00040F21F3000F011FB012000F00EFB40F2FC
:104BF000DF1000F00AFB002000F007FBB42000F0FB
:104C000010FB042000F001FB40F21F4000F0FDFA11
:104C1000002000F0FAFA2E2000F0F7FA002000F051
:104C2000F4FA002000F0F1FA002000F0EEFA002083
:104C300000F0EBFAB62000F0F4FA022000F0E5FAFA
:104C40004FF4037000F0E1FA002000F0DEFA1720C4
:104C500000F0DBFA152000F0D8FA002000F0D5FAB9
:104C6000002000F0D2FAF02000F0DBFA032000F080
:104C7000CCFA292000F0D5FAD02000F0D2FA00209A
:104C800000F0C3FABE2000F0CCFA052000F0BDFA17
:104C9000FE2000F0BAFA012000F0B7FA002000F080
:104CA000B4FA002000F0B1FA002000F0AEFAB8200B
:104CB00000F0B7FA032000F0A8FA012000F0A5FAEE
:104CC000BA2000F0AEFA012000F09FFA642000F054
:104CD0003FF8B9F80400504505D0B04203D0A842CF
:104CE00001D0B84217D1D4F81C0120F00F00C4F84D
:104CF0001C01D4F81C0120F47060C4F81C01D4F825
:104D00001C0140F00300C4F81C01D4F81C0140F45D
:104D10000070C4F81C010120FDF7AEFC0249C1F887
:104D2000BC8215B0BDE8F08F0080404202460120F1
:104D300000E05043491EC9B2FBD2704708B54FF09E
:104D4000D840B0F88000ADF80000BDF8000008BD04
:104D500010B50246BE2000F064FA052000F055FAB6
:104D60001046FBF7A9FB9FED0C1B53EC112BFBF737
:104D700031FBFBF7AEFB80B200F047FA012000F0F8
:104D800044FAFF2000F041FA002000F03EFABDE8AE
:104D90001040002000F039BA666666666666044018
:104DA000F0B56C4C00232146A279898841F6631640
:104DB000012A01D01AB11BE0B14202D118E0B14280
:104DC00016D1082814D2DFE800F00406080A0C0EF9
:104DD000101206200CE007200AE0042008E005205D
:104DE00006E0012004E0002002E0032000E00220B1
:104DF000A1F5134745F2103245F21055413F05D059
:104E0000914203D0A94201D0B14277D1082812D2F1
:104E1000DFE800F0110406080A0C0E1080230AE0F7
:104E2000402308E0C02306E0202304E0602302E0E2
:104E3000A02300E0E023A94202D14FF4585000E043
:104E40003620914205D0A94203D0B14201D043F0AF
:104E50000803194600F0FCF9A188B1420AD098066F
:104E60002088628802D5904202D303E0904201D9A3
:104E7000228060806089A94241D100F0D2F90020EF
:104E800000F0C3F96089401C80B200F0CAF900202C
:104E900000F0BBF96089801C80B200F0C2F9208864
:104EA000401EC0F30F2000F0B0F96089C01C80B232
:104EB00000F0B7F92078401EC0B200F0A6F9A08932
:104EC00000F0AFF9002000F0A0F9A089401C80B2EA
:104ED00000F0A7F9002000F098F9A089801C80B2AA
:104EE00000F09FF96088401EC0F30F2000F08DF99C
:104EF000A089C01C80B200F094F922E028E000F004
:104F000090F9002000F081F9002000F07EF920885F
:104F1000401EC0F30F2000F078F92078401EC0B288
:104F200000F073F9A08900F07CF9002000F06DF921
:104F3000002000F06AF96088401EC0F30F2000F0E6
:104F400064F9A078BDE8F040401EC0B200F05DB941
:104F5000F0BD000044040020F0B53F4A0D46044671
:104F6000060A918810462F0A4089A1F51343413B58
:104F700028D0A1F5A643103B24D0A1F5C853633B2C
:104F80002FD0A1F5AA43103B64D100F04AF9304676
:104F900000F03BF95089401C80B200F042F9E0B2C9
:104FA00000F033F9908900F03CF9384600F02DF913
:104FB0009089401C80B200F034F9E8B2BDE8F040BE
:104FC00000F023B900F02DF9304600F01EF9E0B2F0
:104FD00000F01BF9908900F024F9384600F015F92B
:104FE000EBE7917929B300F01CF9304600F00DF998
:104FF000E0B200F00AF91088401EC0F30F2000F064
:1050000004F91078401EC0B200F0FFF8908900F05B
:1050100008F9384600F0F9F8E8B200F0F6F85088E0
:10502000401EC0F30F2000F0F0F89078401EC0B290
:10503000C4E71188091B491E8CB200F0F2F8002069
:1050400000F0E3F8002000F0E0F8200A00F0DDF8BE
:10505000E0B2D9E7F0BD0000440400202DE9FF4F85
:105060001D460C468A46580700D0012000EBD500AB
:10507000690810FB01F0203A00F0FF09D0B20026C9
:10508000DFF8A4B002904BE00C2D11D0102D14D0FD
:10509000182D17D0202D45D12449029801EBC010BE
:1050A0004FF00008875D380613D52148026814E0E8
:1050B0000298204900EB400008E01F49029801EBEC
:1050C0000010EDE702981D4900EBC00001EB8000E5
:1050D000E6E70D9828B91648426821460098FDF782
:1050E000EBFB7806070E641CBBF80200A4B2A042DA
:1050F00018D9A4EB0A00A84209D100985446401CD4
:1051000080B20090BBF8001081420BD906E008F194
:10511000010000F0FF08B8F1080FC4D3761CF6B206
:105120004E45B1D3BDE8FF8F440400201CA4020803
:10513000380000205C8C0208D0900208C09602085B
:105140002DE9FF4F81B00026DDF838A01D469346BB
:1051500081463446B0464FEA5A0727E0281B401ED6
:10516000C1B20A20FFF7E2FDBBFBF0F00A21B0FB61
:10517000F1F201FB120026B9691E8C4201DA48B136
:1051800001263030C2B207FB049080B25346CDF8FE
:10519000008006E007FB049080B253462022CDF841
:1051A00000800299FFF75AFF641CE4B2AC42D5D3E9
:1051B00005B0BDE8F08F2DE9F84F044600F0FF0977
:1051C00010190D46DDE90AB61FFA80F8581987B2A2
:1051D0004FF0000A12E0444503D305EB0B004C46A8
:1051E00085B2BD420FD25B4629462046CDF800A0CD
:1051F000FFF734FF04EB5B0084B2761C3278A2F137
:1052000020005E28E7D9BDE8F88F01B5BDF80000A1
:10521000ADF80000BDF800004FF0D841A1F88000C3
:1052200008BD01B5BDF80000ADF80000BDF80000F4
:105230004FF0D841A1F87E0008BD000003484FF0B0
:10524000D8410089A1F87E00704700004404002086
:105250004FF0D84222F87E0F51807047074A01284C
:1052600004D0022805D00648806800474FF400713A
:1052700001E04FF480611046FCF77EB90014024053
:105280001C000020084B012804D0022806D0074843
:105290008068004700224FF4007102E000224FF4C2
:1052A00080611846FCF770B9001402401C00002011
:1052B000074B012804D0022805D006488068004723
:1052C0000122510201E0012291021846FCF75CB96B
:1052D000001402401C00002010B58EB01C2168464E
:1052E000FAF7A8FF1C2107A8FAF7A4FF1A484FF005
:1052F000204110220160194941600621816000218E
:10530000C160C0E904128161C16113020162C0E998
:1053100009139302C0E90B134163816341640F20B9
:105320003C230090CDE9010303AC112384E80E0077
:1053300009240691CDE9074009AC082084E80F0054
:105340000D9107AA69460448FCF75CFD002801D0CE
:10535000FBF70BFC0EB010BDC4020020040100A03E
:105360002DE9F04186B014216846FAF763FF33480F
:105370000024016841F004010160016801F00401AA
:105380000591016841F020010160016801F02001F0
:105390000591016841F080010160016801F0800120
:1053A0000591016841F002010160016801F002010C
:1053B0000591016841F010010160016801F01001E0
:1053C0000591016841F008010160016801F00801E0
:1053D0000591016841F001010160016801F00101DE
:1053E0000591016841F0400101600068144F00F030
:1053F00040004FF460650590002229463846FCF7CE
:10540000C3F8DFF8408048F20106002231464046EA
:10541000FCF7BAF800950125CDE9015469463846F4
:105420000394FBF7B1FF0096CDE90154694640466D
:105430000394FBF7A9FF06B0BDE8F08130380240C5
:1054400000140240000402400D4810B50B490160F1
:105450000C49416000214FF480428160C0E9031291
:1054600041618161C1610162FCF79AF8002803D0B3
:10547000BDE81040FBF779BB10BD000000540040B0
:1054800014030020A08601001CB500240F480094DE
:105490000D4901940160A721C0E9011441F288314E
:1054A000C16080218161FCF747FD08B1FBF75DFB1E
:1054B0000094694605480194FCF7F6FC002801D0E9
:1054C000FBF753FB1CBD00000010004068030020E8
:1054D0000C4810B50A4901604FF4E13141600021E8
:1054E00081600C22C160C0E904128161C161FCF7D6
:1054F00088FE002803D0BDE81040FBF736BB10BD86
:1055000000100140B0030020FEE7FEE770B588B050
:10551000244800248DF80040016841F00201016038
:10552000016801F002010691016841F00401016087
:10553000006801A900F0040006900220012581E81E
:105540003100032004901848FBF71EFF6803CDE9E3
:10555000010501A91548FBF717FFFBF7C9F9144E20
:10556000C6F8B442642006F52D7605F0D1F9356011
:10557000642005F0CDF9012000F014F901226946FC
:105580004FF4506000F01CF89DF8001009A001F0E5
:1055900065FB9DF80000802802D0012008B070BD96
:1055A0000020FBE7303802400004024000080240BF
:1055B000000041424354502049443A25780D0A00E6
:1055C0002DE9F04115460E460446FBF75BFAB22082
:1055D000FBF724FAFBF79EFA200AFBF71FFAFBF70A
:1055E00099FAE0B2FBF71AFAFBF794FAFBF74AFADA
:1055F000B320FBF713FAFBF78DFA00246F1E09E0C6
:10560000BC4201D0012000E00020FBF7CDF930556D
:10561000641CE4B2AC42F3D3BDE8F041FBF758BAE6
:105620002DE9F147564E00242DED048B4FF00A0969
:1056300081B03078DFF84C81401CC0B2B0FBF9F289
:1056400009FB12012746307009B10A2877D20122DE
:1056500005A90020FFF7B4FF9DF81400C10672D021
:1056600000F01F0040F0C000454688F820000127E8
:105670009FED458B9FED469B95F8200007FA04F1BE
:1056800008424FD044480422694630F81400FFF71E
:1056900097FF95F830009DF80210C0079DF80300B1
:1056A00000EB012022D0FAF707FF53EC182BFAF792
:1056B00091FEFAF70EFF05EB440AAAF816009DF8D2
:1056C00001009DF8001000EB0120FAF7F5FE53EC05
:1056D000192BFAF77FFE9FED311B53EC112BFAF7D4
:1056E00076FEFAF7F6FEAAF80C001BE0FAF7E4FEE5
:1056F00053EC182BFAF76EFEFAF7EBFE05EB440AB3
:10570000AAF80C009DF801009DF8001000EB0120A4
:10571000FAF7D2FE53EC192BFAF75CFEFAF7D9FE32
:10572000AAF81600641CE4B2052CA5D30127A989A8
:10573000002019B9E98A09B98DF8140030709DF874
:105740001400C00610D198F82000010602D520F000
:10575000800007E04FF6FF71A8F80C10A8F81610AB
:1057600000F0E00088F820003078F02801D986F8B1
:10577000009001B03846BDEC048BBDE8F88700000E
:1057800040000020480000207B14AE47E17AD43F5F
:10579000D881734694F6D23F9CD3020800000000E3
:1057A0000000894008B500218DF8001010B180205C
:1057B0008DF80000012269464FF4506000F001F8B6
:1057C00008BD2DE9F04116460F4604460025FBF7BB
:1057D00059F9B220FBF722F9FBF79CF9200AFBF7F5
:1057E0001DF9FBF797F9E0B2FBF718F9FBF792F90F
:1057F000002408E0385DFBF711F9FBF78BF9050091
:1058000003D1641CE4B2B442F4D3FBF761F9284637
:10581000BDE8F0812DE9F84314F094FE0446406B96
:10582000002845D1A069002842D0616A00293FD0F4
:10583000A06A00283CD0B1F90010B0F9002025483A
:10584000FF27032602254FF001084FF06609914219
:1058500017D111F0D4FD0090A069BDF800100180AF
:10586000A0690772A06B052806D0A1694046A1F87F
:105870000280A169CD8016E0A0694680A069C5803C
:105880001CE011F0BCFD0090A069BDF80010018083
:10589000A0690772A06B04280CD0A1694046A1F84A
:1058A0000280A169CE80A1698880A16981F80890F1
:1058B000BDE8F883A0694680A069C680A06985809C
:1058C00009201BF077FF0090A069BDF8001001804F
:1058D000EEE70000D3D3D3002DE9F041AB4C092013
:1058E0000026A0800B20E0804FF4FA702082A6767C
:1058F0006420E0824FF480502083E6206082BE2046
:10590000A34FA082384611F063FD05461CF0D6FC7B
:10591000002229461BF028FE1CF0D0FC10F0BAFF34
:10592000206004F11C0005461DF091F9384611F085
:105930004FFD014628461DF0A0FA0F2128461DF014
:10594000CEFA012112201BF01BFF014628461DF054
:10595000B3FA012128461DF0C6FA052128461DF09C
:10596000CAFB314628461DF03BFB314628461DF058
:105970003CFB314628461DF042FB314628461DF0CF
:105980000FFB662128461DF0A2FA002128461DF0D3
:1059900005FC4FF480763146206811F04EFA31460E
:1059A000206811F035FA00222946206818F0DCF84A
:1059B0002D22052120681BF084FCB4F91420B4F9D1
:1059C000121020681BF0BFFC00231A2271492068C6
:1059D00018F054F80121206811F0CAF90022B4F936
:1059E00018301146206811F0A1F9B4F916300022E0
:1059F0000221206811F09AF9218A206811F05AF9E1
:105A00000021206811F0F7F9A2792179206811F0BE
:105A100042F90C201BF0CEFE01460022206810F057
:105A2000C1FEE06000201BF0C5FE01460022206898
:105A300010F0B8FEA060F200E168206811F018F9DB
:105A40000022A168206811F013F91CF037FC15F052
:105A5000C7F90546504915F0A9FF07229D212846A0
:105A60001BF02FFC4FF49671284616F04AF81CF0F4
:105A700025FC10F019F9606200F0ACF82D22F0213D
:105A8000606A1BF01EFC606A16F05CFC43A1A06318
:105A900017F0BAFAA06B18F034FB1CF00FFC10F0F2
:105AA00003F9A06200F096F85522F021A06A1BF0DD
:105AB00008FCA06A16F046FC3AA1E06317F0A4FACD
:105AC000E06B18F01EFB1CF0F9FB10F0EDF8E06243
:105AD00000F080F87D22F021E06A1BF0F2FBE06A22
