:020000040800F2
:1000000038720020A1010008FB150008C91400087F
:10001000F9150008EB050008E11C000800000000CD
:100020000000000000000000000000004919000866
:10003000ED05000800000000FD1500084B19000840
:10004000BB010008BB010008BB010008BB010008A0
:10005000BB010008BB010008BB010008BB01000890
:10006000BB010008BB010008BB010008BB01000880
:10007000BB010008BB010008BB010008BB01000870
:10008000BB010008BB010008BB010008BB01000860
:10009000BB010008BB010008BB010008BB01000850
:1000A000BB010008BB010008BB010008BB01000840
:1000B000BB010008BB010008BB010008BB01000830
:1000C000BB010008BB010008BB010008BB01000820
:1000D000BB010008D51C0008BB010008BB010008DB
:1000E000BB010008BB010008BB010008BB01000800
:1000F000BB010008BB010008BB010008BB010008F0
:10010000BB010008BB010008BB010008BB010008DF
:10011000BB010008BB010008BB010008BB010008CF
:10012000BB010008BB010008BB010008BB010008BF
:10013000BB010008BB010008BB010008BB010008AF
:10014000BB010008BB010008BB010008BB0100089F
:10015000BB010008BB010008BB010008BB0100088F
:10016000BB010008BB010008BB010008BB0100087F
:10017000BB010008BB010008BB0100080000000033
:10018000BB010008BB010008DFF810D000F01AFA2C
:10019000004800476D1D0008AFF300803872002052
:1001A0000648804706480047FEE7FEE7FEE7FEE711
:1001B000FEE7FEE7FEE7FEE7FEE7FEE7E5190008DB
:1001C000890100082DE9F05F0546002092469B4614
:1001D00088460646814640241BE02846414647465D
:1001E000224600F04BF953465A46C01A914110D3AB
:1001F00011461846224600F032F92D1A67EB010825
:100200004F4622460120002100F029F917EB000992
:100210004E41201EA4F10104DFDC484631462A4647
:100220004346BDE8F09FD2B201E000F8012B491E21
:10023000FBD270470022F6E710B513460A46044683
:100240001946FFF7F0FF204610BD2DE9FE4F81EA69
:10025000030404F0004421F0004100944FF0000B2F
:1002600023F0004350EA01045ED052EA03045BD05D
:10027000C3F30A54C1F30A552C44A4F2F334019495
:10028000A0FB0254C1F3130141F48011C3F3130323
:1002900043F4801301FB024400FB034E840A970AD7
:1002A00044EA815447EA8357A4FB076802958D0A04
:1002B00005FB07854FEA932C04FB0C542705029D90
:1002C0004FEA065847EA1637B5EB08056EEB070C00
:1002D000870E920E47EA811742EA8312A7FB0201BA
:1002E000B6EB0B0164EB00042B0D43EA0C335E18F4
:1002F00044EB1C50DA465146E7FB0201C5F31304F8
:100300004FEA0B3343EA14534FEA0432019C43EAA9
:100310000603A4F10C040294009CCDE900B400F0A3
:1003200003F903B0BDE8F08F00200146F9E72DE99D
:10033000F04D81EA030404F0004B21F0004514461F
:100340004FF0000A23F0004150EA050220D054EAA1
:1003500001021DD0C5F30A570246C5F31303C1F3CA
:100360001300C1F30A5640F4801543F48013A7EB41
:100370000608101BD64608F2FD3873EB050002D3C1
:1003800008F1010801E092185B41B8F1000F03DAAF
:1003900000200146BDE8F08D00204FF48011064694
:1003A00084460EE0171B73EB050705D3121B63EBA6
:1003B000050306434CEA010C49084FEA3000921845
:1003C0005B4150EA0107EDD152EA030012D082EA04
:1003D000040083EA0501084305D0101BAB4106D297
:1003E0000122002306E000224FF0004302E06FF0FC
:1003F000010253101AEB06004CEB085110EB0A00F7
:1004000041EB0B01BDE8F04D00F07FB80EB540F2B6
:10041000334102910021CDE900110A460B4600F05C
:1004200083F803B000BD01F0004330B421F0004177
:1004300050EA010206D00A0DA2F56072C1F3130161
:10044000002A02DC30BC00207047440F44EAC1049B
:10045000C100E01830BC00EBC25000F01FB8202AE9
:1004600004DB203A00FA02F1002070479140C2F10B
:10047000200320FA03F3194390407047202A04DB3D
:10048000203A21FA02F00021704721FA02F3D0400D
:10049000C2F1200291400843194670470029A8BFC5
:1004A0007047401C490008BF20F00100704710B49D
:1004B000B0FA80FC00FA0CF050EA010404BF10BC52
:1004C000704749B1CCF1200421FA04F411FA0CF17F
:1004D00018BF012121430843A3EB0C01CB1D4FEAB8
:1004E00000614FEA102042BF002010BC704700EBB3
:1004F000C35010440029A4BF10BC7047401C4900E1
:1005000008BF20F0010010BC704710B5141E73F135
:10051000000408DA401C41F1000192185B411A43C3
:1005200001D120F0010010BD2DE9F04D92469B460F
:1005300011B1B1FA81F202E0B0FA80F220329046B5
:10054000FFF78DFF04460F4640EA0A0041EA0B011F
:1005500053465A46084313D0114653EA010019D0B6
:10056000C8F140025046FFF789FF05460E46504647
:1005700059464246FFF773FF084305D0012004E0C7
:1005800020463946BDE8F08D0020054346EAE07676
:100590002C4337430A986305E40AA0EB08000022C5
:1005A000FD0A44EA47540A3002D500200146E9E733
:1005B000010510196941DDE9084500196941BDE8E7
:1005C000F04DA2E7064C074D06E0E06840F001035D
:1005D00094E8070098471034AC42F6D3FFF7D8FDF3
:1005E000AC1D0008CC1D00087047FEE7704772B6CE
:1005F000FEE77047F0B587B014216846FFF71AFE92
:1006000042480026016841F010010160016801F0D4
:1006100010010591016841F020010160016801F0BD
:1006200020010591016841F080010160016801F03D
:1006300080010591016841F004010160016801F049
:1006400004010591016841F001010160016801F0B8
:1006500001010591016841F002010160016801F0AA
:1006600002010591016841F008010160016801F093
:1006700008010591016841F0400101600068012412
:1006800000F0400005900820CDE90004204F03252C
:1006900069460395384600F0ABF80220CDE9000426
:1006A00069460395384600F0A3F800946946384639
:1006B0000395019400F09CF81020CDE900046946F0
:1006C0000395384600F094F80420CDE90006694609
:1006D0003846029600F08CF86946384600F088F8F3
:1006E00001220821384600F080F901221021384605
:1006F00000F07BF901221146384600F076F901221C
:100700000221384600F071F907B0F0BD30380240E0
:10071000001402402DE9F0410446876D00F06AF9AB
:10072000064694F835000025022806D08020606532
:1007300084F834500120BDE8F0812068016821F080
:10074000160101602068416921F080014161206C3F
:1007500008B9A06C20B12068016821F0080101608F
:100760002068016821F0010101600CE000F042F90D
:10077000801B052807D920206065032084F83500F8
:1007800084F83450D7E720680068C007EED194F8A9
:100790005C103F208840B860012084F8350084F860
:1007A00034500020C7E790F83510022903D080218B
:1007B000416501207047052180F835100068016807
:1007C00021F00101016000207047000070B504466F
:1007D00000F010F90546601C02D00448007804447B
:1007E00000F008F9401BA042FAD370BD00000020C1
:1007F0002DE9F84FDFF8BCA10022012503264FF0B8
:100800000F090AF1040BAAF1040E00BF0B6805FAE8
:1008100002F42340A34270D10F7907F00307012FA0
:1008200001D0022F16D187684FEA420806FA08FC69
:1008300027EA0C07D1F80CC00CFA08FC4CEA070CAC
:10084000C0F808C04768A7430C79C4F3001494406B
:100850003C4344600C79E443A4070AD0C4684FEADF
:10086000420C06FA0CF7BC438F6807FA0CF72743D3
:10087000C7600C7904F00304022C12D1D40800EBF9
:10088000840CDCF820405707FF0E09FA07F824EA29
:100890000804D1F8108008FA07F848EA0408CCF8F0
:1008A000208004684FEA420C06FA0CF7BC430F792B
:1008B00007F0030707FA0CF7274307604C6814F4A6
:1008C000403F70D03C4C276847F48047276024683D
:1008D00022F0030704F480440094384C07EB040C26
:1008E000DCF8084897074FEA177809FA08F7BC437D
:1008F000334FB84202D1002724E054E0314FB842D0
:1009000001D101271EE0304FB84201D1022719E082
:100910002E4FB84201D1032714E02D4FB84201D128
:1009200004270FE02B4FB84201D105270AE02A4FD8
:10093000B84201D1062705E0284FB84201D1072768
:1009400000E0082707FA08F72743CCF80878DAF818
:1009500000405746D1F804C09C435FEACC2C00D538
:100960001C433C60DBF800405F46D1F804C09C4368
:100970005FEA8C2C00D51C433C60DEF800407746D3
:10098000D1F804C09C435FEA8C3C00D51C433C601A
:10099000084F083F3C68D1F804C09C435FEACC3C58
:1009A00000D51C433C60521C102AFFF42FAFBDE859
:1009B000F88F0000083C01404438024000300140FC
:1009C000000002400004024000080240000C024007
:1009D000001002400014024000180240001C0240B7
:1009E0000069084000D0012070470AB1816170475A
:1009F0000904FBE701488068704700000000002000
:100A0000024881680278114481607047000000202C
:100A10000B4810B5016841F400710160016841F4B0
:100A200080610160016841F480710160032000F081
:100A30006FF80F2000F006F800F024F8002010BD39
:100A4000003C024070B50D4D04464FF47A71287891
:100A5000B1FBF0F00A490968B1FBF0F000F00AFBC5
:100A600048B9102C07D200222146501E00F030F861
:100A700000206C6070BD012070BD000000000020EF
:100A80000C0000200A4808B5016841F4804101606B
:100A9000006800F4804000900548001F016841F0A4
:100AA00080510160006800F08050009008BD000097
:100AB00044380240002809DB00F01F020121914068
:100AC0004009800000F1E020C0F8001170470000EC
:100AD000F0B40E4B1B680C46C3F30223C3F10705A9
:100AE000042D00D90425191D072901D2002300E097
:100AF000DB1E012606FA05F1491E214099409E4061
:100B0000761E16403143F0BC01F0F4B80CED00E065
:100B1000064900F0070208684FF6FF03184040EA54
:100B20000220034A10430860704700000CED00E00B
:100B30000000FA052DE9F0470E46050065D0DFF804
:100B40001481D8F80000F7B200F00700B04207D2D5
:100B500088F80070D8F8000000F00700B04254D1C7
:100B600028683D4C810712D5400703D5206840F422
:100B7000E05020602878000703D5206840F46040EA
:100B800020602068A96820F0F000084320602878E1
:100B9000C0072DD0304968680839012812D00228D2
:100BA00013D0032811D00968890700292DDA21689C
:100BB00021F0030101432160FFF71CFF814641F250
:100BC000883A0EE009688903EFE709688901ECE7D4
:100BD000FFF710FFA0EB0901514502D90320BDE842
:100BE000F0872068696800F00C00B0EB810FEFD14E
:100BF000D8F80010404601F00701B14207D907704C
:100C0000006800F00700B04201D00120E7E7287833
:100C1000400705D52068E96820F4E05008432060CB
:100C20002878000706D52068296920F4604040EA4A
:100C3000C100206000F038F82168084AC1F30311B0
:100C4000515CC8400649086006480068FFF7FAFE94
:100C50000020C4E7003C024008380240941D000810
:100C60000C000020040000200448054900680968C1
:100C7000044AC1F38221515CC84070470C00002037
:100C800008380240A41D00080448054900680968A6
:100C9000044AC1F34231515CC84070470C00002047
:100CA00008380240A41D0008154810B5006810F06F
:100CB0000C02144813D04110042A0FD0082A0ED178
:100CC0000F4C241F2268236802F03F025B0207D505
:100CD0002068C0F38810A0FB010106E0084610BDA3
:100CE0002168C1F38811A1FB00010023FFF76AFA14
:100CF0002168C1F30141491C4900B0FBF1F010BD6E
:100D0000083802400024F4002DE9F84F04006ED0AA
:100D10002078DFF84C93C007A9F104054AD009F107
:100D200004000168C1F38101012908D00068C0F303
:100D3000810002280AD1D9F80000400206D52868AF
:100D4000800337D560680028E1D033E06068B0F5F3
:100D5000803F10D0B0F5A02F286810D020F480304C
:100D60002860286820F4802028606068A8B1FFF718
:100D700041FE06460DE0286840F48030F4E740F478
:100D800080202860F7E700BFFFF734FE801B64284F
:100D900073D828688003F7D50CE0FFF72BFE0646D2
:100DA00005E000BFFFF726FE801B6428F0D8286806
:100DB0008003F7D42078DFF8AC8280074FF0000A78
:100DC0003ED5A748001D016811F00C0F08D000683F
:100DD000C0F3810002280BD1D9F80000400207D4EB
:100DE0002868800716D5E068012800D112E033E1B9
:100DF000E068B8B10120C8F80000FFF7FBFD064627
:100E000005E000BFFFF7F6FD801B0228C0D8286868
:100E10008007F7D52868216920F0F80040EAC10072
:100E200028600DE0C8F800A0FFF7E4FD064604E0E6
:100E3000FFF7E0FD801B02281FD828688007F7D441
:100E40002078000722D5864F87486169703771B1D5
:100E500001210160FFF7CEFD064604E0FFF7CAFD61
:100E6000801B022809D838688007F7D50EE0C0F843
:100E700000A0FFF7BFFD064605E082E0FFF7BAFDE0
:100E8000801B02287DD838688007F7D42078400777
:100E900068D5DFF8CCB100270BF13C0BDBF8000084
:100EA000C0000BD4DBF8001041F08051CBF80010EB
:100EB000DBF80000012700F0805000906B4E306896
:100EC000C00510D4306840F480703060FFF792FDA8
:100ED000009005E0FFF78EFD0099401A022850D8D7
:100EE0003068C005F6D55E4EA0686C3601280FD07C
:100EF0000528306810D020F001003060306820F004
:100F000004003060A068B8B1FFF774FD00900FE0F6
:100F1000306840F00100F4E740F004003060F7E78B
:100F2000FFF768FD0099411A41F28830814266D886
:100F300030688007F4D50EE0FFF75CFD009007E015
:100F4000FFF758FD0099411A41F28830814256D886
:100F500030688007F4D42FB1DBF8001021F0805105
:100F6000CBF80010A069C8B33D49091D0968C1F359
:100F7000810102294AD00228504607D0C8F86000F3
:100F800000E03CE0FFF736FD04463BE04746C8F88A
:100F90006000FFF72FFD064605E000BFFFF72AFDC2
:100FA000801B02282BD828688001F7D4D4E90701D8
:100FB0000843A16A2E4A490802EB0141626A41EAEC
:100FC0008211084394F82C1040EA0161C9F800101E
:100FD00001203866FFF70EFD044606E03EE000BF44
:100FE000FFF708FD001B022809D828688001F7D503
:100FF00034E000BFFFF7FEFC001B022802D90320EB
:10100000BDE8F88F28688001F4D427E00128F7D0E4
:10101000D9F80000E26900F4800191421CD1226AF3
:1010200000F03F01914217D147F6C071626A01405A
:10103000B1EB821F10D1A26A4FF0FF3300F44031B0
:1010400003EB5202B1EB024F06D194F82C1000F0E2
:101050007060B0EB016F01D00120D1E70020CFE735
:101060000438024000004742800E474200700040B2
:101070000000FFFF10B5401EB0F1807F01D30120BA
:1010800010BD4FF0E02460610F21601700F032FEC8
:101090000020A06107202061002010BD704770472C
:1010A000F8B5016804460868CA684B6910F00F0F6C
:1010B0004FF0000559D003F0010602F49077374352
:1010C00065D0C10705D0D10503D5216C41F00101E0
:1010D0002164410705D5D90703D0216C41F00201F5
:1010E0002164810705D5D90703D0216C41F00401A3
:1010F0002164010707D502F02001314303D0216CA0
:1011000041F008012164216C00293AD0800604D501
:10111000900602D5204600F09CFC20684069216CB6
:10112000C0F38010090700D460B3204600F06AFCC9
:1011300020684069400621D52068143050E8001F1F
:1011400021F0400140E80012002AF5D1A06BA8B1BF
:101150006C490165A06BFFF726FB002811D0A06B3E
:10116000016D01B0BDE8F040084783060FD5930636
:101170000DD52046BDE8F84000F06BBC2046FFF7D7
:101180008EFFF8BD2046FFF78AFF2564F8BD266B69
:101190002023012E79D1C60677D5D60675D50868E5
:1011A000486800904869400640D5A16B08684068CF
:1011B0000004000CEAD0A28D8242E7D9E085C8691C
:1011C000B0F5807F2DD020680C3050E8001F21F44E
:1011D000807140E80012002AF5D12068143050E8F0
:1011E000001F21F0010140E80012002AF5D120681B
:1011F000143050E8001F21F0400140E80012002A9E
:10120000F5D184F83E30256320680C3050E8001F8B
:1012100021F0100140E80012002AF5D1A06BFFF781
:1012200079FAA08DE18D401A81B229E0A08DE18D7F
:10123000401A81B2E08D0028A8D00029A6D02068ED
:101240000C3050E8002F22F4907240E80026002E67
:10125000F5D12068143050E8002F22F0010240E858
:101260000026002EF5D184F83E30256320680C302E
:1012700050E8002F22F0100240E80023002BF5D1A7
:101280002046FFF70BFFF8BDFFE705062BD5150637
:1012900029D594F83D002128F5D1A068B0F5805FEC
:1012A00001D12069B0B1206A411C21622168007817
:1012B0004860E08C401E0004000CE084E3D120680C
:1012C000C16821F08001C1602068C16841F040011F
:1012D000C160D8E7206A0088C0F308004860206A2F
:1012E000801C2062E5E74006CDD55006CBD5CA6804
:1012F000204622F04002CA6084F83D3000F0E3F856
:10130000C1E70000F519000870B5040004D094F896
:101310003D00002510B106E0012070BD84F83C506E
:10132000204600F023F8242084F83D002068C1689E
:1013300021F40051C160204600F0ECFB20680169F7
:1013400021F4904101612068416921F02A01416145
:101350002068C16841F40051C1602564202084F8F0
:101360003D0084F83E00002070BD000010B586B03E
:10137000044614216846FEF75DFF1849206888423C
:1013800029D117480021026842F01002026000686B
:1013900000F01000059012481438026842F0010273
:1013A0000260006800F0010005904FF4C0600090FA
:1013B0000220CDE901010320039007200490694633
:1013C0000848FFF715FA002211462520FFF780FB99
:1013D0002520FFF76FFB06B010BD00000010014094
:1013E000443802400000024090F83E30202B0ED1DD
:1013F00059B152B190F83C30012B08D0012380F84C
:101400003C300023036300F00BBC01207047022036
:10141000704770472DE9F843044690F83D001F4699
:1014200016460D4620284CD1C5B1BEB194F83C00FB
:10143000012846D0012084F83C004FF00008C4F891
:101440004080212084F83D00FFF7D4FAA68481462D
:10145000E684A068B0F5805F03D004E00120BDE819
:10146000F883206928B12E465FF0000584F83C809F
:101470000EE00026FAE78021204600F0EEFBA0B93E
:10148000AEB116F8010B21684860E08C401EE08484
:10149000E08C4B464FF0000200970028EBD14FF054
:1014A0004001204600F0D9FB30B10320D7E735F8E2
:1014B000020BC0F30800E6E7202084F83D0000207E
:1014C000CDE70220CBE77047FEE7000070B50D4D79
:1014D000002204212846FFF788FA01220421284629
:1014E000FFF783FA052000F0A1F904460022042149
:1014F0002846FFF77AFA012204212846FFF775FAF9
:10150000204670BD001002402DE9F04186B0142144
:101510006846FEF78FFE27480024016841F010015D
:101520000160016801F010010591016841F00401BA
:101530000160016801F004010591016841F020019A
:101540000160016801F020010591016841F080010E
:101550000160016801F080010591016841F001011D
:1015600001600068144F00F0010005900022042182
:101570003846FFF73AFADFF8448040F23F6600222F
:1015800031464046FFF731FA042000900125CDE9AD
:101590000154694638460394FFF72AF90096CDE9CD
:1015A0000154694640460394FFF722F906B0BDE8AE
:1015B000F081000030380240001002400014024068
:1015C0000C4810B50A4901604FF4E1314160002137
:1015D00081600C22C160C0E904128161C161FFF722
:1015E00093FE002803D0BDE81040FFF700B810BDFF
:1015F0000010014030000020FEE7FEE770470000C9
:1016000010B504A000F06EFB00F00EF9BDE810402C
:1016100000F006B8BFAACABCB2E2CAD40D0A0000E4
:1016200000B587B014216846FEF704FE2248016821
:1016300041F010010160016801F01001059101689D
:1016400041F020010160016801F02001059101686D
:1016500041F080010160016801F08001059101689D
:1016600041F004010160016801F004010591016885
:1016700041F001010160016801F00101059101687B
:1016800041F002010160016801F002010591016869
:1016900041F0080101600068694600F0080005900B
:1016A0000420009003200390012001900348FFF7DD
:1016B0009FF807B000BD0000303802400010024023
:1016C0002DE9F04701222DED048B3F493F48FFF7FC
:1016D0008BFE0421812000F003F94FF48065294638
:1016E000822000F0FDF87F21832000F0F9F800212E
:1016F000842000F0F5F80121842000F0F1F80520A5
:10170000FFF764F80121862000F0EAF800F06EF897
:101710000F280BD02E4C002626600A20FFF756F823
:101720002068401C20600A28F7DB26600021862004
:1017300000F0D6F80024DFF89C809FED278B9FED0A
:10174000289B4FF6FF76284FFFF7C0FE06EA4000C1
:1017500028F81400FEF75AFE53EC182BFEF775FD1F
:1017600053EC192BFEF7E3FD07EBC402641CC2E93E
:101770000001AC42E8DBDFF8508098F800006428F4
:101780001DD1A946124D002415F1040507EBC40034
:1017900090ED000B51EC100BFEF745FE0C49286054
:1017A00033460422091D0948FFF734FE0520FFF7E0
:1017B0000DF8641C4C45E9DB012088F80000BDEC05
:1017C000048BBDE8F08700002800002030000020D6
:1017D00020000020740000206666666666660A4087
:1017E0000000000000E06F407810002070B50D4D43
:1017F000002204212846FFF7F8F801220421284698
:10180000FFF7F3F8042000F011F804460022042149
:101810002846FFF7EAF8012204212846FFF7E5F8F9
:10182000204670BD00100240FEF7E4BE10B500F087
:101830002BF8BDE8104000F001B8000070B5114E63
:1018400000252A4602213046FFF7CFF80024012266
:1018500010213046FFF7C9F8002210213046FFF76B
:10186000C4F86D0004213046FFF7BAF8641C054344
:10187000A4B2202CEBD3012202213046FFF7B5F8A9
:10188000284670BD0014024070B5144E0546002273
:1018900001213046FFF7A9F80024280601D50122CE
:1018A00000E0002208213046FFF79FF86806050E89
:1018B000002210213046FFF798F80122102130460F
:1018C000FFF793F8641CE4B2082CE6D33046BDE879
:1018D000704001221146FFF788B800000014024052
:1018E00010B50C46FFF7D0FF2046BDE8104000F0D1
:1018F00001B8000070B5134E0546002202213046A3
:10190000FFF773F80024002D01DA012200E0002225
:1019100008213046FFF769F86D000022102130469B
:10192000FFF763F8012210213046FFF75EF8641CD0
:10193000E4B2202CE7D33046BDE8704001220221FA
:10194000FFF753B8001402407047FFF759B8000082
:1019500030B593B030216846FEF76CFC14210CA81A
:10196000FEF768FC1D480025016841F080510160C8
:10197000006800F0805011901948016841F48041DE
:1019800001600068022400F4804011900120009062
:10199000000401908001CDE9064008AA0420A82196
:1019A00082E813000B906846FFF7AEF908B172B6F3
:1019B000FEE70CA90F2081E831004FF4A0500F90F2
:1019C0004FF48050109005210CA8FFF7B3F80028C1
:1019D00001D072B6FEE713B030BD000040380240BF
:1019E000007000400248016841F4700101607047D6
:1019F00088ED00E010B5806B0021C185C184FFF740
:101A00004EFB10BD01680C3151E8002F22F490729A
:101A100041E80023002BF5D10168143151E8002F73
:101A200022F0010241E80023002BF5D1016B0129CE
:101A300009D101680C3151E8002F22F0100241E871
:101A40000023002BF5D1202180F83E1000210163F6
:101A5000704708B590F83E10222901D0022008BD39
:101A600082684FF480539A4201D1016921B1816AA1
:101A70009A421BD04AB10AE00268816A5268C2F3F6
:101A800008020A80816A891C08E0026972B1026852
:101A9000526802F07F020A70816A491C8162C18D1E
:101AA000491E0904090CC18503D019E00268526877
:101AB000F1E70168CA6822F02002CA600168CA68BA
:101AC00022F48072CA6001684A6922F001024A6108
:101AD000202180F83E10016B012903D0FFF799FC0B
:101AE000002008BD0021016301680C3151E8002F7E
:101AF00022F0100241E80023002BF5D101680A68AA
:101B0000D20602D50A6849680091818DFFF7C6FAAE
:101B1000E6E7000070B5044600680169E26821F458
:101B20004051114301612169A068E269084361697C
:101B3000114308432168CA6849F20C639A4302437F
:101B4000CA6020684169A26921F440711143416172
:101B500031492068884202D03049884202D1FFF7DB
:101B600093F801E0FFF780F8E2690023192164256A
:101B70003226B2F5004F626828D0A0FB0101930F16
:101B80009200FEF71FFB0146B0FBF5F06FF0180264
:101B9000504301EB800006EB0010B0FBF5F000F0C5
:101BA000F002B1FBF5F002EB0012B1FBF5F06FF0C3
:101BB0001803584301EB800006EB0010B0FBF5F072
:101BC00000F00F0021681044886070BDA0FB010187
:101BD00092185B41FEF7F6FA0146B0FBF5F0020100
:101BE000B1FBF5F06FF01803584301EB800006EBF2
:101BF000C000B0FBF5F000F0F80002EB4002B1FBD2
:101C0000F5F0584301EB800006EBC000B0FBF5F0A7
:101C100000F00700D6E7000000100140001401406A
:101C200081628285C28500210164222280F83E20E3
:101C300080F83C10016921B10168CA6842F48072E1
:101C4000CA6001684A6942F001024A610068C168DD
:101C500041F02001C160002070472DE9F041984615
:101C600017460E460446069D27E0681C25D02DB178
:101C7000FEF7C0FEA0EB0800A8421ED920680C3079
:101C800050E8001F21F4D07140E80012002AF5D17D
:101C90002068143050E8001F21F0010140E80012D4
:101CA000002AF5D1202084F83D0084F83E00002071
:101CB00084F83C000320BDE8F0812068006836EA23
:101CC000000004D00020B842CFD00020F3E701206C
:101CD000F9E700000148FFF7E3B9000030000020F9
:101CE000FEE70000014A024900F023B8551D000834
:101CF0002C0000200907090E002804DB00F1E02079
:101D000080F80014704700F00F0000F1E02080F828
:101D1000141D704702E008C8121F08C1002AFAD13A
:101D200070477047002001E001C1121F002AFBD15B
:101D300070472DE9F04116460F460446002503E0A2
:101D40003946B047641C6D1C20780028F8D128461D
:101D5000BDE8F08113B50A23012269460248FFF766
:101D600059FB00981CBD000030000020FEF750FE1B
:101D7000FFF7EEFDFFF7C8FBFFF722FC0348006802
:101D80008047034C20688047FCE7000010000020DB
:101D90001400002000000000000000000102030405
:101DA000060708090000000001020304CC1D00081A
:101DB0000000002030000000141D0008FC1D000879
:101DC0003000002008720000241D000801000000FF
:101DD00010000000000000000024F40001160008BC
:101DE000C1160008F3050008E9050008000000001E
:0C1DF000000000000000000000000000E7
:040000050800018965
:00000001FF
