:020000040800F2
:1000000070140020A10100086B0F00083B0E0008CF
:10001000690F0008DB0200085D1400080000000002
:100020000000000000000000000000002D12000889
:10003000DD020008000000006D0F00082F1200080C
:10004000BB010008BB010008BB010008BB010008A0
:10005000BB010008BB010008BB010008BB01000890
:10006000BB010008BB010008BB010008BB01000880
:10007000BB010008BB010008BB010008BB01000870
:10008000BB010008BB010008BB010008BB01000860
:10009000BB010008BB010008BB010008BB01000850
:1000A000BB010008BB010008BB010008BB01000840
:1000B000BB010008BB010008BB010008BB01000830
:1000C000BB010008BB010008BB010008BB01000820
:1000D000BB010008BB010008BB010008BB01000810
:1000E000BB010008BB010008BB010008BB01000800
:1000F000BB010008BB010008BB010008BB010008F0
:10010000BB010008BB010008BB010008BB010008DF
:10011000BB010008BB010008BB010008BB010008CF
:10012000BB010008BB010008BB010008BB010008BF
:10013000BB010008BB010008BB010008BB010008AF
:10014000BB010008BB010008BB010008BB0100089F
:10015000BB010008BB010008BB010008BB0100088F
:10016000BB010008BB010008BB010008BB0100087F
:10017000BB010008BB010008BB0100080000000033
:10018000BB010008BB010008DFF810D000F092F8B6
:10019000004800472D160008AFF3008070140020BF
:1001A0000648804706480047FEE7FEE7FEE7FEE711
:1001B000FEE7FEE7FEE7FEE7FEE7FEE7C9120008FE
:1001C000890100082DE9F05F0546002092469B4614
:1001D00088460646814640241BE02846414647465D
:1001E000224600F057F853465A46C01A914110D3A0
:1001F00011461846224600F03EF82D1A67EB01081A
:100200004F4622460120002100F035F817EB000987
:100210004E41201EA4F10104DFDC484631462A4647
:100220004346BDE8F09FD2B201E000F8012B491E21
:10023000FBD270470022F6E710B513460A46044683
:100240001946FFF7F0FF204610BD30B50B460146BA
:1002500000202022012409E021FA02F59D4205D365
:1002600003FA02F5491B04FA02F52844151EA2F10F
:100270000102F1DC30BD202A04DB203A00FA02F151
:10028000002070479140C2F1200320FA03F3194384
:1002900090407047202A04DB203A21FA02F0002126
:1002A000704721FA02F3D040C2F120029140084386
:1002B00019467047064C074D06E0E06840F0010320
:1002C00094E8070098471034AC42F6D3FFF760FF7C
:1002D0006C1600088C1600087047FEE7704772B66F
:1002E000FEE77047F0B587B014216846FFF7A2FF1C
:1002F00042480026016841F010010160016801F0E8
:1003000010010591016841F020010160016801F0D0
:1003100020010591016841F080010160016801F050
:1003200080010591016841F004010160016801F05C
:1003300004010591016841F001010160016801F0CB
:1003400001010591016841F002010160016801F0BD
:1003500002010591016841F008010160016801F0A6
:1003600008010591016841F0400101600068012425
:1003700000F0400005900820CDE90004204F03253F
:1003800069460395384600F04FF80220CDE9000495
:1003900069460395384600F047F8009469463846A8
:1003A0000395019400F040F81020CDE9000469465F
:1003B0000395384600F038F80420CDE90006694678
:1003C0003846029600F030F86946384600F02CF8BE
:1003D00001220821384600F024F901221021384674
:1003E00000F01FF901221146384600F01AF90122E7
:1003F0000221384600F015F907B0F0BD3038024050
:100400000014024070B5044600F010F90546601C67
:1004100002D004480078044400F008F9401BA042D0
:10042000FAD370BD000000202DE9F84FDFF8BCA121
:100430000022012503264FF00F090AF1040BAAF14F
:10044000040E00BF0B6805FA02F42340A34270D1EA
:100450000F7907F00307012F01D0022F16D187680B
:100460004FEA420806FA08FC27EA0C07D1F80CC04C
:100470000CFA08FC4CEA070CC0F808C04768A74310
:100480000C79C4F3001494403C4344600C79E44379
:10049000A4070AD0C4684FEA420C06FA0CF7BC4322
:1004A0008F6807FA0CF72743C7600C7904F0030440
:1004B000022C12D1D40800EB840CDCF82040570742
:1004C000FF0E09FA07F824EA0804D1F8108008FAA8
:1004D00007F848EA0408CCF8208004684FEA420C88
:1004E00006FA0CF7BC430F7907F0030707FA0CF77D
:1004F000274307604C6814F4403F70D03C4C276899
:1005000047F480472760246822F0030704F48044FE
:100510000094384C07EB040CDCF8084897074FEAC6
:10052000177809FA08F7BC43334FB84202D10027C5
:1005300024E054E0314FB84201D101271EE0304F92
:10054000B84201D1022719E02E4FB84201D103274A
:1005500014E02D4FB84201D104270FE02B4FB842D1
:1005600001D105270AE02A4FB84201D1062705E04C
:10057000284FB84201D1072700E0082707FA08F7FB
:100580002743CCF80878DAF800405746D1F804C081
:100590009C435FEACC2C00D51C433C60DBF8004058
:1005A0005F46D1F804C09C435FEA8C2C00D51C4305
:1005B0003C60DEF800407746D1F804C09C435FEA17
:1005C0008C3C00D51C433C60084F083F3C68D1F888
:1005D00004C09C435FEACC3C00D51C433C60521CE9
:1005E000102AFFF42FAFBDE8F88F0000083C01404F
:1005F0004438024000300140000002400004024044
:1006000000080240000C02400010024000140240AA
:1006100000180240001C02400069084000D0012080
:1006200070470AB1816170470904FBE7014880689F
:1006300070470000000000200248816802781144E1
:1006400081607047000000200B4810B5016841F43C
:1006500000710160016841F480610160016841F44A
:1006600080710160032000F061F80F2000F006F8AF
:1006700000F024F8002010BD003C024070B50D4D84
:1006800004464FF47A712878B1FBF0F00A49096802
:10069000B1FBF0F000F0FCFA48B9102C07D20022B0
:1006A0002146501E00F022F800206C6070BD012031
:1006B00070BD0000000000200C0000200A4808B5B2
:1006C000016841F480410160006800F480400090BE
:1006D0000548001F016841F080510160006800F08A
:1006E0008050009008BD000044380240F0B40E4B2A
:1006F0001B680C46C3F30223C3F10705042D00D980
:100700000425191D072901D2002300E0DB1E012664
:1007100006FA05F1491E214099409E40761E16407A
:100720003143F0BC00F0ACBE0CED00E0064900F037
:10073000070208684FF6FF03184040EA0220034A08
:1007400010430860704700000CED00E00000FA055F
:100750002DE9F0470E46050065D0DFF81481D8F882
:100760000000F7B200F00700B04207D288F800702E
:10077000D8F8000000F00700B04254D128683D4C82
:10078000810712D5400703D5206840F4E05020606F
:100790002878000703D5206840F460402060206876
:1007A000A96820F0F000084320602878C0072DD009
:1007B000304968680839012812D0022813D003286C
:1007C00011D00968890700292DDA216821F0030179
:1007D00001432160FFF72AFF814641F2883A0EE08B
:1007E00009688903EFE709688901ECE7FFF71EFF55
:1007F000A0EB0901514502D90320BDE8F08720682C
:10080000696800F00C00B0EB810FEFD1D8F8001050
:10081000404601F00701B14207D90770006800F0B7
:100820000700B04201D00120E7E72878400705D54E
:100830002068E96820F4E050084320602878000729
:1008400006D52068296920F4604040EAC100206094
:1008500000F038F82168084AC1F30311515CC84020
:100860000649086006480068FFF708FF0020C4E753
:10087000003C024008380240541600080C000020DA
:10088000040000200448054900680968044AC1F3CF
:100890008221515CC84070470C000020083802409B
:1008A000641600080448054900680968044AC1F351
:1008B0004231515CC84070470C00002008380240AB
:1008C00064160008154810B5006810F00C021448B2
:1008D00013D04110042A0FD0082A0ED10F4C241F28
:1008E0002268236802F03F025B0207D52068C0F34C
:1008F0008810A0FB010106E0084610BD2168C1F385
:100900008811A1FB00010023FFF75CFC2168C1F303
:100910000141491C4900B0FBF1F010BD083802400C
:100920000024F4002DE9F84F04006ED02078DFF8A1
:100930004C93C007A9F104054AD009F104000168ED
:10094000C1F38101012908D00068C0F381000228A9
:100950000AD1D9F80000400206D52868800337D5AF
:1009600060680028E1D033E06068B0F5803F10D0C7
:10097000B0F5A02F286810D020F4803028602868B7
:1009800020F4802028606068A8B1FFF74FFE06467B
:100990000DE0286840F48030F4E740F480202860BF
:1009A000F7E700BFFFF742FE801B642873D8286872
:1009B0008003F7D50CE0FFF739FE064605E000BFDF
:1009C000FFF734FE801B6428F0D828688003F7D432
:1009D0002078DFF8AC8280074FF0000A3ED5A748A8
:1009E000001D016811F00C0F08D00068C0F38100F1
:1009F00002280BD1D9F80000400207D428688007EC
:100A000016D5E068012800D112E033E1E068B8B102
:100A10000120C8F80000FFF709FE064605E000BF08
:100A2000FFF704FE801B0228C0D828688007F7D58E
:100A30002868216920F0F80040EAC10028600DE034
:100A4000C8F800A0FFF7F2FD064604E0FFF7EEFD50
:100A5000801B02281FD828688007F7D42078000759
:100A600022D5864F87486169703771B101210160D5
:100A7000FFF7DCFD064604E0FFF7D8FD801B0228E7
:100A800009D838688007F7D50EE0C0F800A0FFF756
:100A9000CDFD064605E082E0FFF7C8FD801B022879
:100AA0007DD838688007F7D42078400768D5DFF80C
:100AB000CCB100270BF13C0BDBF80000C0000BD4DD
:100AC000DBF8001041F08051CBF80010DBF800009B
:100AD000012700F0805000906B4E3068C00510D4A4
:100AE000306840F480703060FFF7A0FD009005E0B2
:100AF000FFF79CFD0099401A022850D83068C005C5
:100B0000F6D55E4EA0686C3601280FD005283068F7
:100B100010D020F001003060306820F00400306018
:100B2000A068B8B1FFF782FD00900FE0306840F098
:100B30000100F4E740F004003060F7E7FFF776FDCE
:100B40000099411A41F28830814266D830688007A6
:100B5000F4D50EE0FFF76AFD009007E0FFF766FDB1
:100B60000099411A41F28830814256D83068800796
:100B7000F4D42FB1DBF8001021F08051CBF8001035
:100B8000A069C8B33D49091D0968C1F38101022963
:100B90004AD00228504607D0C8F8600000E03CE088
:100BA000FFF744FD04463BE04746C8F86000FFF706
:100BB0003DFD064605E000BFFFF738FD801B02281B
:100BC0002BD828688001F7D4D4E907010843A16A2B
:100BD0002E4A490802EB0141626A41EA8211084348
:100BE00094F82C1040EA0161C9F800100120386621
:100BF000FFF71CFD044606E03EE000BFFFF716FDD0
:100C0000001B022809D828688001F7D534E000BF0E
:100C1000FFF70CFD001B022802D90320BDE8F88F66
:100C200028688001F4D427E00128F7D0D9F8000023
:100C3000E26900F4800191421CD1226A00F03F0178
:100C4000914217D147F6C071626A0140B1EB821F31
:100C500010D1A26A4FF0FF3300F4403103EB52028F
:100C6000B1EB024F06D194F82C1000F07060B0EB9D
:100C7000016F01D00120D1E70020CFE70438024006
:100C800000004742800E4742007000400000FFFF16
:100C900010B5401EB0F1807F01D3012010BD4FF090
:100CA000E02460610F21601700F0EAFB0020A061E2
:100CB00007202061002010BD70B5040004D094F816
:100CC0003D00002510B106E0012070BD84F83C50C5
:100CD000204600F023F8242084F83D002068C168F5
:100CE00021F40051C160204600F0F6FA2068016945
:100CF00021F4904101612068416921F02A0141619C
:100D00002068C16841F40051C1602564202084F846
:100D10003D0084F83E00002070BD000010B586B094
:100D2000044614216846FFF785FA14492068884272
:100D300021D113480021026842F0100202600068CD
:100D400000F0100005900E481438026842F00102CD
:100D50000260006800F0010005904FF4C060009050
:100D60000220CDE901010320039007200490694689
:100D70000448FFF759FB06B010BD00000010014009
:100D800044380240000002402DE9F843044690F840
:100D90003D001F4616460D4620284CD1C5B1BEB1B8
:100DA00094F83C00012846D0012084F83C004FF024
:100DB0000008C4F84080212084F83D00FFF736FC8D
:100DC000A6848146E684A068B0F5805F03D004E085
:100DD0000120BDE8F883206928B12E465FF00005A8
:100DE00084F83C800EE00026FAE78021204600F0DF
:100DF000F9FAA0B9AEB116F8010B21684860E08C91
:100E0000401EE084E08C4B464FF000020097002823
:100E1000EBD14FF04001204600F0E4FA30B103205E
:100E2000D7E735F8020BC0F30800E6E7202084F886
:100E30003D000020CDE70220CBE7FEE770B50D4D69
:100E4000002204212846FFF7ECFB0122042128465A
:100E5000FFF7E7FB052000F05BF9044600220421C0
:100E60002846FFF7DEFB012204212846FFF7D9FBC5
:100E7000204670BD001002402DE9F04186B01421DB
:100E80006846FFF7D7F927480024016841F01001B0
:100E90000160016801F010010591016841F0040151
:100EA0000160016801F004010591016841F0200131
:100EB0000160016801F020010591016841F08001A5
:100EC0000160016801F080010591016841F00101B4
:100ED00001600068144F00F0010005900022042119
:100EE0003846FFF79EFBDFF8448040F23F66002261
:100EF00031464046FFF795FB042000900125CDE9DF
:100F00000154694638460394FFF78EFA0096CDE9FE
:100F10000154694640460394FFF786FA06B0BDE8DF
:100F2000F0810000303802400010024000140240FE
:100F30000C4810B50A4901604FF4E13141600021CD
:100F400081600C22C160C0E904128161C161FFF7B8
:100F5000B3FE002803D0BDE81040FFF7C0B910BDB4
:100F60000010014028000020FEE7FEE77047000067
:100F700010B504A000F074FA00F0C8F8BDE8104005
:100F800000F006B8BFAACABCB2E2CAD40D0A00007B
:100F900000B587B014216846FFF74CF92248016874
:100FA00041F010010160016801F010010591016834
:100FB00041F020010160016801F020010591016804
:100FC00041F080010160016801F080010591016834
:100FD00041F004010160016801F00401059101681C
:100FE00041F001010160016801F001010591016812
:100FF00041F002010160016801F002010591016800
:1010000041F0080101600068694600F008000590A1
:101010000420009003200390012001900348FFF773
:1010200003FA07B000BD0000303802400010024053
:101030002DE9F0410421812000F0C4F84FF48065CF
:101040002946822000F0BEF87F21832000F0BAF804
:101050000021842000F0B6F80121842000F0B2F8CD
:101060000520FFF7CFF90121862000F0ABF800F052
:101070002FF80F280BD0114C002626600A20FFF70E
:10108000C1F92068401C20600A28F7DB2660002197
:10109000862000F097F82F4600244FF6FF76084D83
:1010A000FFF7CCFE06EA400125F8141005A000F079
:1010B000D7F9641CBC42F3DBBDE8F08120000020BE
:1010C0006C0000206C696E653D25640D0A0000000F
:1010D00070B50D4D002204212846FFF7A2FA012227
:1010E00004212846FFF79DFA042000F011F8044679
:1010F000002204212846FFF794FA01220421284601
:10110000FFF78FFA204670BD00100240FFF7EAB8E3
:1011100010B500F02BF8BDE8104000F001B8000059
:1011200070B5114E00252A4602213046FFF779FAA4
:101130000024012210213046FFF773FA002210210B
:101140003046FFF76EFA6D0004213046FFF764FA6F
:10115000641C0543A4B2202CEBD3012202213046AB
:10116000FFF75FFA284670BD0014024070B5144EB8
:101170000546002201213046FFF753FA00242806D5
:1011800001D5012200E0002208213046FFF749FA8C
:101190006806050E002210213046FFF742FA0122B0
:1011A00010213046FFF73DFA641CE4B2082CE6D368
:1011B0003046BDE8704001221146FFF732BA000008
:1011C0000014024010B50C46FFF7D0FF2046BDE8E2
:1011D000104000F001B8000070B5134E0546002223
:1011E00002213046FFF71DFA0024002D01DA01220A
:1011F00000E0002208213046FFF713FA6D000022BC
:1012000010213046FFF70DFA012210213046FFF77A
:1012100008FA641CE4B2202CE7D33046BDE87040E5
:1012200001220221FFF7FDB9001402407047FFF7C9
:1012300003BA000030B593B030216846FEF7FAFFDC
:1012400014210CA8FEF7F6FF1D480025016841F0A7
:1012500080510160006800F08050119019480168C9
:1012600041F4804101600068022400F48040119044
:1012700001200090000401908001CDE9064008AAF9
:101280000420A82182E813000B906846FFF74AFB70
:1012900008B172B6FEE70CA90F2081E831004FF4C7
:1012A000A0500F904FF48050109005210CA8FFF72C
:1012B0004FFA002801D072B6FEE713B030BD00002F
:1012C00040380240007000400248016841F470015B
:1012D0000160704788ED00E070B504460068016960
:1012E000E26821F44051114301612169A068E2697B
:1012F00008436169114308432168CA6849F20C63D5
:101300009A430243CA6020684169A26921F440718E
:101310001143416131492068884202D030498842F6
:1013200002D1FFF7BFFA01E0FFF7ACFAE269002350
:10133000192164253226B2F5004F626828D0A0FB3F
:101340000101930F9200FEF73DFF0146B0FBF5F05F
:101350006FF01802504301EB800006EB0010B0FB69
:10136000F5F000F0F002B1FBF5F002EB0012B1FB7A
:10137000F5F06FF01803584301EB800006EB001006
:10138000B0FBF5F000F00F0021681044886070BDDC
:10139000A0FB010192185B41FEF714FF0146B0FB70
:1013A000F5F00201B1FBF5F06FF01803584301EBC3
:1013B000800006EBC000B0FBF5F000F0F80002EB97
:1013C0004002B1FBF5F0584301EB800006EBC00092
:1013D000B0FBF5F000F00700D6E700000010014078
:1013E000001401402DE9F041984617460E46044688
:1013F000069D27E0681C25D02DB1FFF717F9A0EB5B
:101400000800A8421ED920680C3050E8001F21F4C3
:10141000D07140E80012002AF5D12068143050E85D
:10142000001F21F0010140E80012002AF5D1202020
:1014300084F83D0084F83E00002084F83C0003203E
:10144000BDE8F0812068006836EA000004D0002082
:10145000B842CFD00020F3E70120F9E7FEE7000013
:101460000FB4054B10B503A9044A029800F028F800
:1014700010BC5DF814FB00001516000824000020C5
:101480000907090E002804DB00F1E02080F80014B1
:10149000704700F00F0000F1E02080F8141D704745
:1014A00002E008C8121F08C1002AFAD1704770472D
:1014B000002001E001C1121F002AFBD1704700008B
:1014C0002DE9FF4F89B09B460446002506E02528FC
:1014D0000BD05A460B999047641C6D1C207800284D
:1014E000F5D10DB02846BDE8F08F0027B84601229F
:1014F000474900E0074314F8013F203B02FA03F09C
:101500000842F7D120782E2819D114F8010F47F09E
:1015100004072A280ED06FF02F022078A0F13001A6
:1015200009290CD808EB880102EB410100EB010806
:10153000641CF2E70A98641C50F8048B0A90207827
:101540000028CED0642808D0692806D075281ED07F
:101550005A460B9990476D1C58E00A994FF00A09BA
:1015600001C90A91002802DA40422D2102E0390522
:1015700004D52B218DF82010012103E0F90704D0B8
:101580002021F7E78A4608AE0DE00021FAE70A9924
:101590004FF00A0901C90A91F7E74946FEF755FEDF
:1015A000303106F8011D0028F7D1ADEB060000F13F
:1015B0002009780701D44FF00108C84502DDA8EBE7
:1015C000090000E000208046002706E008A85A46EF
:1015D000C05D0B9990476D1C7F1C5745F6DB04E0FE
:1015E00030205A460B9990476D1CB8F10001A8F1C4
:1015F0000108F5DC05E016F8010B5A460B999047F7
:101600006D1CB9F10001A9F10109F4DC641C65E766
:101610000928010013B50A23012269460248FFF791
:10162000B3FB00981CBD000028000020FFF70CF859
:10163000FFF700FEFFF720FCFFF77AFC0348006885
:101640008047034C20688047FCE700001000002022
:10165000140000200000000000000000010203044C
:101660000607080900000000010203048C160008A8
:101670000000002028000000A0140008B416000894
:101680002800002048140000B014000801000000E9
:1016900010000000000000000024F400710F00089A
:1016A00031100008E3020008D90200080000000021
:0416B0000000000036
:040000050800018965
:00000001FF
