:020000040800F2
:10000000D0000120A1010008BB5800087726000895
:10001000B9580008C50800089571000800000000E4
:10002000000000000000000000000000D96100088E
:100030008D0B00080000000099610008DB610008DA
:10004000BB010008BB010008BB010008BB010008A0
:10005000BB010008BB0100088F0B0008BB010008B2
:10006000BB010008BB010008950B0008BB0100089C
:10007000BB010008BB010008BB010008BB01000870
:10008000BB010008BB010008BB010008BB01000860
:10009000BB010008BB010008BB010008BB01000850
:1000A000BB010008BB010008BB010008BB01000840
:1000B000BB010008BB010008BB010008BB01000830
:1000C000BB010008BB010008BB010008BB01000820
:1000D000BB010008BB010008BB010008BB01000810
:1000E000BB010008BB010008BB010008BB01000800
:1000F000BB010008BB010008BB010008BB010008F0
:10010000BB010008BB010008BB010008BB010008DF
:10011000BB010008BB010008CD620008BB0100085C
:10012000BB010008BB010008BB010008BB010008BF
:10013000BB010008BB010008BB010008BB010008AF
:10014000BB010008BB010008BB010008BB0100089F
:10015000BB010008BB010008BB010008BB0100088F
:10016000BB010008BB010008BB010008BB0100087F
:10017000BB010008BB010008BB0100080000000033
:10018000BB010008BB010008DFF810D000F0F0FA56
:1001900000480047A55C0208AFF30080D0000120B2
:1001A0000648804706480047FEE7FEE7FEE7FEE711
:1001B000FEE7FEE7FEE7FEE7FEE7FEE77D620008FA
:1001C000890100082DE9F05F0546002092469B4614
:1001D00088460646814640241BE02846414647465D
:1001E000224600F0F4F953465A46C01A914110D302
:1001F00011461846224600F0DBF92D1A67EB01087C
:100200004F4622460120002100F0D2F917EB0009E9
:100210004E41201EA4F10104DFDC484631462A4647
:100220004346BDE8F09F40EA01039B0703D009E085
:1002300008C9121F08C0042AFAD203E011F8013BD2
:1002400000F8013B521EF9D27047D2B201E000F82B
:10025000012B491EFBD270470022F6E710B513466A
:100260000A4604461946FFF7F0FF204610BD421C1F
:1002700010F8011B0029FBD1801A704710B500222D
:1002800000E0521C835C8C5CA34201D1002BF8D1AE
:10029000D8B2E1B2401A10BD034611F8012B00F8A4
:1002A000012B002AF9D1184670472DE9FE4F8046F0
:1002B00081EA0300C00F0C46009021F0004123F0BA
:1002C0000045B8EB0200A94105D2404621469046C0
:1002D0001C460B46024623F00040104347D0270D32
:1002E000C7F30A00C3F30A510290401A0190402854
:1002F0006BDAC3F3130040F4801B0098924620B1E0
:100300000023D2EB030A63EB0B0B01985946C0F1B3
:100310004002504600F04CF906460D4650465946FC
:10032000019A00F064F910EB08006141002487EAAB
:10033000115284EAE7731A4340D0009A62B3019ADB
:10034000012A4FEA075215DC001B61EB02014FF056
:10035000004202EA0752CDE90042001C41F580113B
:1003600032462B4600F064F903B0BDE8F08F4046FA
:100370002146F9E7001B61EB0201001C41F58013E7
:1003800000185B412018A2F5001747EB030140EA73
:10039000D570B6196D4111E06D084FEA360645EA91
:1003A000C0754FEA0752001B61EB0201001C41F5CA
:1003B000801149084FEA30000019514132462B465E
:1003C00003B0BDE8F04F00F024B9009801224000CE
:1003D0000023D0EB020263EBE073009821464FEA62
:1003E000E074B8EB000061EB0401E9E783F000433F
:1003F0005BE781F0004158E72DE9FE4F81EA0304F5
:1004000004F0004421F0004100944FF0000B23F071
:10041000004350EA01045ED052EA03045BD0C3F308
:100420000A54C1F30A552C44A4F2F3340194A0FBFE
:100430000254C1F3130141F48011C3F3130343F4D5
:10044000801301FB024400FB034E840A970A44EA2E
:10045000815447EA8357A4FB076802958D0A05FB80
:1004600007854FEA932C04FB0C542705029D4FEAA5
:10047000065847EA1637B5EB08056EEB070C870EF2
:10048000920E47EA811742EA8312A7FB0201B6EBFC
:100490000B0164EB00042B0D43EA0C335E1844EBB4
:1004A0001C50DA465146E7FB0201C5F313044FEA3C
:1004B0000B3343EA14534FEA0432019C43EA060328
:1004C000A4F10C040294009CCDE900B400F0B0F853
:1004D00003B0BDE8F08F00200146F9E70EB540F209
:1004E000334102910021CDE900110A460B4600F08C
:1004F0009FF803B000BDC1F30A5210B5C1F3130158
:1005000040F2FF3341F480119A4201DA002010BD1D
:1005100040F233439A42A2F2334203DC524200F0EB
:1005200056F810BD904010BD00F0004230F0004081
:100530000AD0C10D01F56071C0F3160042EA015105
:10054000C208400711437047002001467047000071
:1005500030B5041E71F1000404DB4FF0004440424A
:1005600064EB0101141E73F1000405DB1C464FF01F
:100570000043524263EB04038B4208BF824230BD0A
:1005800030B5041E71F1000404DB4FF0004440421A
:1005900064EB0101141E73F1000405DB1C464FF0EF
:1005A0000043524263EB0403994208BF904230BDBE
:1005B000202A04DB203A00FA02F100207047914023
:1005C000C2F1200320FA03F3194390407047202A18
:1005D00004DB203A21FA02F00021704721FA02F3ED
:1005E000D040C2F120029140084319467047202AAA
:1005F00006DBCB17203A41FA02F043EAE07306E04B
:1006000041FA02F3D040C2F120029140084319465A
:10061000704710B5141E73F1000408DA401C41F154
:10062000000192185B411A4301D120F0010010BD76
:100630002DE9F04D92469B4611B1B1FA81F202E0EC
:10064000B0FA80F220329046FFF7B2FF04460F4620
:1006500040EA0A0041EA0B0153465A46084313D0C8
:10066000114653EA010019D0C8F140025046FFF785
:10067000AEFF05460E46504659464246FFF798FFE4
:10068000084305D0012004E020463946BDE8F08D3E
:100690000020054346EAE0762C4337430A98630579
:1006A000E40AA0EB08000022FD0A44EA47540A309D
:1006B00002D500200146E9E7010510196941DDE98D
:1006C000084500196941BDE8F04DA2E72DE9F04D5C
:1006D00000231A461B1A8A4103DB00200146BDE8AD
:1006E000F08DC1F30A52C1F3130141F480154FF0AC
:1006F000000BD10702D100186D41521E002704469D
:1007000040F2FF11384601EB620A3E46804602463F
:1007100000204FF48011FFF75AFFC2197141BB1836
:1007200046EB0100B4EB030C75EB000C04D3E41AA8
:1007300065EB000517460E46241908F101006D41CE
:1007400080463428E3DDF91946EB0600091BA84171
:1007500003D24FF0FF32134601E0002213461BEB99
:10076000070046EB0A51BDE8F04DFFF752BF00000D
:10077000064C074D06E0E06840F0010394E80700EE
:1007800098471034AC42F6D3FFF702FD34800308DB
:100790006480030870B58C1810F8015B15F007032E
:1007A00001D110F8013B2A1106D110F8012B03E00A
:1007B00010F8016B01F8016B5B1EF9D12B0705D412
:1007C0000023521E0DD401F8013BFAE710F8013B5B
:1007D000CB1A921C03E013F8015B01F8015B521E77
:1007E000F9D5A142D8D3002070BD01F065BF2DE935
:1007F000F0410D460146002004464E1908E007026C
:10080000301B401E80B200F007F8641C3844E4B28C
:10081000AC42F4D3BDE8F08110B5044601F0F4FF1A
:10082000200AA02101EB4000C0B201F0BDFF02F0A0
:100830002DF8E0B201F0B8FF02F028F801F0E4FF73
:10084000A12001F0B1FF02F021F8002001F078FFB3
:10085000044601F0F9FF204610BD2DE9F04116468F
:100860000D460746002409E0E00025FA00F0C1B279
:10087000381980B200F006F8641CE4B2B442F3D335
:10088000BDE8F08170B50D46044601F0BDFF200AB9
:10089000A02101EB4000C0B201F086FF01F0F6FF9D
:1008A000E0B201F081FF01F0F1FF284601F07CFF8A
:1008B00001F0ECFF01F0C8FFBDE870400A200AF02B
:1008C00069BA7047FEE7000070B50F4C0025C4F808
:1008D00080520E48016821F440010160016841F432
:1008E00080010160022004F520740AF061FA0848D2
:1008F000C0F8AC5202200AF05BFA0120206002200E
:100900000AF056FA256070BD008040420014024093
:1009100000804242154810B5016886B041F00201DE
:100920000160016801F002010591016841F02001B8
:1009300001600068012400F020000094059003206D
:10094000CDE9024001946946094800F065FDE002E6
:1009500000906946074800F05FFD0748C0F8AC42C8
:100960000648C0F8804206B010BD00003038024092
:1009700000040240001402400080424200804042D5
:1009800070B50F4C0025C4F880520E48016821F460
:1009900040010160016841F480010160022004F51A
:1009A00020740AF005FA08480126C0F8AC6202205B
:1009B0000AF0FEF9266002200AF0FAF9256070BDFF
:1009C0000080404200140240008042422DE9F0477E
:1009D000824618480024016821F440010160016842
:1009E00001601E200AF0E4F90025134EDFF84C9058
:1009F0002F464FF0010800BFC6F8807202200AF0AF
:100A0000D7F9C6F880826006040ED9F82C0208B126
:100A1000641CE4B26D1CEDB2082DEDD3BAF1000FE9
:100A200004D0FFF751FF2046BDE8F087FFF7A8FF8D
:100A3000F9E700000014024000804042008042427A
:100A40002DE9F04706461548016821F44001016090
:100A5000016841F480010160114D0027C5F88072E2
:100A600002200AF0A5F9DFF83C8000244FF00109CC
:100A7000F109C8F8AC127006060EC5F88092022083
:100A80000AF096F9C5F8807202200AF091F9641C08
:100A9000E4B2082CECD3BDE8F0870000001402405B
:100AA000008040420080424270B50F48016821F446
:100AB00040010160016841F4800101600B4C01209C
:100AC000C4F8AC020A4DC5F880021E2004F52B7450
:100AD00005F520750AF06CF90026266002200AF060
:100AE00067F92E6070BD0000001402400080424291
:100AF0000080404270B50D48016821F4400101605A
:100B0000016841F48001016009480125C0F8805264
:100B10001E200AF04DF9074C0020C4F8AC02022058
:100B200004F52B740AF044F9256070BD00140240EE
:100B3000008040420080424270B5114800240168A4
:100B400021F440010160016801600E4E0120C6F8E9
:100B5000AC020D4DC5F8800207E0641CE4B2FA2C2B
:100B600003D9FFF7C7FF012070BD02200AF020F96A
:100B7000D6F82C020028F0D1C5F8800270BD000024
:100B80000014024000804242008040427047012031
:100B900000F036BC102000F033BC00000148406873
:100BA00000470000C80100207047000030B4B3F5D2
:100BB000804F06D06FF0704140F8221030BC00200A
:100BC000704750F82230DFF82CC003EA0C03D1F84C
:100BD00000C04C688D894CEA041C8C688969240229
:100BE00044EA05444CEA040C4CEA0101194340F87C
:100BF0002210E3E70000F0CF70B40B6850F8232018
:100C0000DFF84CC002EA0C0C4C688A680E69CD68AB
:100C1000144335432C434D692C438D692C43CD69D6
:100C20002C430D6A2C434D6A2C438D6A2C43CD6AAC
:100C30002C43CD6B096B2C43214341EA0C01082A5C
:100C400001D141F0400140F8231070BC00207047F2
:100C50008000F0FF30B4521C50F8223003F04043C3
:100C6000D1F800C04C688D894CEA041C8C682402C1
:100C700044EA05444CEA040C0C8A641E4CEA045C09
:100C80000C7D8969A41E4CEA046C4CEA01011943ED
:100C900040F82210002030BC7047000070B5324888
:100CA00088B00024016841F002010160016801F090
:100CB00002010691016841F004010160006801A988
:100CC00000F0040006900220012581E83100032095
:100CD0000490264800F0A0FB6803CDE9010501A9B6
:100CE000234800F099FBFFF715FE224EC6F8B442E8
:100CF000142006F52D760AF04DF8356032200AF002
:100D000049F88DF8004001226946002000F006F9FC
:100D100001226946A42000F001F916208DF8000098
:100D200001226946802000F0F9F80C208DF80000BF
:100D300001226946882000F0F1F802226946A120CC
:100D400000F020F89DF80000302803D19DF8010044
:100D5000032802D0012008B070BD43F2030106A0B1
:100D600006F01AFA0020F6E730380240000402408C
:100D700000080240000041424354502049443A25B3
:100D8000780D0A002DE9F04115460E460446FFF79E
:100D90008BFE7020FFF754FEFFF7CEFEE0B2FFF7A8
:100DA0004FFEFFF7C9FEFFF77FFE7120FFF748FEF9
:100DB000FFF7C2FE00246F1E09E0BC4201D00120F3
:100DC00000E00020FFF702FE3055641CE4B2AC42A4
:100DD000F3D3BDE8F041FFF78DBE00002DE9F147E8
:100DE0004B4E00244FF00A0A307881B0401CC0B24C
:100DF000B0FBFAF20AFB1201DFF8188127463070C7
:100E000009B10A2867D2012201A90220FFF7BAFF1F
:100E10009DF8040001075ED000F00F0106295AD2A8
:100E2000FF208840C04340F0C000454688F82000BD
:100E300001274FF0000900BF95F8200007FA04F1E0
:100E400008423BD034480422694630F81400FFF7CA
:100E500099FF95F830009DF80010C0079DF801003B
:100E600001F00F010ED000EB012105EB4400C1821F
:100E70009DF802209DF8031002F00F0201EB022101
:100E800081810FE000EB0120C0F5F07105EB44001B
:100E900081819DF802209DF8031002F00F0201EB02
:100EA0000221C1829DF800000821B1EB101F05D07E
:100EB00005EB4400A0F81690A0F80C90641CE4B276
:100EC000052CB9D3A889012718B9E88A08B98DF883
:100ED000049086F800909DF80400C00610D198F8A0
:100EE0002000010602D520F0800007E04FF6FF71D8
:100EF000A8F80C10A8F8161000F0E00088F8200000
:100F00003078F02801D986F800A03846BDE8FC8783
:100F10008A00001090010020E45603082DE9F041FA
:100F200016460F4604460025FFF7BEFD7020FFF76A
:100F300087FDFFF701FEE0B2FFF782FDFFF7FCFD42
:100F4000002408E0385DFFF77BFDFFF7F5FD0500A5
:100F500003D1641CE4B2B442F4D3FFF7CBFD2846BE
:100F6000BDE8F0812DE9F0433B4889B000240168D9
:100F700041F002010160016801F00201079101687E
:100F800041F0040101600068022600F004000790AF
:100F900001AA012503270096DFF8C09082E8B0007F
:100FA0006946484600F038FA6803CDE9000569460D
:100FB0002B4800F031FAFFF7ADFCDFF8A880C8F845
:100FC000B4420A2009F0E6FEC8F8B4520A2009F03B
:100FD000E1FE03970096CDE901546946484600F0CA
:100FE0001BFA642009F0D6FE042205A948F240103D
:100FF00000F04EF88DF8184005A91BA006F0CCF8BB
:101000001CA105A8FFF73AF908BB48F240058DF886
:101010001460012205A9284600F048F9012205A91B
:10102000E81D00F035F89DF81410602905D213A0D2
:1010300006F0B2F8012000F011F90A2009F0AAFE2A
:101040008DF81440012205A9284600F02FF909B0B7
:101050000020BDE8F0830000303802400004024068
:1010600000080240000041424354502049443A25C0
:10107000730D0A00393134370000000044656661A1
:10108000756C74205665723A25640D0A00000000E4
:101090002DE9F04115460E460446FFF705FD2820D0
:1010A000FFF7CEFCFFF748FD200AFFF7C9FCFFF76A
:1010B00043FDE0B2FFF7C4FCFFF73EFDFFF7F4FC91
:1010C0002920FFF7BDFCFFF737FD00246F1E09E064
:1010D000BC4201D0012000E00020FFF777FC305532
:1010E000641CE4B2AC42F3D3BDE8F041FFF702BDAB
:1010F0002DE9F147554E00244FF00A0A307885B0AB
:10110000401CC0B2B0FBFAF20AFB1201504DA046DF
:10111000307009B10A286ED248F24E19012205A991
:101120004846FFF7B5FF00278DF800700122694699
:10113000484600F0BBF89DF8140001075BD000F0B2
:101140000F01062957D2FF2088408DF80000C043C8
:1011500095F8209040F0C00085F82000A889A8826A
:10116000E88AE8834FF0010895F8201008FA04F0A7
:10117000014225D03748042201A930F81400FFF7B6
:1011800087FF95F830009DF80510C0079DF8040012
:1011900000EB012105EB44000AD0C1829DF8061046
:1011A0009DF8072001EB0221C1F54871818107E01C
:1011B00081819DF806109DF8072001EB0221C18274
:1011C000641CE4B2052CCFD32349AA894FF001084F
:1011D0000B8828469A4203D8C28A49888A4209D98C
:1011E0009DF8141001F00F0101290BD9C1898181EB
:1011F000018BE98237709DF8140000F08F00802881
:101200000AD01AE0818A8181C18BC18280218DF848
:10121000141085F82090EEE795F82000010603D51C
:1012200020F0800085F820004FF6FF7025F80C0FA5
:101230006881287D00F0E00028753078F02801D919
:1012400086F800A006B04046BDE8F087880100207F
:1012500090010020A6570308D4C6002008B500213D
:101260008DF800108DF801000F4800BF435C9DF819
:101270000020491C1A44C9B28DF80020B829F5D3C2
:10128000D0B2C043401C8DF80000B822064948F295
:10129000470000F00BF80222694648F2FF0000F018
:1012A00005F8002008BD0000EE5603082DE9F041C6
:1012B00016460F4604460025FFF7F6FB2820FFF7E9
:1012C000BFFBFFF739FC200AFFF7BAFBFFF734FC3E
:1012D000E0B2FFF7B5FBFFF72FFC002408E0385D14
:1012E000FFF7AEFBFFF728FC050003D1641CE4B256
:1012F000B442F4D3FFF7FEFB2846BDE8F0810000BE
:101300002DE9F04186B014216846FEF7A5FF20487C
:101310000168002939D1012101601E4800240168BB
:1013200041F00101016000684FF4805800F00100B5
:101330000C27CDF80080CDE9047003260225039622
:10134000CDE901546946144800F066F84FF6807004
:10135000CDE9000502AA694682E8D0000F4800F0F6
:101360005BF84CF23370CDE9000502AA694682E8C9
:10137000D0000B4800F050F802AA694682E8D0007D
:10138000CDE90085074800F047F806B0BDE8F081D8
:1013900000000020383802400014024000100240D3
:1013A000000C0240001802400121012804D010283E
:1013B00004D004A005F0F0BE0F4800E00F48017013
:1013C00070470000B4EDCEF3202D20CDE2B2BFD6A1
:1013D000D0B6CFBBD8B5F7BAAFCAFDD6D0A3ACB4A0
:1013E000A5C3FEB0B4BCFCBCFCD6B5B4EDCEF3A333
:1013F000A10D0A0D0A000000D4010020DC0100202C
:1014000010B504490A68024202D00860FFF7CCFF19
:1014100010BD0000143C01402DE9F84F0022DFF818
:101420001492DFF814A2DFF814B24FF0010E032774
:101430004FF00F080EFA02FC0B6803EA0C03634539
:101440007DD10C7904F00304012C01D0022C14D1BD
:101450008568540007FA04F6B543CE6806FA04F42A
:101460002C438460446824EA0C0C0C79C4F3001407
:10147000944044EA0C0CC0F804C0D1F804C037EA28
:101480000C0C0CD0C4684FEA420C07FA0CF5AC43C4
:101490008D6805FA0CFC4CEA040CC0F80CC091F8FD
:1014A00004C00CF0030CBCF1020F12D14FEAD20CB5
:1014B00000EB8C04256A4FEA427C4FEADC6C08FAA8
:1014C0000CF6B5430E6906FA0CFC4CEA050CC4F8A0
:1014D00020C004684FEA420C07FA0CF5AC430D79C2
:1014E00005F0030505FA0CFC4CEA040CC0F800C03A
:1014F000D1F804C01CF0805F7DD0D9F800C04CF456
:10150000804CC9F800C0D9F800C00CF4804CCDF86C
:1015100000C022F0030C0CF1804505F59835D5F894
:1015200008C89407240F08FA04F62CEA0606A0F16E
:10153000804CBCF5003C64D0A0F1804C00E05AE047
:10154000BCF5013C60D0A0F1804CBCF5023C5ED003
:10155000A0F1804CBCF5033C5CD0A0F1804CBCF504
:10156000043C5AD0A0F1804CBCF5053C58D0A0F109
:10157000804CBCF5063C56D0A0F1804CBCF5073C35
:1015800054D04FF0080C0CFA04FC4CEA060CC5F8D9
:1015900008C8DAF800C02CEA030C4C6814F4803F49
:1015A00001D04CEA030CCAF800C0254CD4F800C0A6
:1015B0002CEA030C4D6815F4003F01D04CEA030CF3
:1015C000C4F800C0DBF800C02CEA030C4C6814F42B
:1015D000801F01D04CEA030CCBF800C0194CD4F8A2
:1015E00000C02CEA030C4D6815F4001F01D04CEA32
:1015F000030CC4F800C0521C102AFFF41BAFBDE856
:10160000F88F4FF0000CBEE74FF0010CBBE74FF036
:10161000020CB8E74FF0030CB5E74FF0040CB2E74B
:101620004FF0050CAFE74FF0060CACE74FF0070C9E
:10163000A9E7000044380240003C0140083C01405A
:10164000043C01400C3C0140426921EA0203114084
:1016500043EA014181617047002A01D081617047EE
:1016600009048161704700000148806870470000EC
:101670000800002070B50446002C04D094F83D000A
:10168000002510B106E0012070BD84F83C502046D2
:1016900000F0C6F8242084F83D002068016821F09D
:1016A000010101602068016841F400410160206887
:1016B000016821F40041016000F05EFA544B61685A
:1016C000994203D85349884203D304E052498842DF
:1016D00001D2012070BD5149B0FBF1F12268D2F86E
:1016E00004C02CF03F0C4CEA010CC2F804C0626844
:1016F0009A4201D84A1C07E04FF4967251434FF4C6
:101700007A72B1FBF2F14A1C2168D1F820C02CF0AA
:101710003F0C42EA0C020A626168994210D8490003
:10172000401EB0FBF1F2521CC2F30B02042A01D29C
:10173000042026E0B0FBF1F0401CC0F30B0020E0D9
:10174000A268002A50D001EBC10303EB0113A0F102
:10175000010CBCFBF3F35B1C43F480431B051B0D26
:101760004AD0002A4AD001EBC10202EB0111401E0F
:10177000B0FBF1F0401CC0F30B0040F4804040F49B
:1017800000402168CA6922F0FF0222F44F42104350
:10179000C861216AE06901432068026822F0C00242
:1017A00011430160E168206901432068826822F0EA
:1017B000FF0222F4034211438160A1696069014381
:1017C0002068C26822F0FF021143C16020680168EE
:1017D00041F0010101602564202084F83D0025636B
:1017E00084F83E50002070BD01EB4103A0F1010CD4
:1017F000BCFBF3F35B1CB1E70120C2E701EB410145
:10180000401EB0FBF1F0401CC0F30B00B7E7000036
:10181000A086010080841E0000093D0040420F00A8
:1018200010B586B0044614216846FEF715FD14492C
:101830002068884221D11348016841F0020101600B
:101840000068694600F0020005904FF44070009077
:1018500012200190012002900320039004200490A4
:101860000948FFF7D9FD07481030016841F400111D
:101870000160006800F40010059006B010BD000083
:1018800000540040303802400004024002488168A1
:1018900002781144816070470800002010B50B48A1
:1018A000016841F400710160016841F480610160E8
:1018B000016841F480710160032000F087F8002086
:1018C00000F006F800F026F8002010BD003C0240B1
:1018D00070B504460D4D4FF47A712878B1FBF0F0E5
:1018E0000B490968B1FBF0F000F01CFC08B10120C5
:1018F00070BD102C07D200222146501E00F032F895
:101900006C60002070BD012070BD00000800002048
:10191000140000200B4882B0016841F4804101604E
:10192000006800F4804000900648001F016841F004
:1019300080510160006800F080500090052002B0E6
:1019400000F044B84438024000280ADB00F01F01D0
:10195000012202FA01F14009800000F1E020C0F804
:101960000011704710B4184B1B68C3F30223C3F176
:10197000070CBCF1040F01D94FF0040C1C1D072CFF
:1019800001D2002300E0DB1E012404FA0CFCACF1C0
:10199000010C0CEA0101994004FA03F35B1E1A40A2
:1019A0001143002806DB00F1E020090180F8001453
:1019B00010BC704700F00F0000F1E020090180F832
:1019C000141D10BC704700000CED00E000F0070093
:1019D000064A11684FF6FF03194041EA002040F023
:1019E000FD7040F080601060704700000CED00E07A
:1019F0002DE9F04704460D46002C13D0DFF8549132
:101A0000D9F80000EFB200F00700A8420DD289F823
:101A10000070D9F8000000F00700A84205D00120AE
:101A2000BDE8F0870120BDE8F08720684A4E10F03D
:101A3000020F14D010F0040F03D0306840F4E050CF
:101A40003060207810F0080F03D0306840F4604018
:101A500030603068A16820F0F000084330602078E2
:101A600010F0010F3ED060683C49012808D00228E0
:101A70000DD003280BD0096811F0020F28D00AE01E
:101A8000096811F4003F06D10120BDE8F08709681C
:101A900011F0007F19D0316821F003010843306054
:101AA000FFF7E2FD80463068616800F00C00B0EBA3
:101AB000810F17D041F2883AFFF7D6FDA0EB08005E
:101AC000504508D90320BDE8F0870120BDE8F08724
:101AD0000120BDE8F0873068616800F00C00B0EBD1
:101AE000810FE9D1D9F8000000F00700A8420AD917
:101AF00089F80070D9F8000000F00700A84202D071
:101B00000120BDE8F087207810F0040F05D0306880
:101B1000E16820F4E05008433060207810F0080FAE
:101B200006D03068216920F4604040EAC10030608E
:101B300000F042F831680A4AC1F30311515CC84011
:101B40000849086008480068FFF7C2FE0020BDE8A9
:101B5000F0870000003C0240083802400038024094
:101B600060A10208140000200C0000200148006859
:101B7000704700001400002000B5FFF7F7FF04498C
:101B80000968044AC1F38221515CC84000BD0000CD
:101B90000838024070A1020800B5FFF7E7FF0449CA
:101BA0000968044AC1F34231515CC84000BD0000DD
:101BB0000838024070A1020810B51748006810F0FC
:101BC0000C01164816D0164B042912D0082911D141
:101BD000144C216801F03F02216811F4800F0AD0F3
:101BE0002068C0F38810A0FB03010023FEF7EAFA87
:101BF00009E0184610BD21680023C1F38811A1FB3C
:101C00000001FEF7DFFA2168C1F30141491C4900D8
:101C1000B0FBF1F010BD0000083802400024F400D1
:101C200040787D01043802402DE9F84F0446002C2D
:101C300012D02078FB4E10F0010FA6F1040563D0FE
:101C4000301D016801F00C0104290CD0006800F07F
:101C50000C00082803D010E00120BDE8F88F3068A0
:101C600010F4800F09D0286810F4003F4CD0606851
:101C7000002849D10120BDE8F88F6068B0F5803FA9
:101C800014D0B0F5A02F16D0286820F4803028603A
:101C9000286820F480202860606810B3FFF7E4FC17
:101CA0000746286810F4003F0ED02DE0286840F465
:101CB00080302860F0E7286840F480202860286899
:101CC00040F480302860E7E7FFF7CEFCC01B6428B3
:101CD00002D90320BDE8F88F286810F4003FF3D044
:101CE00012E0FFF7C1FC0746286810F4003F0BD054
:101CF000FFF7BAFCC01B642802D90320BDE8F88FA7
:101D0000286810F4003FF3D12078C74F10F0020F7D
:101D10004FF0000957D0C548016811F00C0F14D0DE
:101D2000006800F00C00082803D1306810F4800F20
:101D30000BD0E06880B301203860FFF795FC804647
:101D4000286810F0020F12D01EE0286810F0020F71
:101D500005D0E068012802D00120BDE8F88F28688E
:101D6000216920F0F80040EAC10028602BE0FFF76D
:101D70007BFCA0EB0800022802D90320BDE8F88F05
:101D8000286810F0020FF2D02868216920F0F800CE
:101D900040EAC100286016E0FFE7C7F80090FFF7AF
:101DA00063FC8046286810F0020F0CD0FFF75CFC43
:101DB000A0EB0800022802D90320BDE8F88F2868AC
:101DC00010F0020FF2D1207810F0080F35D09848AB
:101DD000DFF860A26169C1B101210160FFF744FC35
:101DE0008046DAF8000010F0020F26D1FFF73CFC25
:101DF000A0EB0800022802D90320BDE8F88FDAF82A
:101E0000000010F0020FF1D017E0C0F80090FFF7CB
:101E10002BFC8046DAF8000010F0020F0DD0FFF71F
:101E200023FCA0EB0800022802D90320BDE8F88FAC
:101E3000DAF8000010F0020FF1D1207810F0040F52
:101E400071D04FF000087C48006810F0805F0AD124
:101E50007948016841F080510160006800F08050CD
:101E600000904FF00108DFF8D4B1DBF8000010F467
:101E7000807F1BD1DBF8000040F48070CBF80000BD
:101E8000FFF7F2FB8246DBF8000010F4807F0DD1F3
:101E9000FFF7EAFBA0EB0A00022802D90320BDE805
:101EA000F88FDBF8000010F4807FF1D0A068DFF835
:101EB00090B1012818D005281DD0DBF8000020F0D3
:101EC0000100CBF80000DBF8000020F00400CBF8A4
:101ED0000000A06840B3FFF7C7FB8246DBF80000B4
:101EE00010F0020F14D03EE0DBF8000040F00100DB
:101EF000CBF80000EDE7DBF8000040F00400CBF881
:101F00000000DBF8000040F00100CBF80000E0E743
:101F1000FFF7AAFBA0EB0A0141F28830814204D905
:101F20000320BDE8F88F26E005E0DBF8000010F0A4
:101F3000020FEDD017E0FFF797FB8246DBF80000B9
:101F400010F0020F0FD0FFF78FFBA0EB0A0141F258
:101F50008830814202D90320BDE8F88FDBF8000009
:101F600010F0020FEFD1B8F1010F04D1324801682F
:101F700021F080510160A069F0B32C4909684FF04D
:101F8000FF3801F00C01082966D0022810D0C7F8EC
:101F90006090FFF769FB0446286810F0007F2BD0A3
:101FA000FFF762FB001B022851D90320BDE8F88F20
:101FB000C7F86090FFF758FB8146286810F0007F53
:101FC0000CD0FFF751FBA0EB0900022802D9032037
:101FD000BDE8F88F286810F0007FF2D1216AE0692F
:101FE000A26A0843616A08EB5202890141EA024190
:101FF000084394F82C1000E055E040EA016030609E
:1020000001203866FFF730FB0446286810F0007F97
:1020100049D1FFF729FB001B022813D90320BDE893
:10202000F88F0000043802400000474208380240A0
:10203000800E474274380240403802400070004031
:1020400070380240286810F0007FE2D02BE028684A
:1020500010F0007FA4D126E0012822D03068E26988
:1020600000F4800191421AD1226A00F03F019142AE
:1020700015D147F6C071626A0140B1EB821F0ED1E3
:10208000A26A00F4403108EB5202B1EB024F06D1D4
:1020900094F82C1000F07060B0EB016F03D00120B9
:1020A000BDE70120BBE70020B9E770B504460E4646
:1020B0001546002C03D094F8490010B107E0012028
:1020C00070BD002084F84800204600F01AF804F1A2
:1020D00008012068FEF790FD3146A2682068FEF7EF
:1020E000B9FD2946236BA2686068FEF75FFDA16811
:1020F000206850F8212042F0010240F82120002001
:1021000070BDFFF7FDB84FF0E021042804D0086946
:1021100020F0040008617047086940F0040008617D
:1021200070470000401EB0F1807F01D3012070474E
:102130004FF0E0214861044AF020107000208861CF
:10214000072008610020704723ED00E070477047CA
:1021500030B490F83C20012A44D0012480F83C405F
:10216000022280F83D200268D2F804C093682CF067
:10217000700C0D6845EA0C0CC2F804C00268A2F1AC
:10218000804CBCF5803C20D0B2F1804F1DD0A2F134
:10219000804CBCF5806C18D0A2F1804CBCF5006C72
:1021A00013D0A2F1804CBCF5406C0ED0A2F1804C53
:1021B000BCF5823C09D0A2F1804CBCF5A03C04D017
:1021C000A2F1804CBCF5C05C04D123F080034968C7
:1021D0001943916080F83D40002180F83C1030BCEC
:1021E0000020704730BC0220704710B50446002C18
:1021F00003D094F83D0010B107E0012010BD00208D
:1022000084F83C00204600F01FF8022084F83D00CE
:10221000211D206804F060F8012084F8460084F84D
:102220003E0084F83F0084F8400084F8410084F8C0
:10223000420084F8430084F8440084F8450084F8A0
:102240003D00002010BD000008B500680B49884221
:1022500012D10B48016841F01001016000680022B2
:1022600000F01000009011463620FFF77BFBBDE820
:1022700008403620FFF768BB08BD00000010004092
:102280004038024090F83D10012901D001207047EC
:10229000022180F83D100168CA6842F00102CA605C
:1022A0000068A0F18041B1F5803126D0B0F1804FB7
:1022B00023D0A0F18041B1F580611ED0A0F1804112
:1022C000B1F5006119D0A0F18041B1F5406114D0A1
:1022D000A0F18041B1F582310FD0A0F18041B1F57C
:1022E000A0310AD0A0F18041B1F5C05105D00168FC
:1022F00041F00101016000207047816801F0070191
:102300000629F8D0016841F001010160F3E7704748
:1023100070B50446206801694FF0000511F0020F06
:1023200017D0C16811F0020F13D0E91E016101201E
:1023300020772068806910F0030F03D02046FFF754
:10234000E6FF05E0204600F09DF8204600F09BF8EF
:1023500025772068016911F0040F18D0C16811F0C9
:10236000040F14D06FF0040101610220207720686F
:10237000806910F4407F03D02046FFF7C8FF05E0D6
:10238000204600F07FF8204600F07DF82577206891
:10239000016911F0080F18D0C16811F0080F14D0AE
:1023A0006FF008010161042020772068C06910F0F7
:1023B000030F03D02046FFF7AAFF05E0204600F0F8
:1023C00061F8204600F05FF825772068016911F078
:1023D000100F18D0C16811F0100F14D06FF0100159
:1023E0000161082020772068C06910F4407F03D085
:1023F0002046FFF78CFF05E0204600F043F820461A
:1024000000F041F825772068016911F0010F09D02B
:10241000C16811F0010F05D06FF001010161204684
:1024200000F032F82068016911F0800F09D0C1680E
:1024300011F0800F05D06FF0800101612046FFF799
:1024400085FE2068016911F0400F09D0C16811F0C4
:10245000400F05D06FF040010161204600F03CF8CC
:102460002068016911F0200F0BD0C16811F0200F16
:1024700007D06FF0200101612046BDE87040FFF7F2
:1024800066BE70BD7047704710B50F490068096897
:10249000884217D10D480188491C89B20180022960
:1024A00010D3002101800A2022F0E6FE084841688E
:1024B0000A20884722F06CFF06488168BDE810407A
:1024C0000120084710BD0000B00200209C00001051
:1024D0009001002090000010704770B50446002C59
:1024E00004D094F83D00002510B106E0012070BD35
:1024F00084F83C50204600F023F8242084F83D0066
:102500002068C16821F40051C160204604F088FDB4
:102510002068016921F4904101612068416921F03E
:102520002A0141612068C16841F40051C1602564FD
:10253000202084F83D0084F83E00002070BD00009B
:1025400010B586B0044614216846FDF785FE14498F
:102550002068884221D113480021026842F010020D
:102560000260006800F0100005900E481438026800
:1025700042F001020260006800F0010005904FF493
:10258000C06000900220CDE90101032003900720E4
:10259000049069460448FEF73FFF06B010BD0000F6
:1025A0000010014044380240000002402DE9F84389
:1025B00004460E4615461F4694F83D00202802D0DA
:1025C0000220BDE8F883C6B1BDB194F83C000128F3
:1025D00016D0012084F83C004FF00009C4F8409068
:1025E000212084F83D00FFF73FF88046A584E5846C
:1025F000A068B0F5805F06D007E00120BDE8F88351
:102600000220BDE8F883206980B13546002684F8B1
:102610003C90E08CB8B143460022802120460097D0
:1026200004F07CFD20B10320BDE8F8830025EEE72F
:10263000A5B12168287848606D1CE08C401EE084BC
:10264000E08C0028E7D14346002240212046009735
:1026500004F064FD48B10320BDE8F88330882168A8
:10266000C0F308004860B61CE7E7202084F83D006E
:102670000020BDE8F883FEE770B50D4C0025C4F8D6
:10268000A0520C48016821F440210160016841F426
:1026900080210160C4F8A452022004F5287408F0D7
:1026A00087FB01202060022008F082FB256070BDBE
:1026B00000804042000402400E4810B5016886B018
:1026C00041F0020101600068012400F00200059061
:1026D0004FF44070CDE900040220CDE90240694684
:1026E0000548FEF799FE0548C0F8A442C0F8A0428C
:1026F00006B010BD30380240000402400080404265
:1027000070B50D4C0025C4F8A0520C48016821F4A6
:1027100040210160016841F4802101600126C4F874
:10272000A462022004F5287408F042FB266002200F
:1027300008F03EFB256070BD00804042000402406E
:102740002DE9F047814616480024016821F4402114
:10275000016001680160134E254627464FF00108CD
:10276000C6F8A072022008F023FBC6F8A08260061B
:10277000040ED6F8240208B1641CE4B2012008F06B
:1027800017FB6D1CEDB2082DEAD3B9F1000F04D090
:10279000FFF772FF2046BDE8F087FFF7B1FFF9E7CA
:1027A00000040240008040422DE9F04106461448F2
:1027B000016821F440210160016841F48021016039
:1027C000104C0027C4F8A0723D464FF00108F009F4
:1027D000C4F8A4027006060E022008F0E9FAC4F854
:1027E000A082022008F0E4FAC4F8A072022008F0E7
:1027F000DFFA6D1CEDB2082DE9D3BDE8F0810000D1
:10280000000402400080404270B50D48016821F488
:1028100040210160016841F480210160094C0120E0
:10282000C4F8A402C4F8A002042004F5287408F037
:10283000BFFA00256560042008F0BAFA256070BD73
:1028400000040240008040420E4810B5016821F4A7
:1028500040210160016841F4802101600A4C0020A0
:10286000C4F8A002C4F8A402042004F5287408F0F7
:102870009FFA012020606060BDE81040042008F04D
:1028800097BA0000000402400080404270B5124830
:102890000024016821F440210160016801600F4DAE
:1028A0000126C5F8A462304608F082FAC5F8A06295
:1028B000012008F07DFA07E0641CE4B2FA2C03D989
:1028C000FFF7C2FF012070BDD5F824020028F3D124
:1028D000C5F8A00270BD0000000402400080404224
:1028E00004480178012903D10021017041708170F1
:1028F00070470000D401002004480178012903D169
:10290000002101704170817070470000DC010020DF
:1029100070B50B490646002408884D88214645437A
:10292000204602F0AFFC02F01FFEB0B24FF0D841DB
:1029300003E000BFA1F88000641CAC42FAD370BD74
:10294000D4C600202DE9F0478246A2EB0A00401CC5
:102950000E4685B2981B401C87B200244FF0D84920
:10296000DDF8208016E0301981B2504602F08AFC72
:1029700002F0FAFD0020494608E000BF04FB050311
:1029800038F81320A1F88020401C80B2A842F5D36B
:10299000641CA4B2BC42E6D3BDE8F0872DE9F04F39
:1029A00033492C240A4688712A2592882B2645F221
:1029B000105B4FF4305E4FF448774FF0F00949F266
:1029C000413A4FF4A07845F2103C4FF4F07358B1FF
:1029D000A1F80080A1F80290524501D0624529D1AA
:1029E0000C814D818E8139E0A1F80090A1F8028020
:1029F000524501D0624508D10C814D818E816245DE
:102A000031D1A1F800804B802DE05A4508D1A1F8C2
:102A100008E04FF4285048814FF42C50888106E09C
:102A2000A2F5C85063381ED10C814E818D810B8078
:102A30004F8018E05A4508D1A1F808E04FF428501B
:102A400048814FF42C50888106E0A2F5C8506338C5
:102A500004D10C814D818E810F804B80624502D163
:102A60000B80A1F80280BDE8F04F002002F02EBBE1
:102A7000D4C600202DE9FE4F161ACDE900104FF004
:102A800000085D1A47464FF0FF30002E02DD4FF080
:102A9000010102E003D14FF000018B4602E08346C2
:102AA000C6F10006002D02DD4FF0010002E003D167
:102AB0004FF00000824602E08246C5F10005AE42BA
:102AC00001DD344600E02C46601C4FF00009029006
:102AD00018E0009881B2019880B200F019F8B04473
:102AE0002F44A04504DD0198A8EB04085844019048
:102AF000A74203DD00983F1B5044009009F10100FC
:102B00001FFA80F902998945E3DDBDE8FE8F0000D8
:102B100000B502F0B7FB02F027FD03484FF0D841A3
:102B20000088A1F8800000BD800100202DE9FC4F45
:102B300080460025144603200F46A0EB440649E0DA
:102B4000381B81B208EB050A01901FFA8AF0FFF7E3
:102B5000DFFF781B81B208EB040900901FFA89F0AF
:102B6000FFF7D6FF07EB050B1FFA8BF11FFA89F071
:102B7000FFF7CEFF07EB04091FFA89F11FFA8AF06D
:102B8000FFF7C6FFA8EB050A1FFA89F11FFA8AF0C2
:102B9000FFF7BEFFA8EB04091FFA8BF11FFA89F0BB
:102BA000FFF7B6FF019881B21FFA8AF0FFF7B0FF76
:102BB000009881B21FFA89F0FFF7AAFF6D1C002E62
:102BC00003DA06EB8506B61D04E0281B06EB80063B
:102BD000641E0A36A542B3DDBDE8FC8F2DE9F04145
:102BE000354C90460D460246060AA18820462F0A1B
:102BF0004089A1F51343413B0CD0A1F5A643103BFE
:102C000008D0A1F5AA43103B10D0A1F5C853633BEF
:102C100025D048E002F09BFC304602F08CFCD0B29C
:102C200002F089FCA08902F092FC36E002F08FFCF1
:102C3000304602F080FC6089401C80B202F087FCC4
:102C4000D0B202F078FCA08902F081FC384602F094
:102C500072FCA089401C80B202F079FC20E0A179CE
:102C600019B92188891A491E8AB202F070FC160A25
:102C7000304602F060FCD0B202F05DFC304602F05B
:102C80005AFCD0B202F057FCA08902F060FC384632
:102C900002F051FCE8B202F04EFC384602F04BFC68
:102CA000E8B202F048FC4FF0D840218920F87E1F9E
:102CB000A0F80280BDE8F081D4C600202DE9F04FD5
:102CC000FF4895B00025016841F0020101600068ED
:102CD0004FF0010800F00200009003204FF4004B79
:102CE000CDE91280CDE910B810A9F648FEF794FBA3
:102CF000F548F6494FF02044C0E900410621C0E9FB
:102D000002151021C0E9045185610902C561C0E9BD
:102D100009518900C0E90B5189014563C0E90E5191
:102D20000F20CDE909053C200B900920CDE90205D3
:102D300008200F950490059502AA09A90895E24874
:102D4000FFF7B3F9322008F025F8D32002F0FFFB9B
:102D500002F08AF9DC4A5032908002F085F99080C6
:102D600002F082F94FF6FF7909EA0020908002F024
:102D70007BF9918849F2413A0843908045F2103638
:102D800045F2105541F66317504548D0D42002F063
:102D9000DEFB02F069F9908002F066F9908002F0A3
:102DA00063F909EA0020908002F05EF991880843F7
:102DB0009080B04233D04FF45A4002F0C8FB02F08A
:102DC00053F990804FF45B4002F0C1FB02F04CF9E4
:102DD00009EA002090804FF45C4002F0B8FB02F05A
:102DE00043F9918808439080584501D1958016E0B9
:102DF000A84214D0A12002F0AAFB02F035F990807D
:102E000002F032F909EA0020908002F02DF9918851
:102E10000843A0F5AE419080613900D1978091467A
:102E20009188ABA004F0B8F9B9F8040050457CD102
:102E3000CF2002F08CFB002002F07DFBC12002F0CD
:102E40007AFB302002F077FBED2002F080FB64205B
:102E500002F071FB032002F06EFB122002F06BFB0C
:102E6000812002F068FBE82002F071FB852002F06F
:102E700062FB102002F05FFB7A2002F05CFBCB20AB
:102E800002F065FB392002F056FB2C2002F053FBC8
:102E9000002002F050FB342002F04DFB022002F033
:102EA0004AFBF72002F053FB202002F044FBEA200B
:102EB00002F04DFB002002F03EFB002002F03BFB45
:102EC000C02002F044FB1B2002F035FBC12002F0C1
:102ED0003EFB012002F02FFBC52002F038FB302022
:102EE00002F029FB302002F026FBC72002F02FFB66
:102EF000B72002F020FB362002F029FB482002F028
:102F00001AFB3A2002F023FB552002F014FBB120FB
:102F100002F01DFB002002F00EFB1A2002F00BFB5A
:102F2000B62002F014FB0A2000E097E002F003FB59
:102F3000A22002F000FBF22002F009FB002002F0C8
:102F4000FAFA262002F003FB012002F0F4FAE02056
:102F500002F0FDFA0F2002F0EEFA2A2002F0EBFA5E
:102F6000282002F0E8FA082002F0E5FA0E2002F02C
:102F7000E2FA082002F0DFFA542002F0DCFAA9207D
:102F800002F0D9FA432002F0D6FA0A2002F0D3FA6E
:102F90000F2002F0D0FA002002F0CDFA002002F05B
:102FA000CAFA002002F0C7FA002002F0C4FAE120B9
:102FB00002F0CDFA002002F0BEFA152002F0BBFAB2
:102FC000172002F0B8FA072002F0B5FA112002F03B
:102FD000B2FA062002F0AFFA2B2002F0ACFA56202B
:102FE00002F0A9FA3C2002F0A6FA052002F0A3FAAA
:102FF000102002F0A0FA0F2002F09DFA3F2002F00C
:103000009AFA3F2002F097FA0F2002F094FA2B2050
:1030100002F09DFA002002F08EFA002002F08BFAF6
:10302000012002F088FA3F2002F085FA2A2002F0FF
:103030008EFA002002F07FFA002002F07CFA0020D5
:1030400002F079FAEF2002F076FA112002F07FFA0E
:10305000782007F09FFE292001F010BFB0427CD1FC
:10306000ED2002F074FA012002F065FAFE2002F071
:1030700062FAEE2002F06BFADE2002F05CFA212008
:1030800002F059FAF12002F062FA012002F053FA3C
:10309000DF2002F05CFA102002F04DFAC42002F0AA
:1030A00056FA8F2002F047FAC62002F050FA0020AC
:1030B00002F041FAE22002F03EFAE22010E00000C5
:1030C000303802400004024084C60020040100A001
:1030D000204C43442049443A25780D0A0000000062
:1030E00002F029FAE22002F026FABF2002F02FFABD
:1030F000AA2002F020FAB02002F029FA0D2002F0F6
:103100001AFA002002F017FA0D2002F014FA00203B
:1031100002F011FA112002F00EFA002002F00BFA70
:10312000192002F008FA002002F005FA212002F02E
:1031300002FA002002F0FFF92D2002F0FCF9002035
:1031400002F0F9F93D2002F0F6F9002002F0F3F95F
:103150005D2002F0F0F9002000E0FCE302F0EBF962
:103160005D2002F0E8F9002002F0E5F9B12002F05C
:10317000EEF9802002F0DFF9002002F0DCF98B206C
:1031800002F0D9F9002002F0D6F9962002F0D3F926
:10319000002002F0D0F9B22002F0D9F9002002F0AC
:1031A000CAF9002002F0C7F9022002F0C4F9002099
:1031B00002F0C1F9032002F0BEF9002002F0BBF9D1
:1031C000B32002F0C4F9002002F0B5F9002002F0AB
:1031D000B2F9002002F0AFF9002002F0ACF90020B3
:1031E00002F0A9F9002002F0A6F9002002F0A3F9EC
:1031F000002002F0A0F9002002F09DF9002002F06A
:103200009AF9002002F097F9002002F094F90020CA
:1032100002F091F9002002F08EF9002002F08BF903
:10322000002002F088F9002002F085F9002002F069
:1032300082F9002002F07FF9002002F07CF90020E2
:1032400002F079F9002002F076F9002002F073F91B
:10325000002002F070F9B42002F079F98B2002F01E
:103260006AF9002002F067F9962002F064F9002064
:1032700002F061F9A12002F05EF9002002F05BF992
:10328000B52002F064F9022002F055F9002002F0A6
:1032900052F9032002F04FF9002002F04CF904200B
:1032A00002F049F9002002F046F9B62002F04FF989
:1032B000002002F040F9002002F03DF9B72002F0B2
:1032C00046F9002002F037F9002002F034F93F20DF
:1032D00002F031F9002002F02EF95E2002F02BF905
:1032E000002002F028F9642002F025F9002002F005
:1032F00022F98C2002F01FF9002002F01CF9AC200A
:1033000002F019F9002002F016F9DC2002F013F99E
:10331000002002F010F9702002F00DF9002002F0F8
:103320000AF9902002F007F9002002F004F9EB20DE
:1033300002F001F9002002F0FEF8DC2002F0FBF8B8
:10334000002002F0F8F8B82002F001F9002002F0A5
:10335000F2F8002002F0EFF8002002F0ECF8002074
:1033600002F0E9F8002002F0E6F8002002F0E3F8AD
:10337000002002F0E0F8002002F0DDF8BA2002F0B0
:10338000E6F8242002F0D7F8002002F0D4F800205C
:1033900002F0D1F8002002F0CEF8C12002F0D7F8F8
:1033A000202002F0C8F8002002F0C5F8542002F0F6
:1033B000C2F8002002F0BFF8FF2002F0BCF80020A5
:1033C00002F0B9F8C22002F0C2F80A2002F0B3F805
:1033D000002002F0B0F8042002F0ADF8002002F066
:1033E000AAF8C32002F0B3F83C2002F0A4F80020B1
:1033F00002F0A1F83A2002F09EF8002002F09BF8BB
:10340000392002F098F8002002F095F8372002F0F9
:1034100092F8002002F08FF83C2002F08CF8002097
:1034200002F089F8362002F086F8002002F083F8D6
:10343000322002F080F8002002F07DF82F2002F008
:103440007AF8002002F077F82C2002F074F80020BF
:1034500002F071F8292002F06EF8002002F06BF8FB
:10346000262002F068F8002002F065F8242002F01F
:1034700062F8002002F05FF8242002F05CF80020DF
:1034800002F059F8232002F056F8002002F053F819
:103490003C2002F050F8002002F04DF8362002F0F7
:1034A0004AF8002002F047F8322002F044F80020E9
:1034B00002F041F82F2002F03EF8002002F03BF825
:1034C0002C2002F038F8002002F035F8292002F014
:1034D00032F8002002F02FF8262002F02CF800200D
:1034E00002F029F8242002F026F8002002F023F848
:1034F000242002F020F8002002F01DF8232002F022
:103500001AF8002002F017F8C42002F020F8622018
:1035100002F011F8002002F00EF8052002F00BF87E
:10352000002002F008F8842002F005F8002002F0E4
:1035300002F8F02001F0FFFF002001F0FCFF18204E
:1035400001F0F9FF002001F0F6FFA42001F0F3FFE5
:10355000002001F0F0FF182001F0EDFF002001F045
:10356000EAFF502001F0E7FF002001F0E4FF0C200B
:1035700001F0E1FF002001F0DEFF172001F0DBFF8A
:10358000002001F0D8FF952001F0D5FF002001F0C8
:10359000D2FFF32001F0CFFF002001F0CCFFE620A6
:1035A00001F0C9FF002001F0C6FFC52001F0CFFFE8
:1035B000322001F0C0FF002001F0BDFF442001F0E7
:1035C000BAFF002001F0B7FF652001F0B4FF002032
:1035D00001F0B1FF762001F0AEFF002001F0ABFF5B
:1035E000882001F0A8FF002001F0A5FFC62001F00F
:1035F000AEFF202001F09FFF002001F09CFF17206C
:1036000001F099FF002001F096FF012001F093FFE7
:10361000002001F090FFC72001F099FF002001F089
:103620008AFF002001F087FF002001F084FF0020C6
:1036300001F081FFC82001F08AFF002001F07BFF2C
:10364000002001F078FF002001F075FF002001F05C
:1036500072FFC92001F07BFF002001F06CFF002009
:1036600001F069FF002001F066FF002001F063FF18
:10367000002001F060FF002001F05DFF002001F05C
:103680005AFF002001F057FF002001F054FF0020F6
:1036900001F051FF002001F04EFF002001F04BFF30
:1036A000002001F048FF002001F045FF002001F05C
:1036B00042FF002001F03FFFE02001F048FF16200C
:1036C00001F039FF002001F036FF1C2001F033FF2C
:1036D000002001F030FF212001F02DFF002001F03B
:1036E0002AFF362001F027FF002001F024FF4620AA
:1036F00001F021FF002001F01EFF522001F01BFF0E
:10370000002001F018FF642001F015FF002001F0F7
:1037100012FF7A2001F00FFF002001F00CFF8B2038
:1037200001F009FF002001F006FF992001F003FFDE
:10373000002001F000FFA82001F0FDFE002001F0B4
:10374000FAFEB92001F0F7FE002001F0F4FEC420DB
:1037500001F0F1FE002001F0EEFECA2001F0EBFEC8
:10376000002001F0E8FED22001F0E5FE002001F08B
:10377000E2FED92001F0DFFE002001F0DCFEE020B7
:1037800001F0D9FE002001F0D6FEF32001F0D3FEB7
:10379000002001F0D0FEE12001F0D9FE162001F05A
:1037A000CAFE002001F0C7FE1C2001F0C4FE00206C
:1037B00001F0C1FE222001F0BEFE002001F0BBFEA0
:1037C000362001F0B8FE002001F0B5FE452001F0E2
:1037D000B2FE002001F0AFFE522001F0ACFE00204E
:1037E00001F0A9FE642001F0A6FE002001F0A3FE76
:1037F0007A2001F0A0FE002001F09DFE8B2001F058
:103800009AFE002001F097FE992001F094FE00201E
:1038100001F091FEA82001F08EFE002001F08BFE49
:10382000B92001F088FE002001F085FEC42001F0DF
:1038300082FE002001F07FFECA2001F07CFE002005
:1038400001F079FED22001F076FE002001F073FE37
:10385000D82001F070FE002001F06DFEE02001F0A4
:103860006AFE002001F067FEF32001F064FE0020F4
:1038700001F061FEE22001F06AFE052001F05BFE2E
:10388000002001F058FE0B2001F055FE002001F051
:1038900052FE1B2001F04FFE002001F04CFE3420B0
:1038A00001F049FE002001F046FE442001F043FEF5
:1038B000002001F040FE4F2001F03DFE002001F00D
:1038C0003AFE612001F037FE002001F034FE79203D
:1038D00001F031FE002001F02EFE882001F02BFEC9
:1038E000002001F028FE972001F025FE002001F0C5
:1038F00022FEA62001F01FFE002001F01CFEB720D2
:1039000001F019FE002001F016FEC22001F013FEA6
:10391000002001F010FEC72001F00DFE002001F094
:103920000AFED12001F007FE002001F004FED6209F
:1039300001F001FE002001F0FEFDDD2001F0FBFDA5
:10394000002001F0F8FDF32001F0F5FD002001F06A
:10395000F2FDE32000E00FE301F0F9FD052001F0A6
:10396000EAFD002001F0E7FD0A2001F0E4FD00205F
:1039700001F0E1FD1C2001F0DEFD002001F0DBFD87
:10398000332001F0D8FD002001F0D5FD442001F0E6
:10399000D2FD002001F0CFFD502001F0CCFD002031
:1039A00001F0C9FD622001F0C6FD002001F0C3FD59
:1039B000782001F0C0FD002001F0BDFD882001F05D
:1039C000BAFD002001F0B7FD972001F0B4FD002002
:1039D00001F0B1FDA62001F0AEFD002001F0ABFD2D
:1039E000B72001F0A8FD002001F0A5FDC22001F0E4
:1039F000A2FD002001F09FFDC72001F09CFD0020EA
:103A000001F099FDD12001F096FD002001F093FD19
:103A1000D52001F090FD002001F08DFDDD2001F0AA
:103A20008AFD002001F087FDF32001F084FD0020D5
:103A300001F081FDE42001F08AFD012001F07BFD11
:103A4000002001F078FD012001F075FD002001F05B
:103A500072FD022001F06FFD002001F06CFD2A20B4
:103A600001F069FD002001F066FD3C2001F063FDDE
:103A7000002001F060FD4B2001F05DFD002001F011
:103A80005AFD5D2001F057FD002001F054FD742027
:103A900001F051FD002001F04EFD842001F04BFDAE
:103AA000002001F048FD932001F045FD002001F0C9
:103AB00042FDA22001F03FFD002001F03CFDB320BB
:103AC00001F039FD002001F036FDBE2001F033FD8C
:103AD000002001F030FDC42001F02DFD002001F098
:103AE0002AFDCD2001F027FD002001F024FDD32088
:103AF00001F021FD002001F01EFDDD2001F01BFD85
:103B0000002001F018FDF32001F015FD002001F068
:103B100012FDE52001F01BFD002001F00CFD00204E
:103B200001F009FD002001F006FD002001F003FD79
:103B3000022001F000FD002001F0FDFC292001F031
:103B4000FAFC002001F0F7FC3C2001F0F4FC00201E
:103B500001F0F1FC4B2001F0EEFC002001F0EBFC49
:103B60005D2001F0E8FC002001F0E5FC742001F08C
:103B7000E2FC002001F0DFFC842001F0DCFC0020EE
:103B800001F0D9FC932001F0D6FC002001F0D3FC19
:103B9000A22001F0D0FC002001F0CDFCB32001F008
:103BA000CAFC002001F0C7FCBE2001F0C4FC0020CC
:103BB00001F0C1FCC42001F0BEFC002001F0BBFC00
:103BC000CD2001F0B8FC002001F0B5FCD32001F0BD
:103BD000B2FC002001F0AFFCDC2001F0ACFC0020C6
:103BE00001F0A9FCF32001F0A6FC002001F0A3FCE9
:103BF000E62001F0ACFC112001F09DFC002001F05A
:103C00009AFC342001F097FC002001F094FC56202F
:103C100001F091FC002001F08EFC762001F08BFC7D
:103C2000002001F088FC772001F085FC002001F0E5
:103C300082FC662001F07FFC002001F07CFC8820E3
:103C400001F079FC002001F076FC992001F073FC72
:103C5000002001F070FCBB2001F06DFC002001F0A1
:103C60006AFC992001F067FC002001F064FC6620EA
:103C700001F061FC002001F05EFC552001F05BFCCE
:103C8000002001F058FC552001F055FC002001F007
:103C900052FC452001F04FFC002001F04CFC432079
:103CA00001F049FC002001F046FC442001F043FCF7
:103CB000002001F040FCE72001F049FC322001F037
:103CC0003AFC002001F037FC552001F034FC0020C4
:103CD00001F031FC762001F02EFC002001F02BFCDD
:103CE000662001F028FC002001F025FC672001F08F
:103CF00022FC002001F01FFC672001F01CFC0020CA
:103D000001F019FC872001F016FC002001F013FCE3
:103D1000992001F010FC002001F00DFCBB2001F007
:103D20000AFC002001F007FC992001F004FC0020AF
:103D300001F001FC772001F0FEFB002001F0FBFB0D
:103D4000442001F0F8FB002001F0F5FB562001F0C3
:103D5000F2FB002001F0EFFB232001F0ECFB002040
:103D600001F0E9FB332001F0E6FB002001F0E3FB6A
:103D7000452001F0E0FB002001F0DDFBE82001F030
:103D8000E6FB002001F0D7FB002001F0D4FB9920D6
:103D900001F0D1FB002001F0CEFB872001F0CBFB2E
:103DA000002001F0C8FB882001F0C5FB002001F0D5
:103DB000C2FB772001F0BFFB002001F0BCFB6620B6
:103DC00001F0B9FB002001F0B6FB882001F0B3FB45
:103DD000002001F0B0FBAA2001F0ADFB002001F0B3
:103DE000AAFBBB2001F0A7FB002001F0A4FB992057
:103DF00001F0A1FB002001F09EFB662001F09BFB7F
:103E0000002001F098FB552001F095FB002001F007
:103E100092FB552001F08FFB002001F08CFB442029
:103E200001F089FB002001F086FB442001F083FBB8
:103E3000002001F080FB552001F07DFB002001F007
:103E40007AFBE92001F083FBAA2001F074FB00203B
:103E500001F071FB002001F06EFB002001F06BFB14
:103E6000002001F074FBAA2001F065FBCF2001F0D7
:103E70006EFB002001F05FFB002001F05CFB0020E6
:103E800001F059FB002001F056FB002001F053FB2C
:103E9000002001F050FB002001F04DFB002001F05C
:103EA0004AFB002001F047FB002001F044FB00200A
:103EB00001F041FB002001F03EFB002001F03BFB44
:103EC000002001F038FB002001F035FB002001F05C
:103ED00032FB002001F02FFBF02001F038FB002026
:103EE00001F029FB502001F026FB002001F023FB0C
:103EF000002001F020FB002001F01DFBF32001F069
:103F000026FB002001F017FBF92001F020FB062022
:103F100001F011FB102001F00EFB292001F00BFB3A
:103F2000002001F008FB3A2001F011FB552001F0C0
:103F300002FB112001F00BFB642006F02BFF29206F
:103F400001F005FB352001F002FB002001F0F3FA3F
:103F5000512001F0FCFAFF2001F0EDFA532001F0AE
:103F6000F6FA2C2001F0E7FA552001F0F0FA822051
:103F700001F0E1FA2C20FDE3A8427DD14FF470431B
:103F80005521184601F0FAFA4FF2010BAA215846C2
:103F900001F0F4FA52214FF2020001F0EFFA082189
:103FA0004FF2030001F0EAFA01214FF2040001F0A0
:103FB000E5FA0D214FF4304001F0E0FA0D214BF20B
:103FC000010001F0DBFA0D214BF2020001F0D6FAFC
:103FD00034214FF4364001F0D1FA34214BF2016024
:103FE00001F0CCFA34214BF2026001F0C7FA0D2146
:103FF0004FF4314001F0C2FA0D214BF2011001F0F3
:10400000BDFA0D214BF2021001F0B8FA34214FF441
:10401000374001F0B3FA34214BF2017001F0AEFAEF
:1040200034214BF2027001F0A9FA00214FF4324022
:1040300001F0A4FA00214BF2012001F09FFA0021C7
:104040004BF2022001F09AFA24214FF4384001F09B
:1040500095FA24214BF6010001F090FA24214BF649
:10406000020001F08BFA01214FF43F4001F086FA83
:104070000F214FF4334000E0FEE301F07FFA0F21FF
:104080004BF2013001F07AFA0F214BF2023001F0CD
:1040900075FA34214FF4394001F070FA34214BF6AF
:1040A000011001F06BFA34214BF6021001F066FAB0
:1040B00008214FF4354001F061FA08214BF201501C
:1040C00001F05CFA08214BF2025001F057FA03218B
:1040D0004FF4424001F052FA24214FF43A4001F0EB
:1040E0004DFA24214BF6012001F048FA24214BF629
:1040F000022001F043FA00214FF43C4001F03EFA67
:1041000078214BF6014001F039FA00214BF60240CC
:1041100001F034FA00214FF43D4001F02FFA7821EC
:104120004BF6015001F02AFA00214BF6025001F043
:1041300025FA00214FF43E4001F020FA64214BF6AD
:10414000016001F01BFA00214FF4514001F016FA12
:1041500033214DF2011001F011FA00214DF202104D
:1041600001F00CFA34214DF2031001F007FA00219E
:104170004DF2041001F002FA3A214DF2051001F05F
:10418000FDF900214DF2061001F0F8F94A214DF237
:10419000071001F0F3F900214DF2081001F0EEF9DB
:1041A0005C214DF2091001F0E9F900214DF20A10ED
:1041B00001F0E4F981214DF20B1001F0DFF900214B
:1041C0004DF20C1001F0DAF9A6214DF20D1001F0BC
:1041D000D5F900214DF20E1001F0D0F9E5214DF294
:1041E0000F1001F0CBF901214DF2101001F0C6F9CA
:1041F00013214DF2111001F0C1F901214DF21210FD
:1042000001F0BCF954214DF2131001F0B7F901216E
:104210004DF2141001F0B2F982214DF2151001F0A7
:10422000ADF901214DF2161001F0A8F9CA214DF2A5
:10423000171001F0A3F902214DF2181001F09EF9B8
:1042400000214DF2191001F099F902214DF21A10D6
:1042500001F094F901214DF21B1001F08FF90221B8
:104260004DF21C1001F08AF934214DF21D1001F0BD
:1042700085F902214DF21E1001F080F967214DF2FF
:104280001F1001F07BF902214DF2201001F076F9A8
:1042900084214DF2211001F071F902214DF222101A
:1042A00001F06CF9A4214DF2231001F067F902210D
:1042B0004DF2241001F062F9B7214DF2251001F002
:1042C0005DF902214DF2261001F058F9CF214DF28F
:1042D000271001F053F902214DF2281001F04EF998
:1042E000DE214DF2291001F049F902214DF22A1088
:1042F00001F044F9F2214DF22B1001F03FF90221B7
:104300004DF22C1001F03AF9FE214DF22D1001F082
:1043100035F903214DF22E1001F030F910214DF244
:104320002F1001F02BF903214DF2301001F026F986
:1043300033214DF2311001F021F903214DF23210F9
:1043400001F01CF96D214DF2331001F017F9002135
:104350004FF4524001F012F933214DF2012001F0E7
:104360000DF900214DF2022001F008F934214DF23F
:10437000032001F003F900214DF2042001F0FEF8C2
:104380003A214DF2052001F0F9F800214DF2062006
:1043900001F0F4F84A214DF2072001F0EFF8002176
:1043A0004DF2082001F0EAF85C214DF2092001F0FD
:1043B000E5F800214DF20A2001F0E0F881214DF2EC
:1043C0000B2001F0DBF800214DF20C2001F0D6F8B3
:1043D000A6214DF20D2001F0D1F800214DF20E2062
:1043E00001F0CCF8E5214DF20F2001F0C7F80121D2
:1043F0004DF2102001F0C2F813214DF2112001F00E
:10440000BDF801214DF2122001F0B8F854214DF20F
:10441000132001F0B3F801214DF2142001F0AEF8A1
:1044200082214DF2152001F0A9F801214DF216204C
:1044300001F0A4F8CA214DF2172001F09FF80221E3
:104440004DF2182001F09AF800214DF2192001F0E8
:1044500095F802214DF21A2001F090F801214DF259
:104460001B2001F08BF802214DF21C2001F086F890
:1044700034214DF21D2001F081F802214DF21E2061
:1044800001F07CF867214DF21F2001F077F802213E
:104490004DF2202001F072F884214DF2212001F02C
:1044A0006DF802214DF2222001F068F8A4214DF2AE
:1044B000232001F063F802214DF2242001F05EF880
:1044C000B7214DF2252001F059F802214DF22620A6
:1044D00001F054F8CF214DF2272001F04FF80221CE
:1044E0004DF2282001F04AF8DE214DF2292001F09A
:1044F00045F802214DF22A2001F040F8F2214DF258
:104500002B2001F03BF802214DF22C2001F036F86F
:10451000FE214DF22D2001F031F803214DF22E2025
:1045200001F02CF810214DF22F2001F027F8032183
:104530004DF2302001F022F833214DF2312001F00C
:104540001DF803214DF2322001F018F86D214DF2D3
:10455000332001F013F800214FF4534001F00EF81E
:1045600033214DF2013001F009F800214DF2023003
:1045700001F004F834214DF2033000F0FFFF002178
:104580004DF2043000F0FAFF3A214DF2053000F010
:10459000F5FF00214DF2063000F0F0FF4A214DF208
:1045A000073000F0EBFF00214DF2083000F0E6FF8D
:1045B0005C214DF2093000F0E1FF00214DF20A309C
:1045C00000F0DCFF81214DF20B3000F0D7FF00211D
:1045D0004DF20C3000F0D2FFA6214DF20D3000F06C
:1045E000CDFF00214DF20E3000F0C8FFE5214DF265
:1045F0000F3000F0C3FF01214DF2103000F0BEFF7C
:1046000013214DF2113000F0B9FF01214DF21230AB
:1046100000F0B4FF54214DF2133000F0AFFF012140
:104620004DF2143000F0AAFF82214DF2153000F057
:10463000A5FF01214DF2163000F0A0FFCA214DF276
:10464000173000F09BFF02214DF2183000F096FF6A
:1046500000214DF2193000F091FF02214DF21A3085
:1046600000F08CFF01214DF21B3000F087FF02218A
:104670004DF21C3000F082FF34214DF21D3000F06D
:104680007DFF02214DF21E3000F078FF67214DF2D0
:104690001F3000F073FF02214DF2203000F06EFF5A
:1046A00084214DF2213000F069FF02214DF22230C9
:1046B00000F064FFA4214DF2233000F05FFF0221DF
:1046C0004DF2243000F05AFFB7214DF2253000F0B2
:1046D00055FF02214DF2263000F050FFCF214DF260
:1046E000273000F04BFF02214DF2283000F046FF4A
:1046F000DE214DF2293000F041FF02214DF22A3037
:1047000000F03CFFF2214DF22B3000F037FF022188
:104710004DF22C3000F032FFFE214DF22D3000F032
:104720002DFF03214DF22E3000F028FF10214DF215
:104730002F3000F023FF03214DF2303000F01EFF38
:1047400033214DF2313000F019FF03214DF23230A8
:1047500000F014FF6D214DF2333000F00FFF002107
:104760004FF4544000F00AFF33214DF2014000F0B5
:1047700005FF00E082E300214DF2024000F0FEFE62
:1047800034214DF2034000F0F9FE00214DF20440C7
:1047900000F0F4FE3A214DF2054000F0EFFE00215A
:1047A0004DF2064000F0EAFE4A214DF2074000F0CB
:1047B000E5FE00214DF2084000F0E0FE5C214DF2E4
:1047C000094000F0DBFE00214DF20A4000F0D6FE69
:1047D00081214DF20B4000F0D1FE00214DF20C4042
:1047E00000F0CCFEA6214DF20D4000F0C7FE0021E6
:1047F0004DF20E4000F0C2FEE5214DF20F4000F0F8
:10480000BDFE01214DF2104000F0B8FE13214DF223
:10481000114000F0B3FE01214DF2124000F0AEFE57
:1048200054214DF2134000F0A9FE01214DF2144035
:1048300000F0A4FE82214DF2154000F09FFE012100
:104840004DF2164000F09AFECA214DF2174000F0DA
:1048500095FE02214DF2184000F090FE00214DF22D
:10486000194000F08BFE02214DF21A4000F086FE46
:1048700001214DF21B4000E003E300F07FFE022126
:104880004DF21C4000F07AFE34214DF21D4000F044
:1048900075FE02214DF21E4000F070FE67214DF2C0
:1048A0001F4000F06BFE02214DF2204000F066FE3A
:1048B00084214DF2214000F061FE02214DF22240A0
:1048C00000F05CFEA4214DF2234000F057FE0221CF
:1048D0004DF2244000F052FEB7214DF2254000F089
:1048E0004DFE02214DF2264000F048FECF214DF250
:1048F000274000F043FE02214DF2284000F03EFE2A
:10490000DE214DF2294000F039FE02214DF22A400D
:1049100000F034FEF2214DF22B4000F02FFE022178
:104920004DF22C4000F02AFEFE214DF22D4000F009
:1049300025FE03214DF22E4000F020FE10214DF205
:104940002F4000F01BFE03214DF2304000F016FE18
:1049500033214DF2314000F011FE03214DF232407F
:1049600000F00CFE6D214DF2334000F007FE0021F7
:104970004FF4554000F002FE33214DF2015000F09B
:10498000FDFD00214DF2025000F0F8FD34214DF202
:10499000035000F0F3FD00214DF2045000F0EEFD55
:1049A0003A214DF2055000F0E9FD00214DF206508C
:1049B00000F0E4FD4A214DF2075000F0DFFD002138
:1049C0004DF2085000F0DAFD5C214DF2095000F084
:1049D000D5FD00214DF20A5000F0D0FD81214DF2AD
:1049E0000B5000F0CBFD00214DF20C5000F0C6FD45
:1049F000A6214DF20D5000F0C1FD00214DF20E50E8
:104A000000F0BCFDE5214DF20F5000F0B7FD012193
:104A10004DF2105000F0B2FD13214DF2115000F094
:104A2000ADFD01214DF2125000F0A8FD54214DF2D0
:104A3000135000F0A3FD01214DF2145000F09EFD33
:104A400082214DF2155000F099FD01214DF21650D2
:104A500000F094FDCA214DF2175000F08FFD0221A5
:104A60004DF2185000F08AFD00214DF2195000F06F
:104A700085FD02214DF21A5000F080FD01214DF21A
:104A80001B5000F07BFD02214DF21C5000F076FD22
:104A900034214DF21D5000F071FD02214DF21E50E7
:104AA00000F06CFD67214DF21F5000F067FD022100
:104AB0004DF2205000F062FD84214DF2215000F0B3
:104AC0005DFD02214DF2225000F058FDA4214DF26F
:104AD000235000F053FD02214DF2245000F04EFD12
:104AE000B7214DF2255000F049FD02214DF226502C
:104AF00000F044FDCF214DF2275000F03FFD022190
:104B00004DF2285000F03AFDDE214DF2295000F020
:104B100035FD02214DF22A5000F030FDF2214DF218
:104B20002B5000F02BFD02214DF22C5000F026FD01
:104B3000FE214DF22D5000F021FD03214DF22E50AB
:104B400000F01CFD10214DF22F5000F017FD032145
:104B50004DF2305000F012FD33214DF2315000F093
:104B60000DFD03214DF2325000F008FD6D214DF294
:104B7000335000F003FD00214FF4564000F0FEFCDE
:104B800033214DF2016000F0F9FC00214DF202608A
:104B900000F0F4FC34214DF2036000F0EFFC002142
:104BA0004DF2046000F0EAFC3A214DF2056000F09D
:104BB000E5FC00214DF2066000F0E0FC4A214DF2D8
:104BC000076000F0DBFC00214DF2086000F0D6FC2D
:104BD0005C214DF2096000F0D1FC00214DF20A6029
:104BE00000F0CCFC81214DF20B6000F0C7FC0021ED
:104BF0004DF20C6000F0C2FCA6214DF20D6000F0F9
:104C0000BDFC00214DF20E6000F0B8FCE5214DF234
:104C10000F6000F0B3FC01214DF2106000F0AEFC1B
:104C200013214DF2116000F0A9FC01214DF2126038
:104C300000F0A4FC54214DF2136000F09FFC012110
:104C40004DF2146000F09AFC82214DF2156000F0E4
:104C500095FC01214DF2166000F090FCCA214DF246
:104C6000176000F08BFC02214DF2186000F086FC0A
:104C700000214DF2196000F081FC02214DF21A6012
:104C800000F07CFC01214DF21B6000F077FC02215A
:104C90004DF21C6000F072FC34214DF21D6000F0FA
:104CA0006DFC02214DF21E6000F068FC67214DF2A0
:104CB0001F6000F063FC02214DF2206000F05EFCFA
:104CC00084214DF2216000F059FC02214DF2226056
:104CD00000F054FCA4214DF2236000F04FFC0221AF
:104CE0004DF2246000F04AFCB7214DF2256000F03F
:104CF00045FC02214DF2266000F040FCCF214DF230
:104D0000276000F03BFC02214DF2286000F036FCE9
:104D1000DE214DF2296000F031FC02214DF22A60C3
:104D200000F02CFCF2214DF22B6000F027FC022158
:104D30004DF22C6000F022FCFE214DF22D6000F0BF
:104D40001DFC03214DF22E6000F018FC10214DF2E5
:104D50002F6000F013FC03214DF2306000F00EFCD8
:104D600033214DF2316000F009FC03214DF2326035
:104D700000F004FC6D214DF2336000F0FFFB552183
:104D8000184600F0FBFBAA21584600F0F7FB522121
:104D90004FF2020000F0F2FB08214FF2030000F096
:104DA000EDFB00214FF2040000F0E8FBCC214FF4B2
:104DB000314000F0E3FB00214BF2011000F0DEFB7C
:104DC00005214FF4364000F0D9FB70214FF43740F5
:104DD00000F0D4FB70214BF2017000F0CFFB0121F9
:104DE0004FF4384000F0CAFB03214BF6010000F0FD
:104DF000C5FB03214BF6020000F0C0FB03214BF67C
:104E0000030000F0BBFB02214FF43C4000F0B6FB76
:104E100000214BF6014000F0B1FB00214BF60240AF
:104E200000F0ACFBD0214FF4494000F0A7FB022179
:104E30004CF6011000F0A2FB50214CF6021000F0DD
:104E40009DFB50214CF6031000F098FB50214CF6CE
:104E5000041000F093FB00214FF4545000F08EFB3F
:104E600055214FF4685000F089FB4FF4885000F052
:104E70006EFB782005F09CFF4FF4245000F067FB98
:104E8000B9E0B842FCD1E22000F061FB1D2000F047
:104E900052FB022000F04FFB042000F04CFB64208A
:104EA00005F086FFE02000F052FB012000F043FBFC
:104EB0000A2005F06FFFE02000F049FB032000F01E
:104EC0003AFB0C2005F066FF012000F040FB0A20B1
:104ED00005F060FFE62000F03AFB2F2000F02BFBEE
:104EE000FF2000F028FBFF2000F025FBB02000F0A1
:104EF0002EFB202000F01FFB002000F01CFB0320F5
:104F000000F019FB40F21F3000F015FB012000F00B
:104F100012FB40F2DF1000F00EFB002000F00BFB54
:104F2000B42000F014FB042000F005FB40F21F4009
:104F300000F001FB002000F0FEFA2E2000F0FBFA4A
:104F4000002000F0F8FA002000F0F5FA002000F050
:104F5000F2FA002000F0EFFAB62000F0F8FA022092
:104F600000F0E9FA4FF4037000F0E5FA002000F0D9
:104F7000E2FA172000F0DFFA152000F0DCFA00203A
:104F800000F0D9FA002000F0D6FAF02000F0DFFAA5
:104F9000032000F0D0FA292000F0D9FAD02000F048
:104FA000D6FA002000F0C7FABE2000F0D0FA0520A3
:104FB00000F0C1FAFE2000F0BEFA012000F0BBFABA
:104FC000002000F0B8FA002000F0B5FA002000F050
:104FD000B2FAB82000F0BBFA032000F0ACFA0120CE
:104FE00000F0A9FABA2000F0B2FA012000F0A3FA0A
:104FF000642000F043F8B9F80400504505D0B042F1
:1050000003D0A84201D0B84217D1D4F81C0120F037
:105010000F00C4F81C01D4F81C0120F47060C4F81F
:105020001C01D4F81C0140F00300C4F81C01D4F8A2
:105030001C0140F40070C4F81C010120FDF7AEFC17
:105040000449C1F8BC824FF47840FDF761FC15B00B
:10505000BDE8F08F008040420246012000E050434E
:10506000491EC9B2FBD2704708B54FF0D840B0F81E
:105070008000ADF80000BDF8000008BD10B5024684
:10508000BE2000F064FA052000F055FA1046FBF748
:1050900025FA9FED0C1B53EC112BFBF7ADF9FBF739
:1050A0002AFA80B200F047FA012000F044FAFF200B
:1050B00000F041FA002000F03EFABDE81040002068
:1050C00000F039BA6666666666660440F0B56C4CF8
:1050D00000232146A279898841F66316012A01D06E
:1050E0001AB11BE0B14202D118E0B14216D1082832
:1050F00014D2DFE800F00406080A0C0E1012062095
:105100000CE007200AE0042008E0052006E001206A
:1051100004E0002002E0032000E00220A1F5134794
:1051200045F2103245F21055413F05D0914203D06F
:10513000A94201D0B14277D1082812D2DFE800F0AD
:10514000110406080A0C0E1080230AE0402308E030
:10515000C02306E0202304E0602302E0A02300E057
:10516000E023A94202D14FF4585000E0362091428A
:1051700005D0A94203D0B14201D043F0080319463B
:1051800000F0FCF9A188B1420AD098062088628814
:1051900002D5904202D303E0904201D92280608080
:1051A0006089A94241D100F0D2F9002000F0C3F992
:1051B0006089401C80B200F0CAF9002000F0BBF901
:1051C0006089801C80B200F0C2F92088401EC0F3C4
:1051D0000F2000F0B0F96089C01C80B200F0B7F970
:1051E0002078401EC0B200F0A6F9A08900F0AFF907
:1051F000002000F0A0F9A089401C80B200F0A7F9BF
:10520000002000F098F9A089801C80B200F09FF97E
:105210006088401EC0F30F2000F08DF9A089C01CEB
:1052200080B200F094F922E028E000F090F900202C
:1052300000F081F9002000F07EF92088401EC0F3C4
:105240000F2000F078F92078401EC0B200F073F90A
:10525000A08900F07CF9002000F06DF9002000F03A
:105260006AF96088401EC0F30F2000F064F9A0784E
:10527000BDE8F040401EC0B200F05DB9F0BD0000D6
:10528000D4C60020F0B53F4A0D460446060A918870
:1052900010462F0A4089A1F51343413B28D0A1F5C0
:1052A000A643103B24D0A1F5C853633B2FD0A1F5F2
:1052B000AA43103B64D100F04AF9304600F03BF9B4
:1052C0005089401C80B200F042F9E0B200F033F99E
:1052D000908900F03CF9384600F02DF99089401C87
:1052E00080B200F034F9E8B2BDE8F04000F023B934
:1052F00000F02DF9304600F01EF9E0B200F01BF985
:10530000908900F024F9384600F015F9EBE791791F
:1053100029B300F01CF9304600F00DF9E0B200F0BE
:105320000AF91088401EC0F30F2000F004F910782D
:10533000401EC0B200F0FFF8908900F008F938462E
:1053400000F0F9F8E8B200F0F6F85088401EC0F31B
:105350000F2000F0F0F89078401EC0B2C4E711882A
:10536000091B491E8CB200F0F2F8002000F0E3F8AF
:10537000002000F0E0F8200A00F0DDF8E0B2D9E704
:10538000F0BD0000D4C600202DE9FF4F1D460C469D
:105390008A46580700D0012000EBD500690810FBB1
:1053A00001F0203A00F0FF09D0B20026DFF8A4B0E7
:1053B00002904BE00C2D11D0102D14D0182D17D0C9
:1053C000202D45D12449029801EBC0104FF0000870
:1053D000875D380613D52148026814E002982049F9
:1053E00000EB400008E01F49029801EB0010EDE7D8
:1053F00002981D4900EBC00001EB8000E6E70D9824
:1054000028B91648426821460098FDF7E7FB780660
:10541000070E641CBBF80200A4B2A04218D9A4EB8A
:105420000A00A84209D100985446401C80B200905E
:10543000BBF8001081420BD906E008F1010000F032
:10544000FF08B8F1080FC4D3761CF6B24E45B1D3AD
:10545000BDE8FF8FD4C60020642703088001002028
:10546000A40F030818140308081A03082DE9FF4FB6
:1054700081B00026DDF838A01D46934681463446AB
:10548000B0464FEA5A0727E0281B401EC1B20A2047
:10549000FFF7E2FDBBFBF0F00A21B0FBF1F201FBEC
:1054A000120026B9691E8C4201DA48B1012630305B
:1054B000C2B207FB049080B25346CDF8008006E0EC
:1054C00007FB049080B253462022CDF80080029959
:1054D000FFF75AFF641CE4B2AC42D5D305B0BDE877
:1054E000F08F2DE9F84F044600F0FF0910190D4622
:1054F000DDE90AB61FFA80F8581987B24FF0000AA2
:1055000012E0444503D305EB0B004C4685B2BD4287
:105510000FD25B4629462046CDF800A0FFF734FFA6
:1055200004EB5B0084B2761C3278A2F120005E2886
:10553000E7D9BDE8F88F01B5BDF80000ADF800006F
:10554000BDF800004FF0D841A1F8800008BD01B5BA
:10555000BDF80000ADF80000BDF800004FF0D841E4
:10556000A1F87E0008BD000003484FF0D841008933
:10557000A1F87E0070470000D4C600204FF0D8424A
:1055800022F87E0F51807047074A012804D0022874
:1055900005D00648806800474FF4007101E04FF4E1
:1055A00080611046FCF750B800140240C80100208A
:1055B000084B012804D0022806D00748806800471D
:1055C00000224FF4007102E000224FF4806118467F
:1055D000FCF742B800140240C8010020074B012824
:1055E00004D0022805D006488068004701225102F5
:1055F00001E0012291021846FCF72EB80014024087
:10560000C801002010B58EB01C216846FAF724FEB0
:105610001C2107A8FAF720FE1A484FF0204110225B
:10562000016019494160062181600021C160C0E923
:1056300004128161C16113020162C0E9091393027E
:10564000C0E90B134163816341640F203C23009048
:10565000CDE9010303AC112384E80E00092406916F
:10566000CDE9074009AC082084E80F000D9107AA96
:1056700069460448FCF719FD002801D0FBF78EFAB3
:105680000EB010BD0C020020040100A02DE9F04F67
:1056900087B014216846FAF7DFFD504800250168FD
:1056A00041F010010160016801F0100105910168ED
:1056B00041F020010160016801F0200105910168BD
:1056C00041F080010160016801F0800105910168ED
:1056D00041F001010160016801F0010105910168DB
:1056E00041F002010160016801F0020105910168C9
:1056F00041F008010160016801F0080105910168AD
:1057000041F0400101600068DFF8D4A000F04000E3
:105710004FF4C0660590012231465046FBF79CFFCE
:10572000DFF8C0B0002201215846FBF795FF4FF487
:105730000068002241465046FBF78EFF4FF40049B7
:10574000012249465846FBF787FF10200090264863
:105750000124CDE9010469462448FBF75DFE00966B
:10576000CDE90145694650460395FBF755FE2048B3
:105770000226CDE90040694602961E48FBF74CFE22
:105780000327CDE902470094694658460194FBF788
:1057900043FECDE90084CDE9024769465046FBF758
:1057A0003BFE01AACDF8009082E870006946584699
:1057B000FBF732FE032211460620FCF7D3F8062041
:1057C000FCF7C2F8032211460A20FCF7CBF80A20A6
:1057D000FCF7BAF807B0BDE8F08F0000303802409F
:1057E000001402400004024000002110001002409A
:1057F00000001110000002400D4810B50B49016077
:105800000C49416000214FF480428160C0E90312DD
:1058100041618161C1610162FBF72CFF002803D067
:10582000BDE81040FBF7BAB910BD000000540040BD
:105830005C020020A08601001CB500240F480094E3
:105840000D4901940160A721C0E9011441F288319A
:10585000C16080218161FCF7C8FC08B1FBF79EF9AB
:105860000094694605480194FCF772FC002801D0B9
:10587000FBF794F91CBD000000100040B0020020AE
:105880000C4810B50A4901604FF4E1314160002134
:1058900081600C22C160C0E904128161C161FCF722
:1058A0001CFE002803D0BDE81040FBF777B910BDFF
:1058B00000100140F8020020FEE7FEE770B588B056
:1058C000244800248DF80040016841F00201016085
:1058D000016801F002010691016841F004010160D4
:1058E000006801A900F0040006900220012581E86B
:1058F0003100032004901848FBF78EFD6803CDE9C2
:10590000010501A91548FBF787FDFBF703F8144EC5
:10591000C6F8B442642006F52D7605F03BFA3560F2
:10592000642005F037FA012000F014F901226946DD
:105930004FF4506000F01CF89DF8001009A001F031
:105940002BFC9DF80000802802D0012008B070BD1B
:105950000020FBE73038024000040240000802400B
:10596000000041424354502049443A25780D0A0032
:105970002DE9F04115460E460446FBF795F8B22096
:10598000FBF75EF8FBF7D8F8200AFBF759F8FBF7AE
:10599000D3F8E0B2FBF754F8FBF7CEF8FBF784F846
:1059A000B320FBF74DF8FBF7C7F800246F1E09E0A2
:1059B000BC4201D0012000E00020FBF707F8305581
:1059C000641CE4B2AC42F3D3BDE8F041FBF792B8FB
:1059D0002DE9F147564E00242DED048B4FF00A09B6
:1059E00081B03078DFF84C81401CC0B2B0FBF9F2D6
:1059F00009FB12012746307009B10A2877D201222B
:105A000005A90020FFF7B4FF9DF81400C10672D06D
:105A100000F01F0040F0C000454688F82000012734
:105A20009FED458B9FED469B95F8200007FA04F10A
:105A300008424FD044480422694630F81400FFF76A
:105A400097FF95F830009DF80210C0079DF80300FD
:105A500000EB012022D0FAF741FD53EC182BFAF7A6
:105A6000CBFCFAF748FD05EB440AAAF816009DF8AE
:105A700001009DF8001000EB0120FAF72FFD53EC18
:105A8000192BFAF7B9FC9FED311B53EC112BFAF7E8
:105A9000B0FCFAF730FDAAF80C001BE0FAF71EFD87
:105AA00053EC182BFAF7A8FCFAF725FD05EB440A8E
:105AB000AAF80C009DF801009DF8001000EB0120F1
:105AC000FAF70CFD53EC192BFAF796FCFAF713FDD5
:105AD000AAF81600641CE4B2052CA5D30127A989F5
