:020000040800F2
:1000000078940020A10100082B1A00085518000858
:10001000291A0008750900088D200008000000005A
:10002000000000000000000000000000F51C0008B7
:1000300077090008000000002D1A0008F71C0008CE
:10004000BB010008BB010008BB010008BB010008A0
:10005000BB010008BB010008BB010008BB01000890
:10006000BB010008BB010008BB010008BB01000880
:10007000BB010008BB010008BB010008BB01000870
:10008000BB010008BB010008BB010008BB01000860
:10009000BB010008BB010008BB010008BB01000850
:1000A000BB010008BB010008BB010008BB01000840
:1000B000BB010008BB010008BB010008BB01000830
:1000C000BB010008BB010008BB010008BB01000820
:1000D000BB01000881200008BB010008BB0100082B
:1000E000BB010008BB010008BB010008BB01000800
:1000F000BB010008BB010008BB010008BB010008F0
:10010000BB010008BB010008BB010008BB010008DF
:10011000BB010008BB010008BB010008BB010008CF
:10012000BB010008BB010008BB010008BB010008BF
:10013000BB010008BB010008BB010008BB010008AF
:10014000BB010008BB010008BB010008BB0100089F
:10015000BB010008BB010008BB010008BB0100088F
:10016000BB010008BB010008BB010008BB0100087F
:10017000BB010008BB010008BB0100080000000033
:10018000BB010008BB010008DFF810D000F0C0FB85
:1001900000480047553D0008AFF3008078940020E8
:1001A0000648804706480047FEE7FEE7FEE7FEE711
:1001B000FEE7FEE7FEE7FEE7FEE7FEE7911D00082B
:1001C000890100082DE9F05F0546002092469B4614
:1001D00088460646814640241BE02846414647465D
:1001E000224600F034FA53465A46C01A914110D3C1
:1001F00011461846224600F01BFA2D1A67EB01083B
:100200004F4622460120002100F012FA17EB0009A8
:100210004E41201EA4F10104DFDC484631462A4647
:100220004346BDE8F09FD2B201E000F8012B491E21
:10023000FBD270470022F6E710B513460A46044683
:100240001946FFF7F0FF204610BD2DE9FE4F80460E
:1002500081EA0300C00F0C46009021F0004123F01A
:100260000045B8EB0200A94105D240462146904620
:100270001C460B46024623F00040104347D0270D92
:10028000C7F30A00C3F30A510290401A01904028B4
:100290006BDAC3F3130040F4801B0098924620B140
:1002A0000023D2EB030A63EB0B0B01985946C0F114
:1002B0004002504600F0BCF906460D4650465946ED
:1002C000019A00F0D4F910EB08006141002487EA9C
:1002D000115284EAE7731A4340D0009A62B3019A3C
:1002E000012A4FEA075215DC001B61EB02014FF0B7
:1002F000004202EA0752CDE90042001C41F580119C
:1003000032462B4600F00BFA03B0BDE8F08F4046B2
:100310002146F9E7001B61EB0201001C41F5801347
:1003200000185B412018A2F5001747EB030140EAD3
:10033000D570B6196D4111E06D084FEA360645EAF1
:10034000C0754FEA0752001B61EB0201001C41F52A
:10035000801149084FEA30000019514132462B46BE
:1003600003B0BDE8F04F00F0CBB900980122400087
:100370000023D0EB020263EBE073009821464FEAC2
:10038000E074B8EB000061EB0401E9E783F000439F
:100390005BE781F0004158E72DE9FE4F81EA030455
:1003A00004F0004421F0004100944FF0000B23F0D2
:1003B000004350EA01045ED052EA03045BD0C3F369
:1003C0000A54C1F30A552C44A4F2F3340194A0FB5F
:1003D0000254C1F3130141F48011C3F3130343F436
:1003E000801301FB024400FB034E840A970A44EA8F
:1003F000815447EA8357A4FB076802958D0A05FBE1
:1004000007854FEA932C04FB0C542705029D4FEA05
:10041000065847EA1637B5EB08056EEB070C870E52
:10042000920E47EA811742EA8312A7FB0201B6EB5C
:100430000B0164EB00042B0D43EA0C335E1844EB14
:100440001C50DA465146E7FB0201C5F313044FEA9C
:100450000B3343EA14534FEA0432019C43EA060388
:10046000A4F10C040294009CCDE900B400F057F90B
:1004700003B0BDE8F08F00200146F9E72DE9F04D0B
:1004800081EA030404F0004B21F0004514464FF0CC
:10049000000A23F0004150EA050220D054EA01028C
:1004A0001DD0C5F30A570246C5F31303C1F3130069
:1004B000C1F30A5640F4801543F48013A7EB0608F5
:1004C000101BD64608F2FD3873EB050002D308F185
:1004D000010801E092185B41B8F1000F03DA002037
:1004E0000146BDE8F08D00204FF480110646844699
:1004F0000EE0171B73EB050705D3121B63EB050317
:1005000006434CEA010C49084FEA300092185B415F
:1005100050EA0107EDD152EA030012D082EA04004A
:1005200083EA0501084305D0101BAB4106D2012226
:10053000002306E000224FF0004302E06FF00102CA
:1005400053101AEB06004CEB085110EB0A0041EB7C
:100550000B01BDE8F04D00F0D3B80EB540F23341C9
:1005600002910021CDE900110A460B4600F0D7F8B0
:1005700003B000BDC1F30A5210B5C1F3130140F23C
:10058000FF3341F480119A4201DA002010BD40F29D
:1005900033439A42A2F2334203DC524200F057F84E
:1005A00010BD904010BD00F0004230F000400AD075
:1005B000C10D01F56071C0F3160042EA0151C20895
:1005C00040071143704700200146704701F0004387
:1005D00030B421F0004150EA010206D00A0DA2F524
:1005E0006072C1F31301002A02DC30BC00207047A6
:1005F000440F44EAC104C100E01830BC00EBC25013
:1006000000F047B830B50B460146002020220124F7
:1006100009E021FA02F59D4205D303FA02F5491BD0
:1006200004FA02F52844151EA2F10102F1DC30BDE6
:10063000202A04DB203A00FA02F1002070479140A2
:10064000C2F1200320FA03F3194390407047202A97
:1006500004DB203A21FA02F00021704721FA02F36C
:10066000D040C2F120029140084319467047202A29
:1006700006DBCB17203A41FA02F043EAE07306E0CA
:1006800041FA02F3D040C2F12002914008431946DA
:1006900070470029A8BF7047401C490008BF20F0E0
:1006A0000100704710B4B0FA80FC00FA0CF050EA78
:1006B000010404BF10BC704749B1CCF1200421FAF9
:1006C00004F411FA0CF118BF012121430843A3EBF4
:1006D0000C01CB1D4FEA00614FEA102042BF002001
:1006E00010BC704700EBC35010440029A4BF10BCDD
:1006F0007047401C490008BF20F0010010BC704743
:1007000010B5141E73F1000408DA401C41F1000119
:1007100092185B411A4301D120F0010010BD2DE970
:10072000F04D92469B4611B1B1FA81F202E0B0FA67
:1007300080F220329046FFF77BFF04460F4640EAE6
:100740000A0041EA0B0153465A46084313D01146AA
:1007500053EA010019D0C8F140025046FFF777FF75
:1007600005460E46504659464246FFF761FF08438C
:1007700005D0012004E020463946BDE8F08D002078
:10078000054346EAE0762C4337430A986305E40ABA
:10079000A0EB08000022FD0A44EA47540A3002D5C3
:1007A00000200146E9E7010510196941DDE9084526
:1007B00000196941BDE8F04DA2E72DE9F04D002395
:1007C0001A461B1A8A4103DB00200146BDE8F08D62
:1007D000C1F30A52C1F3130141F480154FF0000B2D
:1007E000D10702D100186D41521E0027044640F285
:1007F000FF11384601EB620A3E4680460246002061
:100800004FF48011FFF723FFC2197141BB1846EB6B
:100810000100B4EB030C75EB000C04D3E41A65EB98
:10082000000517460E46241908F101006D41804667
:100830003428E3DDF91946EB0600091BA84103D271
:100840004FF0FF32134601E0002213461BEB070076
:1008500046EB0A51BDE8F04DFFF752BF0EB5C10F90
:1008600080EAE0700844CA07002140F233438DE873
:100870000E000A460B46FFF752FF03B000BDC1F35E
:100880000A52C1F3130140F2FF3341F480119A423E
:1008900002DA00200146704740F233439A42A2F246
:1008A000334202DC5242FFF7D2BEFFF7C1BE000066
:1008B00030B5041E71F1000404DB4FF000444042E7
:1008C00064EB0101141E73F1000405DB1C464FF0BC
:1008D0000043524263EB04038B4208BF824230BDA7
:1008E00030B5041E71F1000404DB4FF000444042B7
:1008F00064EB0101141E73F1000405DB1C464FF08C
:100900000043524263EB0403994208BF904230BD5A
:10091000064C074D06E0E06840F0010394E807004C
:1009200098471034AC42F6D3FFF732FCF83E00088B
:10093000183F000870B5C1F30A5201F000450024C9
:10094000C1F3130140F2FF3341F480119A4201DAFE
:10095000002070BD40F233439A42A2F2334203DCDE
:100960005242FFF774FE00E090402C43F1D0404229
:1009700070BD7047FEE7704772B6FEE77047000033
:10098000F0B587B014216846FFF754FC42480026B2
:10099000016841F010010160016801F0100105914A
:1009A000016841F020010160016801F0200105911A
:1009B000016841F080010160016801F0800105914A
:1009C000016841F004010160016801F00401059132
:1009D000016841F001010160016801F00101059128
:1009E000016841F002010160016801F00201059116
:1009F000016841F008010160016801F008010591FA
:100A0000016841F0400101600068012400F04000ED
:100A100005900820CDE90004204F03256946039581
:100A2000384600F0ABF80220CDE900046946039592
:100A3000384600F0A3F800946946384603950194BF
:100A400000F09CF81020CDE9000469460395384673
:100A500000F094F80420CDE9000669463846029675
:100A600000F08CF86946384600F088F80122082129
:100A7000384600F080F901221021384600F07BF959
:100A800001221146384600F076F90122022138464B
:100A900000F071F907B0F0BD303802400014024098
:100AA0002DE9F0410446876D00F06AF9064694F896
:100AB00035000025022806D08020606584F8345077
:100AC0000120BDE8F0812068016821F01601016075
:100AD0002068416921F080014161206C08B9A06C57
:100AE00020B12068016821F00801016020680168D8
:100AF00021F0010101600CE000F042F9801B0528A3
:100B000007D920206065032084F8350084F834502C
:100B1000D7E720680068C007EED194F85C103F204A
:100B20008840B860012084F8350084F834500020F3
:100B3000C7E790F83510022903D0802141650120D4
:100B40007047052180F835100068016821F0010127
:100B5000016000207047000070B5044600F010F9F5
:100B60000546601C02D004480078044400F008F9EF
:100B7000401BA042FAD370BD000000202DE9F84FC1
:100B8000DFF8BCA10022012503264FF00F090AF16E
:100B9000040BAAF1040E00BF0B6805FA02F423400F
:100BA000A34270D10F7907F00307012F01D0022F64
:100BB00016D187684FEA420806FA08FC27EA0C07B4
:100BC000D1F80CC00CFA08FC4CEA070CC0F808C0BD
:100BD0004768A7430C79C4F3001494403C43446035
:100BE0000C79E443A4070AD0C4684FEA420C06FA21
:100BF0000CF7BC438F6807FA0CF72743C7600C79E2
:100C000004F00304022C12D1D40800EB840CDCF8AD
:100C100020405707FF0E09FA07F824EA0804D1F824
:100C2000108008FA07F848EA0408CCF82080046825
:100C30004FEA420C06FA0CF7BC430F7907F00307A2
:100C400007FA0CF7274307604C6814F4403F70D054
:100C50003C4C276847F480472760246822F003074C
:100C600004F480440094384C07EB040CDCF808488A
:100C700097074FEA177809FA08F7BC43334FB84291
:100C800002D1002724E054E0314FB84201D10127BE
:100C90001EE0304FB84201D1022719E02E4FB84272
:100CA00001D1032714E02D4FB84201D104270FE0F2
:100CB0002B4FB84201D105270AE02A4FB84201D193
:100CC000062705E0284FB84201D1072700E0082792
:100CD00007FA08F72743CCF80878DAF800405746B7
:100CE000D1F804C09C435FEACC2C00D51C433C6087
:100CF000DBF800405F46D1F804C09C435FEA8C2CCF
:100D000000D51C433C60DEF800407746D1F804C0B3
:100D10009C435FEA8C3C00D51C433C60084F083F75
:100D20003C68D1F804C09C435FEACC3C00D51C432E
:100D30003C60521C102AFFF42FAFBDE8F88F000072
:100D4000083C0140443802400030014000000240AD
:100D50000004024000080240000C02400010024063
:100D60000014024000180240001C024000690840C4
:100D700000D0012070470AB1816170470904FBE788
:100D80000148806870470000000000200248816828
:100D90000278114481607047000000200B4810B5B4
:100DA000016841F400710160016841F480610160F3
:100DB000016841F480710160032000F06FF80F209A
:100DC00000F006F800F024F8002010BD003C0240BE
:100DD00070B50D4D04464FF47A712878B1FBF0F0F0
:100DE0000A490968B1FBF0F000F00AFB48B9102C81
:100DF00007D200222146501E00F030F800206C601F
:100E000070BD012070BD0000000000200C0000201B
:100E10000A4808B5016841F480410160006800F4A7
:100E2000804000900548001F016841F0805101603A
:100E3000006800F08050009008BD00004438024077
:100E4000002809DB00F01F020121914040098000C9
:100E500000F1E020C0F8001170470000F0B40E4B24
:100E60001B680C46C3F30223C3F10705042D00D908
:100E70000425191D072901D2002300E0DB1E0126ED
:100E800006FA05F1491E214099409E40761E164003
:100E90003143F0BC01F024B90CED00E0064900F04C
:100EA000070208684FF6FF03184040EA0220034A91
:100EB00010430860704700000CED00E00000FA05E8
:100EC0002DE9F0470E46050065D0DFF81481D8F80B
:100ED0000000F7B200F00700B04207D288F80070B7
:100EE000D8F8000000F00700B04254D128683D4C0B
:100EF000810712D5400703D5206840F4E0502060F8
:100F00002878000703D5206840F4604020602068FE
:100F1000A96820F0F000084320602878C0072DD091
:100F2000304968680839012812D0022813D00328F4
:100F300011D00968890700292DDA216821F0030101
:100F400001432160FFF71CFF814641F2883A0EE021
:100F500009688903EFE709688901ECE7FFF710FFEB
:100F6000A0EB0901514502D90320BDE8F0872068B4
:100F7000696800F00C00B0EB810FEFD1D8F80010D9
:100F8000404601F00701B14207D90770006800F040
:100F90000700B04201D00120E7E72878400705D5D7
:100FA0002068E96820F4E0500843206028780007B2
:100FB00006D52068296920F4604040EAC10020601D
:100FC00000F038F82168084AC1F30311515CC840A9
:100FD0000649086006480068FFF7FAFE0020C4E7EB
:100FE000003C0240083802407C3D00080C00002014
:100FF000040000200448054900680968044AC1F358
:101000008221515CC84070470C0000200838024023
:101010008C3D00080448054900680968044AC1F38A
:101020004231515CC84070470C0000200838024033
:101030008C3D0008154810B5006810F00C021448EB
:1010400013D04110042A0FD0082A0ED10F4C241FB0
:101050002268236802F03F025B0207D52068C0F3D4
:101060008810A0FB010106E0084610BD2168C1F30D
:101070008811A1FB00010023FFF7A4F82168C1F348
:101080000141491C4900B0FBF1F010BD0838024095
:101090000024F4002DE9F84F04006ED02078DFF82A
:1010A0004C93C007A9F104054AD009F10400016876
:1010B000C1F38101012908D00068C0F38100022832
:1010C0000AD1D9F80000400206D52868800337D538
:1010D00060680028E1D033E06068B0F5803F10D050
:1010E000B0F5A02F286810D020F480302860286840
:1010F00020F4802028606068A8B1FFF741FE064612
:101100000DE0286840F48030F4E740F48020286047
:10111000F7E700BFFFF734FE801B642873D8286808
:101120008003F7D50CE0FFF72BFE064605E000BF75
:10113000FFF726FE801B6428F0D828688003F7D4C8
:101140002078DFF8AC8280074FF0000A3ED5A74830
:10115000001D016811F00C0F08D00068C0F3810079
:1011600002280BD1D9F80000400207D42868800774
:1011700016D5E068012800D112E033E1E068B8B18B
:101180000120C8F80000FFF7FBFD064605E000BFA0
:10119000FFF7F6FD801B0228C0D828688007F7D526
:1011A0002868216920F0F80040EAC10028600DE0BD
:1011B000C8F800A0FFF7E4FD064604E0FFF7E0FDF5
:1011C000801B02281FD828688007F7D420780007E2
:1011D00022D5864F87486169703771B1012101605E
:1011E000FFF7CEFD064604E0FFF7CAFD801B02288C
:1011F00009D838688007F7D50EE0C0F800A0FFF7DF
:10120000BFFD064605E082E0FFF7BAFD801B02281D
:101210007DD838688007F7D42078400768D5DFF894
:10122000CCB100270BF13C0BDBF80000C0000BD465
:10123000DBF8001041F08051CBF80010DBF8000023
:10124000012700F0805000906B4E3068C00510D42C
:10125000306840F480703060FFF792FD009005E048
:10126000FFF78EFD0099401A022850D83068C0055B
:10127000F6D55E4EA0686C3601280FD00528306880
:1012800010D020F001003060306820F004003060A1
:10129000A068B8B1FFF774FD00900FE0306840F02F
:1012A0000100F4E740F004003060F7E7FFF768FD65
:1012B0000099411A41F28830814266D8306880072F
:1012C000F4D50EE0FFF75CFD009007E0FFF758FD56
:1012D0000099411A41F28830814256D8306880071F
:1012E000F4D42FB1DBF8001021F08051CBF80010BE
:1012F000A069C8B33D49091D0968C1F381010229EC
:101300004AD00228504607D0C8F8600000E03CE010
:10131000FFF736FD04463BE04746C8F86000FFF79C
:101320002FFD064605E000BFFFF72AFD801B0228BF
:101330002BD828688001F7D4D4E907010843A16AB3
:101340002E4A490802EB0141626A41EA82110843D0
:1013500094F82C1040EA0161C9F8001001203866A9
:10136000FFF70EFD044606E03EE000BFFFF708FD74
:10137000001B022809D828688001F7D534E000BF97
:10138000FFF7FEFC001B022802D90320BDE8F88FFE
:1013900028688001F4D427E00128F7D0D9F80000AC
:1013A000E26900F4800191421CD1226A00F03F0101
:1013B000914217D147F6C071626A0140B1EB821FBA
:1013C00010D1A26A4FF0FF3300F4403103EB520218
:1013D000B1EB024F06D194F82C1000F07060B0EB26
:1013E000016F01D00120D1E70020CFE7043802408F
:1013F00000004742800E4742007000400000FFFF9F
:1014000010B5401EB0F1807F01D3012010BD4FF018
:10141000E02460610F21601700F062FE0020A061EF
:1014200007202061002010BD70477047F8B50168A3
:1014300004460868CA684B6910F00F0F4FF00005AA
:1014400059D003F0010602F49077374365D0C10705
:1014500005D0D10503D5216C41F00101216441077C
:1014600005D5D90703D0216C41F002012164810721
:1014700005D5D90703D0216C41F00401216401078F
:1014800007D502F02001314303D0216C41F008015F
:101490002164216C00293AD0800604D5900602D53B
:1014A000204600F0ACFC20684069216CC0F380103D
:1014B000090700D460B3204600F07AFC2068406938
:1014C000400621D52068143050E8001F21F040016B
:1014D00040E80012002AF5D1A06BA8B16C49016563
:1014E000A06BFFF726FB002811D0A06B016D01B0A7
:1014F000BDE8F040084783060FD593060DD520467A
:10150000BDE8F84000F07BBC2046FFF78EFFF8BD39
:101510002046FFF78AFF2564F8BD266B2023012EA5
:1015200079D1C60677D5D60675D508684868009083
:101530004869400640D5A16B086840680004000C6B
:10154000EAD0A28D8242E7D9E085C869B0F5807FF4
:101550002DD020680C3050E8001F21F4807140E845
:101560000012002AF5D12068143050E8001F21F045
:10157000010140E80012002AF5D12068143050E83B
:10158000001F21F0400140E80012002AF5D184F844
:101590003E30256320680C3050E8001F21F0100118
:1015A00040E80012002AF5D1A06BFFF779FAA08D70
:1015B000E18D401A81B229E0A08DE18D401A81B2FF
:1015C000E08D0028A8D00029A6D020680C3050E873
:1015D000002F22F4907240E80026002EF5D12068FA
:1015E000143050E8002F22F0010240E80026002EBF
:1015F000F5D184F83E30256320680C3050E8002F88
:1016000022F0100240E80023002BF5D12046FFF71E
:101610000BFFF8BDFFE705062BD5150629D594F875
:101620003D002128F5D1A068B0F5805F01D1206987
:10163000B0B1206A411C2162216800784860E08CCA
:10164000401E0004000CE084E3D12068C16821F052
:101650008001C1602068C16841F04001C160D8E7E5
:10166000206A0088C0F308004860206A801C20625D
:10167000E5E74006CDD55006CBD5CA68204622F016
:101680004002CA6084F83D3000F0E3F8C1E7000092
:10169000A11D000870B5040004D094F83D00002599
:1016A00010B106E0012070BD84F83C50204600F0E7
:1016B00023F8242084F83D002068C16821F40051FB
:1016C000C160204600F0FCFB2068016921F49041D4
:1016D00001612068416921F02A0141612068C168E7
:1016E00041F40051C1602564202084F83D0084F855
:1016F0003E00002070BD000010B586B004461421E5
:101700006846FEF797FD18492068884229D1174896
:101710000021026842F010020260006800F0100030
:10172000059012481438026842F001020260006815
:1017300000F0010005904FF4C06000900220CDE958
:101740000101032003900720049069460848FFF731
:1017500015FA002211462520FFF780FB2520FFF710
:101760006FFB06B010BD000000100140443802407D
:101770000000024090F83E30202B0ED159B152B1FA
:1017800090F83C30012B08D0012380F83C30002336
:10179000036300F01BBC01207047022070477047B4
:1017A0002DE9F843044690F83D001F4616460D46C5
:1017B00020284CD1C5B1BEB194F83C00012846D0D8
:1017C000012084F83C004FF00008C4F8408021203C
:1017D00084F83D00FFF7D4FAA6848146E684A06829
:1017E000B0F5805F03D004E00120BDE8F8832069F4
:1017F00028B12E465FF0000584F83C800EE00026FC
:10180000FAE78021204600F0FEFBA0B9AEB116F841
:10181000010B21684860E08C401EE084E08C4B4660
:101820004FF0000200970028EBD14FF04001204616
:1018300000F0E9FB30B10320D7E735F8020BC0F325
:101840000800E6E7202084F83D000020CDE70220D4
:10185000CBE77047FEE700002DE9F04107462DED8C
:10186000048B002437E02046FEF777FE0E4646EC58
:10187000100B9FED1C8B054653EC182B51EC100BF5
:10188000FEF78AFD9FED199B53EC192BFEF784FDA3
:1018900041EC100B00F0FCFE51EC100BFEF796FE35
:1018A000144946EC105B53EC182B41F8240051EC22
:1018B000100BFEF771FD53EC192BFEF76DFD41EC9B
:1018C000100B00F01DFC51EC100BFEF77FFE0A49D7
:1018D00041F82400641CB4EB570FC4D3BDEC048B57
:1018E000BDE8F081182D4454FB2119400000000090
:1018F0000000403F782000207810002070B50D4D8A
:10190000002204212846FFF736FA01220421284646
:10191000FFF731FA052000F05FF9044600220421A8
:101920002846FFF728FA012204212846FFF723FA68
:10193000204670BD001002402DE9F04186B0142110
:101940006846FEF777FC27480024016841F0100143
:101950000160016801F010010591016841F0040186
:101960000160016801F004010591016841F0200166
:101970000160016801F020010591016841F08001DA
:101980000160016801F080010591016841F00101E9
:1019900001600068144F00F001000590002204214E
:1019A0003846FFF7E8F9DFF8448040F23F6600224E
:1019B00031464046FFF7DFF9042000900125CDE9CC
:1019C0000154694638460394FFF7D8F80096CDE9EC
:1019D0000154694640460394FFF7D0F806B0BDE8CD
:1019E000F081000030380240001002400014024034
:1019F0000C4810B50A4901604FF4E1314160002103
:101A000081600C22C160C0E904128161C161FFF7ED
:101A100041FE002803D0BDE81040FEF7ADBF10BD69
:101A20000010014034000020FEE7FEE77047000090
:101A300010B504A000F02CFB00F0CCF8BDE810407D
:101A400000F006B8BFAACABCB2E2CAD40D0A0000B0
:101A500000B587B014216846FEF7ECFB2248016808
:101A600041F010010160016801F010010591016869
:101A700041F020010160016801F020010591016839
:101A800041F080010160016801F080010591016869
:101A900041F004010160016801F004010591016851
:101AA00041F001010160016801F001010591016847
:101AB00041F002010160016801F002010591016835
:101AC00041F0080101600068694600F008000590D7
:101AD0000420009003200390012001900348FFF7A9
:101AE0004DF807B000BD0000303802400010024041
:101AF0002DE9F041012224492448FFF73BFE04214F
:101B0000812000F0C3F84FF400652946822000F0E0
:101B1000BDF87F21832000F0B9F80021842000F077
:101B2000B5F80121842000F0B1F80520FFF714F882
:101B30000121862000F0AAF800F02EF80F280BD023
:101B4000134C002626600A20FFF706F82068401C88
:101B500020600A28F7DB26600021862000F096F836
:101B60002F460C4E00244FF6FF7500BFFFF7C6FE50
:101B700005EA400026F81400641CBC42F6DBBDE810
:101B8000F04101F02DBF00002400002034000020AF
:101B9000200000207800002070B50D4D00220421A7
:101BA0002846FFF7E8F8012204212846FFF7E3F86A
:101BB000042000F011F80446002204212846FFF713
:101BC000DAF8012204212846FFF7D5F8204670BD37
:101BD00000100240FEF7D4BE10B500F02BF8BDE8AF
:101BE000104000F001B8000070B5114E00252A46E3
:101BF00002213046FFF7BFF80024012210213046B1
:101C0000FFF7B9F8002210213046FFF7B4F86D0055
:101C100004213046FFF7AAF8641C0543A4B2202C27
:101C2000EBD3012202213046FFF7A5F8284670BD0C
:101C30000014024070B5144E0546002201213046C2
:101C4000FFF799F80024280601D5012200E00022C0
:101C500008213046FFF78FF86806050E0022102194
:101C60003046FFF788F8012210213046FFF783F84D
:101C7000641CE4B2082CE6D33046BDE87040012273
:101C80001146FFF778B800000014024010B50C466A
:101C9000FFF7D0FF2046BDE8104000F001B800007B
:101CA00070B5134E0546002202213046FFF763F857
:101CB0000024002D01DA012200E000220821304634
:101CC000FFF759F86D00002210213046FFF753F856
:101CD000012210213046FFF74EF8641CE4B2202C9C
:101CE000E7D33046BDE8704001220221FFF743B838
:101CF000001402407047FFF749B8000030B593B0B8
:101D000030216846FEF796FA14210CA8FEF792FAE5
:101D10001D480025016841F080510160006800F015
:101D2000805011901948016841F4804101600068B9
:101D3000022400F4804011900120009000040190E2
:101D40008001CDE9064008AA0420A82182E81300FA
:101D50000B906846FFF79EF908B172B6FEE70CA932
:101D60000F2081E831004FF4A0500F904FF48050C5
:101D7000109005210CA8FFF7A3F8002801D072B637
:101D8000FEE713B030BD0000403802400070004054
:101D90000248016841F470010160704788ED00E07D
:101DA00010B5806B0021C185C184FFF73EFB10BDDB
:101DB00001680C3151E8002F22F4907241E80023B1
:101DC000002BF5D10168143151E8002F22F00102F7
:101DD00041E80023002BF5D1016B012909D10168ED
:101DE0000C3151E8002F22F0100241E80023002BB3
:101DF000F5D1202180F83E1000210163704708B51D
:101E000090F83E10222901D0022008BD82684FF4CC
:101E100080539A4201D1016921B1816A9A421BD053
:101E20004AB10AE00268816A5268C2F308020A8075
:101E3000816A891C08E0026972B10268526802F086
:101E40007F020A70816A491C8162C18D491E0904A2
:101E5000090CC18503D019E002685268F1E70168F6
:101E6000CA6822F02002CA600168CA6822F480723F
:101E7000CA6001684A6922F001024A61202180F8A3
:101E80003E10016B012903D0FFF789FC002008BD3B
:101E90000021016301680C3151E8002F22F010028B
:101EA00041E80023002BF5D101680A68D20602D56B
:101EB0000A6849680091818DFFF7B6FAE6E70000ED
:101EC00070B5044600680169E26821F4405111438D
:101ED00001612169A068E26908436169114308430F
:101EE0002168CA6849F20C639A430243CA602068B9
:101EF0004169A26921F4407111434161314920686F
:101F0000884202D03049884202D1FFF783F801E0CD
:101F1000FFF770F8E2690023192164253226B2F533
:101F2000004F626828D0A0FB0101930F9200FEF7DA
:101F300049F90146B0FBF5F06FF01802504301EB90
:101F4000800006EB0010B0FBF5F000F0F002B1FBF2
:101F5000F5F002EB0012B1FBF5F06FF018035843F7
:101F600001EB800006EB0010B0FBF5F000F00F0075
:101F700021681044886070BDA0FB010192185B418C
:101F8000FEF720F90146B0FBF5F00201B1FBF5F0D8
:101F90006FF01803584301EB800006EBC000B0FB64
:101FA000F5F000F0F80002EB4002B1FBF5F0584309
:101FB00001EB800006EBC000B0FBF5F000F007007D
:101FC000D6E70000001001400014014081628285C4
:101FD000C28500210164222280F83E2080F83C1056
:101FE000016921B10168CA6842F48072CA6001685F
:101FF0004A6942F001024A610068C16841F020016B
:10200000C160002070472DE9F041984617460E4602
:102010000446069D27E0681C25D02DB1FEF7B0FED2
:10202000A0EB0800A8421ED920680C3050E8001F21
:1020300021F4D07140E80012002AF5D12068143054
:1020400050E8001F21F0010140E80012002AF5D1FC
:10205000202084F83D0084F83E00002084F83C00F5
:102060000320BDE8F0812068006836EA000004D053
:102070000020B842CFD00020F3E70120F9E70000AC
:102080000148FFF7D3B9000034000020FEE700004C
:102090000FB4054B10B503A9044A029801F0A0F84B
:1020A00010BC5DF814FB00009D3C00082C000020D3
:1020B00003B401984100009850EAC12018BF0420E1
:1020C0004A0D18BF40F0010040F2FF72B2EB515FC1
:1020D00008BF40F00200012808BF052002B0704789
:1020E0000907090E002804DB00F1E02080F8001445
:1020F000704700F00F0000F1E02080F8141D7047D9
:1021000010B52F499FED2C1B2DED020B84B00598C7
:1021100020F000408842D8BF9DED040B2DDD2949F9
:10212000884209D1049840B94FF0010000F090FFB7
:1021300000F05EFF06B010BD05DB9DED040B00F066
:102140004BFF06B010BD68469DED040B00F044FB4C
:1021500010F0030004BF9DED021B9DED000B0CD0A1
:1021600001280ED09DED021B9DED000B022817D01B
:10217000012000F081FE06B010BD00F049FD06B060
:1021800010BD9DED021B9DED000B012000F074FEC3
:1021900051EC100B81F0004106B041EC100B10BD6A
:1021A00000F036FD51EC100B81F0004106B041EC1F
:1021B000100B10BD00000000000000000000000037
:1021C000FB21E93F0000F07F70B5D94B00242DEDD5
:1021D000020B2DED108BDDE91010984205DA20F08E
:1021E00000429A4201D809D141B19DED100BBDECDE
:1021F000108B02B0BDE8704000F0EEBEB0F5801F5D
:1022000026DA11430BD0002813DA012000F020FF5A
:10221000BDEC108B02B0BDE8704000F0E9BE0220BA
:1022200000F016FF00F0C0FE51EC100B81F00041F1
:102230009EE06FF035049FEDC00B53EC102B9DED2D
:10224000100B51EC100BFEF7A7F8CDE91001084672
:1022500004EB2051C0F31304B948A1F2FF3120442C
:1022600000F4801080F07F6282F04052224301EB44
:1022700020559FEDB50B119253EC102B9DED100BDB
:1022800051EC100BFEF782F841EC180BA01CC0F3C8
:1022900013009FEDAFDB9FEDB0EBB14E7E44032802
:1022A0006CD296ED000B51EC180B53EC102BFEF793
:1022B000FFFA1DD1002D01BF96ED000BBDEC108B78
:1022C00002B070BD2846FEF7C9FA41EC180B53EC7A
:1022D0001D2BFEF761F841EC190B53EC1E2B51EC52
:1022E000180BFEF759F853EC192BFDF7AEFF3FE042
:1022F0009FED9D0B51EC180B53EC102BFEF74CF897
:102300009FED9B1B53EC112BFEF743F841EC190B8F
:1023100053EC182B51EC180BFEF73EF853EC192B2D
:10232000FEF73AF841EC190B002D04BF53EC192BC2
:1023300051EC180B1AD02846FEF790FA41EC1A0B14
:1023400053EC1D2BFEF728F853EC192BFEF721F860
:1023500053EC182BFEF71AF841EC180B53EC1E2B1C
:1023600051EC1A0BFEF718F853EC182BFEF70EF889
:10237000BDEC108B02B041EC100B70BD9FED7E0BDD
:1023800051EC180B53EC102BFDF75FFF41EC100BD9
:1023900051EC180B53EC102BFEF770F841EC190BB5
:1023A0002846FEF75BFA41EC1B0B53EC192B51EC62
:1023B000190BFDF7F1FF41EC1A0B714853EC1A2B86
:1023C000261851EC1A0BFDF7E7FF41EC1F0B6D4887
:1023D000C4F1510404F5D724B0EE4F0AF0EE6F0AB1
:1023E0000321784400F0CCFC53EC1F2B51EC100B74
:1023F000FDF7D2FF41EC1C0B6348B0EE4F0AF0EE44
:102400006F0A0421784400F0BBFC53EC1A2B51EC0A
:10241000100BFDF7C1FF344353EC1C2BFDF715FFE8
:1024200041EC1C0B002C4CDD9FED510B51EC180BBB
:1024300053EC102BFDF7B0FF53EC182BFDF7ACFF5E
:1024400041EC1A0B55B353EC1D2B51EC1B0BFDF754
:10245000A3FF41EC1D0B53EC1C2B51EC1A0BFDF7A9
:10246000F4FE53EC192BFDF797FF53EC1D2BFDF7F2
:10247000ECFE53EC1A2BFDF78CFF53EC182BFDF7F9
:1024800085FF41EC180B53EC1E2B51EC1B0BFDF799
:1024900083FF53EC182BFDF779FF69E753EC1C2BF6
:1024A00051EC1A0BFDF7D1FE53EC192BFDF774FF1D
:1024B00053EC1A2BFDF76DFF53EC182BFDF769FF5A
:1024C00056E735B353EC1D2B51EC1B0BFDF764FFA6
:1024D00041EC1A0B53EC1C2B51EC180BFDF756FF7B
:1024E00053EC192BFDF758FF53EC1A2BFDF74EFF59
:1024F00053EC182BFDF74AFF41EC180B53EC1E2B45
:1025000051EC1B0BFDF748FF53EC182BFDF73EFF7A
:102510002EE753EC1C2B51EC180BFDF737FF53EC57
:10252000192BFDF739FF53EC182BFDF732FF1FE78E
:102530000000F07F00000000000000000000504399
:10254000645F090000000000000000000000F03F90
:10255000763C7935EF39EA3D0000E0FE422EE63F59
:10256000501C000000000000555555555555D53FED
:10257000000000000000E03F0000000000000040FC
:1025800086EBF9FFE2190000D819000000000000F6
:1025900000B52DED028BB0EE408AF0EE608A18EEA9
:1025A000101A85B018EE900A8DED028B002918BF25
:1025B0000121084320F00040C0F17F6000F1E040BD
:1025C000C00F08D151EC180B9FED290B53EC102BC9
:1025D000FEF76EF909D1B0EE480AF0EE680A00F095
:1025E000FBFC05B0BDEC028B00BD9FED230B51EC55
:1025F000180B53EC102BFEF75BF908D2012000F00A
:1026000027FD00F0F5FC05B0BDEC028B00BD6A466D
:1026100051EC180B01F050FB41EC100B0098002816
:102620000BDD401E9FED161B009053EC112B51EC5F
:10263000100BFDF7B1FE41EC100B51EC100B01F04B
:1026400081FB9FED111B53EC112BFDF717FF41ECA4
:10265000180B0098FEF702F953EC182BFDF7F5FD67
:1026600005B041EC100BBDEC028B00BD000000007A
:10267000000000000000F07F0000000000000000EB
:102680000000000000000040EF39FAFE422EE63F55
:1026900010B52F499FED2C1B2DED020B84B0059832
:1026A00020F000408842DCBF00209DED040B32DDAD
:1026B0002849884209D1049840B94FF0010000F040
:1026C000C7FC00F095FC06B010BD05DB9DED040BCA
:1026D00000F082FC06B010BD68469DED040B00F0D2
:1026E0007BF810F0030011D0012818D09DED021BDB
:1026F0009DED000B02281AD000F08AFA51EC100B65
:1027000081F0004106B041EC100B10BD9DED021BA5
:102710009DED000B012000F0AFFB06B010BD9DED5C
:10272000021B9DED000B00F073FA06B010BD0120F6
:1027300000F0A2FB51EC100B81F0004106B041EC1F
:10274000100B10BD000000000000000000000000A1
:10275000FB21E93F0000F07F00B52DED048BB0EECA
:10276000409AF0EE609A83B051EC190BFEF725F811
:1027700041EC180B18EE100A18EE901A8DED008B34
:10278000002818BF0120084320F00040C0F17F60FE
:1027900000F1E040C00F14D019EE101A19EE900AA3
:1027A0008DED009B002918BF0121084320F0004057
:1027B000C0F17F6000F1E040C00F04BF012000F0D5
:1027C00047FCB0EE480A03B0F0EE680ABDEC048B9B
:1027D00000BD0000000000002DE9F14F04462DED82
:1027E000020B2DED088B8AB09FEDE70B80ED020BFD
:1027F000139EE74826F0004585420ADC9DED120B4A
:10280000002084ED000B0AB0BDEC088B03B0BDE8DE
:10281000F08FE0489FEDE0AB9FEDE1BBA84247DDC4
:10282000E14F9FEDE39B9FEDE48B9DED120B53EC8D
:102830001A2B51EC100B002E1CDDFDF7A7FD41EC0F
:10284000100BBD4208D053EC1B2B51EC100BFDF7C5
:102850009DFDC4E900010BE053EC192B51EC100B6A
:10286000FDF794FD53EC182BFDF790FDC4E9000132
:102870000120C8E7FDF7E9FC41EC100BBD4208D090
:1028800053EC1B2B51EC100BFDF7DFFCC4E90001EE
:102890000BE053EC192B51EC100BFDF7D6FC53EC6D
:1028A000182BFDF7D2FCC4E900014FF0FF30AAE776
:1028B000C348A84279DB9DED120B51EC100B01F0DF
:1028C000E1F941EC180B9FEDC00B53EC102BFDF719
:1028D00063FD9FEDBF1B53EC112BFDF7B6FCFEF71C
:1028E00029F80746FDF7BAFF41EC190B53EC1A2BF8
:1028F000FDF752FD53EC182BFDF74BFD41EC180B87
:1029000053EC1B2B51EC190BFDF746FDDFF8C8A269
:1029100041EC100B4FEA15580125FA4453EC102BEB
:1029200051EC180BFDF732FD032DC4E900013DD039
:10293000C1F30A5005EB4511A8EB000011398142A3
:1029400034DA0AEB051BB0EE48AA9BED000BF0EE63
:1029500068AA53EC102B51EC190BFDF71DFD41EC4F
:102960001B0B51EC1A0B53EC1B2BFDF70FFD41EC2D
:10297000180B51EC1A0B53EC182BFDF707FD53EC19
:102980001B2BFDF703FD9BED020B41EC1A0B53ECE7
:10299000102B51EC190BFDF7FFFC53EC1A2BFDF734
:1029A000F5FC41EC100B6D1CB8E70EE0002EA8BF43
:1029B0003846BFF628AF94ED000B51EC100B81F0B8
:1029C0000041C4E9000178421DE7C6F3130040F45A
:1029D000801EC6F30A50A0F2F530471100F01F0523
:1029E000C5F12000DDF848B008900020069007905F
:1029F0000520EC467949002D07EB0002794408BF19
:102A000051F8221009D051F8223001EB8201AB407D
:102A10004A68089922FA01F11943A1FB0E26A1FB8D
:102A20000B131A449A4234BF0123002303EB060818
:102A30000CEB8003D3E901A60E448E4234BF012182
:102A4000002192448A4411B1924502D903E0924593
:102A500001D2012100E00021C3E901A641444CF864
:102A60002010011EA0F10100C4DC029800F100500A
:102A7000850F0298DDE903678000DDF81480FDF71B
:102A8000EDFE41EC1A0B3046FDF767FD9FED541B40
:102A900053EC112BFDF780FC41EC1B0B3846FDF786
:102AA0005CFD9FED511B53EC112BFDF775FC41ECC8
:102AB000180B4046FDF751FD9FED4D1B53EC112BBC
:102AC000FDF76AFC41EC190B51EC180B53EC192B78
:102AD000FDF7BBFB53EC1B2BFDF7B7FB53EC1A2B9D
:102AE000FDF7B3FBCDE90801002008909DED080B30
:102AF00053EC1A2B51EC100BFDF748FC53EC1B2B3D
:102B0000FDF744FC53EC182BFDF740FC53EC192B5C
:102B1000FDF73FFC9FED381B53EC112BFDF73CFC00
:102B20009FED370B41EC180B53EC102B9DED080B70
:102B300051EC100BFDF730FC53EC182BFDF785FB27
:102B40009FED310B41EC180B53EC102B9DED080B56
:102B500051EC100BFDF720FC53EC182BFDF775FB27
:102B600041EC100B139810F0004F06D06D4251EC61
:102B7000100B81F0004141EC100B284684ED000B56
:102B800041E600000000000000000000000000001E
:102B9000FB21E93F7CD9024000004054FB21F93F72
:102BA0003163621A61B4D03DFB21F93F000000009F
:102BB0000000601A61B4D03D7370032E8A19A33BE4
:102BC000FB2139410000000083C8C96D305FE43F3C
:102BD000000000000000E03FE2140000301400009C
:102BE000000000000000103E000000000000103C4B
:102BF000000000000000103A182D4454FB21F93D5C
:102C00003326A611460B113C00000054FB21F93D70
:102C100010B52DED040B2DED088B82B0B0EE419A6E
:102C2000F0EE619A0B9820F000449FED4BABB4F1AD
:102C3000795F11DA9DED0A0B51EC100BFDF77AFE6E
:102C4000002801BFB0EE4A0AF0EE6A0A02B0BDECFD
:102C5000088B04BF04B010BD9DED0A0B53EC102B84
:102C600051EC100BFDF798FB41EC180B3C4806218A
:102C7000B0EE480AF0EE680A784400F081F853ECB0
:102C8000182B51EC100BFDF787FB9DED0A0B41EC67
:102C90001B0B53EC192B51EC100BFDF77DFB41EC9A
:102CA000190B53EC1B2B51EC180BFDF775FB53EC78
:102CB000192BFDF76BFB9FED2C0B41EC190B53EC23
:102CC000102B51EC180BFDF767FB41EC100B28485B
:102CD000844210DA53EC192B51EC100BFDF756FB24
:102CE00053EC1A2BFDF755FB41EC100B02B0BDEC79
:102CF000088B04B010BD1F48A042BCBF9FED1E1B37
:102D00008DED001B06DBA4F5001001900020009063
:102D10009DED001B51EC100B53EC112BFDF736FB16
:102D20009DED000B41EC180B53EC102B51EC1A0BE2
:102D3000FDF72CFB41EC1A0B53EC192B51EC180B43
:102D4000FDF724FB53EC1A2BFDF723FB41EC100B92
:102D5000CCE7000000000000000000000000F03F91
:102D60001C11000000000000000000000000E03F17
:102D70003333D33F0000E93F000000000000D23FA2
:102D800070B504462DED028B4D1E00EBC500B0EE74
:102D9000408AF0EE608A90ED000B35F0060017D007
:102DA00053EC182B51EC100BFDF7F6FA41EC100B1D
:102DB0006D1E04EBC50090ED001B51EC100B53ECA5
:102DC000112BFDF742FA41EC100B35F00600E7D16C
:102DD000022D36D0042D1CD0062D1CBFBDEC028B5D
:102DE00070BD53EC182B51EC100BFDF7D5FA94ED98
:102DF0000A1B53EC112BFDF728FA53EC182BFDF7A7
:102E0000CBFA94ED081B53EC112BFDF71EFA41ECA5
:102E1000100B53EC182B51EC100BFDF7BDFA94ED91
:102E2000061B53EC112BFDF710FA53EC182BFDF792
:102E3000B3FA94ED040B53EC102BFDF706FA41ECBA
:102E4000100B53EC182B51EC100BFDF7A5FA94ED79
:102E5000021B53EC112BFDF7F8F953EC182BFDF77F
:102E60009BFA94ED001B53EC112BFDF7EEF9BDEC32
:102E7000028B41EC100B70BD31B504462DED040BF7
:102E80002DED0A8BB0EE41BAF0EE61BA0B989DEDD4
:102E90000A0B20F00040B0F1795F0DDA51EC100B15
:102EA000FFF706F9042808BF00F0B2F89DED0A0B01
:102EB000BDEC0A8B05B030BD53EC102B51EC100B60
:102EC000FDF76AFA41EC180B9DED0A0B53EC182B39
:102ED00051EC100BFDF760FA41EC190B2C48B0EEE9
:102EE000480AF0EE680A05217844FFF749FF9FED94
:102EF0002ACBB0EE40AAF0EE60AA9CB353EC1C2B98
:102F000051EC190BFDF748FA41EC1C0B53EC1A2B52
:102F100051EC190BFDF740FA9FED210B41EC190B19
:102F200053EC102B51EC1B0BFDF736FA53EC192B1D
:102F3000FDF72CFA53EC182BFDF72EFA53EC1B2B54
:102F4000FDF724FA53EC1C2BFDF720FA9DED0A1B2C
:102F500053EC112BFDF71DFABDEC0A8B05B041ECCB
:102F6000100B30BDFFE753EC1A2B51EC180BFDF79B
:102F700013FA53EC1C2BFDF768F953EC192BFDF7F2
:102F80000BFA9DED0A1B53EC112BFDF75EF9E3E7FD
:102F9000DC0F000000000000495555555555C5BFD0
:102FA000000000000000E03F9FED070B10B553EC60
:102FB000102B9FED070B51EC100BFDF75FFA41EC66
:102FC000100B10BD00000000000000000000000019
:102FD000000000000000F03F10B553EC102B51EC46
:102FE000100BFDF732F941EC100B10BD0000000092
:102FF0009FED050B10B553EC102B51EC100BFDF7AA
:103000003DFA41EC100B10BD000000000000000074
:103010009FED050B10B553EC102B51EC100BFDF789
:10302000BBF941EC100B10BD0000000000000010C7
:1030300002E008C8121F08C1002AFAD17047704781
:10304000002001E001C1121F002AFBD170470000DF
:103050000149086070470000300000202DE9FF5F43
:1030600082B00021DDE90430020DDDF840B00343F9
:1030700018D044F61050A2F2FF32424315141198B2
:1030800001281FD0A5EB0B00401C5FEA000A4FF09F
:1030900000064E4FDFF83891B046504615D5CAF1BC
:1030A000000413E0119801244AA3012801D16FEA1A
:1030B0000B010298119AC0E90031C0E9024206B042
:1030C000BDE8F09FCBF10000DFE704460021404A55
:1030D000491842EB0450CDE9001012E0E00707D098
:1030E00032463B4640464946FDF756F980468946FA
:1030F00032463B4610461946FDF74EF906460F4646
:103100006410002CEAD1DDE90401DDE90023BAF105
:10311000000F06DAFDF740F942464B46FDF73CF951
:1031200005E0FDF7ABF942464B46FDF7A7F904462B
:103130000E460022284BFDF7D3FB03D84FF0FF309B
:10314000014607E00022254B20463146FDF77DF879
:10315000FDF795FB102409E0002C0ADB0A2200236E
:10316000FDF730F8039B30321A55641E50EA010215
:10317000F2D1641C039AC4F111031444119A012A78
:1031800003D0012208430DD10AE0084304D00020F7
:103190004FF0110B119072E7A3EB0B056D1E0DE0C4
:1031A0005B4504DD4FF0000205F1010504E003DAA0
:1031B0004FF00002A5F10105002AECD00298119908
:1031C000C0E90231C0E9004579E700000000144081
:1031D0000000F03F300000000000F0430000E03F3E
:1031E0002DE9FF4F95B09A46884606460025EEE148
:1031F000252877D100242746F94A0121039400E0CD
:10320000044316F8013F203B01FA03F01042F7D1C6
:1032100030782A2811D06FF02F033078A0F13002D7
:10322000092A16D8039A44F0020402EB820203EB47
:1032300042021044761C0390EFE758F8042B0392E7
:10324000002A03DA504244F40054039044F002048C
:10325000761C30782E2816D116F8010F44F004049D
:103260002A280DD06FF02F023078A0F13003092BFF
:1032700009D807EB870302EB4303C718761CF3E773
:1032800058F8047B761C30786C280FD006DC4C286C
:1032900017D068280DD06A2814D104E0742810D003
:1032A0007A280FD10DE044F400140AE044F48014AD
:1032B00001E044F440147278824202D104F5801493
:1032C000761C761C307866280BD013DC582877D013
:1032D00009DC002875D04528F6D04628F4D04728C8
:1032E0001AD193E118E0632835D0642879D0652895
:1032F00012D18BE1702873D008DC6728F1D06928DF
:103300006FD06E280DD06F2806D1ACE073282CD07A
:10331000752874D0782853D05246179990476D1C61
:1033200054E1C4F30250022809D003280DD0D8F884
:10333000001004280DD00D6008F1040846E1D8F80B
:103340000010EA17C1E90052F6E7D8F800100D8026
:10335000F2E70D70F0E718F8041B8DF8001000205C
:103360008DF80100EB46012003E058F804BB4FF054
:10337000FF3061074FF0000102D40DE009F10101B7
:103380008946B9420FDA8145F8DB1BF8091000299C
:10339000F4D108E009F1010189468142FADB1BF80A
:1033A00009100029F6D103985346A0EB09072146DE
:1033B0003846179A00F080FA284400EB090507E028
:1033C00044E008E10DE01BF8010B524617999047C5
:1033D000B9F10109F7D2534621463846179AF2E06F
:1033E00039E00A21C4F302524FF0000B0091022A87
:1033F00006D058F8040BC117032A09D00AE023E0CD
:1034000008F1070020F00702F2E80201904605E00B
:1034100000B2C117042A01D140B2C117002906DA4F
:103420000A460021404261EB02012D2202E0220502
:1034300004D52B228DF80420012203E0E20701D0FD
:103440002022F7E7914657E00A2100E010214FF0D3
:10345000000B00910BE010214FF0000B44F004042E
:103460000827009103E008204FF0000B0090C4F300
:103470000252022A05D058F8040B0021032A08D072
:1034800008E008F1070020F00702F2E80201904688
:1034900003E080B2042A00D1C0B24FF00009220735
:1034A0002AD53278702A07D0DDF800C08CF0100CD5
:1034B0005CEA0B0C05D00EE040228DF804200122BE
:1034C00008E050EA010306D030238DF804308DF86F
:1034D000052002229146009B83F0080353EA0B0368
:1034E0000AD150EA010201D1620705D530228DF8D8
:1034F00004204FF001097F1E3278582A04D039A2E7
:103500000C920CAA02920BE03BA2F9E75B46009AF0
:10351000FCF758FE0C9B9B5C029A521E02921370A1
:1035200050EA0102F2D1029804A9081A00F1200B16
:10353000600702D524F4803400E001275F4502DDF6
:10354000A7EB0B0000E0002000EB0B0100900398BC
:103550004944401A0390E00306D453462146179A83
:10356000039800F0A9F90544002706E001A8524697
:10357000C05D179990476D1C7F1C4F45F6DBE0033B
:103580000CD553462146179A039800F095F9054447
:1035900004E030205246179990476D1C0099481E50
:1035A00000900029F5DC08E0029802995246007864
:1035B000491C0291179990476D1CBBF10001ABF1BA
:1035C000010BF1DC5BE100F065F90544761C307815
:1035D00000287FF40DAE19B02846BDE8F08F00003A
:1035E00009280100303132333435363738396162D9
:1035F000636465660000000030313233343536379D
:10360000383941424344454600000000600700D479
:10361000062708F1070020F00700F0E802238046A3
:1036200003F0004C5FEA0C0001D097A009E02005F0
:1036300001D596A005E0E00701D095A001E0AFF22A
:103640004C001390307823F0004365280CD006DC42
:10365000452809D046281DD047287FD13BE0662861
:1036600018D067287AD136E00021112F01DB112014
:1036700000E0781CCDE9000104A90CA8FFF7EEFCDE
:10368000DDE90D010C9A4FF0000B07F101091092D2
:1036900000914EE04FF000400097CDE9011004A9E1
:1036A0000CA8FFF7DBFCDDE90D020C9B0F994FF036
:1036B000000B91461093009211B9791C00EB01099F
:1036C000B7EB090003D4C0F1FF3B07F10109A9EBF7
:1036D0000700019042E0012F00DA01270021112F9D
:1036E00001DD112000E03846CDE9000104A90CA855
:1036F000FFF7B4FCDDE90D010C9A00914FF0000BCF
:10370000B946109221070FD4009A4A4503DA914630
:1037100001E0A9F10109B9F1010F05DD109AA9F144
:103720000101515C3029F4D0B84202DA10F1040FE3
:1037300003DA0121CDE9011010E0002803DC834405
:10374000A9EB000102E0411C494500DD8946A0EBE0
:103750000B00401C01904FF000400290200705D460
:103760000198484502DB4FF0FF30019000208DF8B2
:103770004B0002980DF14B07B0F1004F25D002200D
:103780000C902B200D90029800280CDA40420290F9
:103790002D200D9007E00A210298FCF733FF30310D
:1037A000029007F8011D0C99481E0C900029F2DCCC
:1037B00002980028EFD1791E0D980870307800F03B
:1037C000200040F0450007F8020D11A8C01BC01DE5
:1037D00002901398007800B1012000EB09010198D4
:1037E00001EBE071029801440398401A401E0390D7
:1037F000E00306D453462146179A039800F05CF87C
:1038000005441398007818B15246179990476D1CDB
:10381000E00323D553462146179A039800F04CF84D
:1038200005441BE0BBF1000F07DB0098584504DDA1
:103830001098179910F80B0001E0179930205246A4
:10384000904701980BF1010B401E05F10105019015
:1038500004D12E205246179990476D1CB9F10001F2
:10386000A9F10109DEDC05E017F8010B52461799B2
:1038700090476D1C0299481E02900029F4DC5346C3
:103880002146179A03989EE62D0000002B000000A9
:10389000200000002DE9F041044600251E46174691
:1038A000880404D405E039462020B0476D1C641E0E
:1038B000F9D52846BDE8F0812DE9F0410446002500
:1038C0001E469046C80301D5302700E02027880413
:1038D00004D505E041463846B0476D1C641EF9D555
:1038E0002846BDE8F08100002DE9F047002304469A
:1038F0004E0818464D1E15E083420BD204EBC3025E
:1039000004EBC007D2ED000A97ED000AC7ED000AEC
:1039100082ED000A324601E0801A52088242FBD949
:1039200010445B1CAB42E7D30E4601253046FCF742
:1039300014FE41EC100BFEF72BFE51EC100BFCF7C4
:1039400019FE8146002343E0760800213CE0002078
:1039500037E000BF01FB05F200EB420707EB05086B
:1039600004EBC802DFF8708000FB06FC08EB8C0853
:10397000D2ED001AD8ED000ADFF8608092ED012A3E
:1039800008EB8C0C21EEA00A9CED001A62EE200AD6
:1039900004EBC70702EE010A401C41EEC10A97EC96
:1039A000021A31EE002A31EE400A87ED002A31EE8C
:1039B000A02A87ED012A82ED000A31EEE00A82EDAD
:1039C000010AA842C6D3491CB142C0D36D005B1C9A
:1039D0004B45B9D3BDE8F08778100020782000204F
:1039E0002DE9F0412DED0A8B00269FED908A4FF4D2
:1039F00000652846F0EE489AB0EE489AF0EE488A04
:103A0000FDF72AFFDFF8288200249FED8AAB9FEDA7
:103A10008BBB9FED8CCB8D4F38F81400FCF79DFDD0
:103A200053EC1A2BFCF7B8FC53EC1B2BFCF726FDD0
:103A300053EC1C2BFCF709FCFCF7C8FD014607EB17
:103A4000C400641CB0EE480A0160A4B280ED010A13
:103A5000AC42E1D329467D48FFF746FF0024A84643
:103A600007EBC40595ED000A60EE000A95ED010A2A
:103A700040EE000A10EE900AFCF795FD41EC100BA9
:103A8000FEF76AFE51EC100BFCF7A0FD641C2860E9
:103A9000A4B240468442E3D36D4CB0EE48AA002560
:103AA00007EBC50191ED000A04EB850181ED000AE9
:103AB0003DB1B4EECA0AF1EE10FA02DDB0EE40AA52
:103AC0002E466D1CADB28542EAD31AEE100AFCF701
:103AD0006AFD41EC100B314653EC102B5DA0FEF754
:103AE000D7FA60480680C82006FB00F15EA0FEF70A
:103AF000CFFA0520FDF730F84FF6FF7101EA4600D6
:103B000006EB460201EA860395B206EB86018AB20D
:103B1000142E10D204EB8000D0ED009A04EB850047
:103B200090ED009A04EB8300D0ED008A04EB820054
:103B300090ED008A4FE0C11E89B2C01C0DE000BFAD
:103B400004EB810696ED000AB4EEE90AF1EE10FAF4
:103B500001DBF0EE409A491C89B28142F0D9E81E9F
:103B600080B2ED1C0DE000BF04EB800191ED000A76
:103B7000B4EEC90AF1EE10FA01DBB0EE409A401C37
:103B800080B2A842F0D9D81E80B2DB1C0DE000BF85
:103B900004EB800191ED000AB4EEE80AF1EE10FAB0
:103BA00001DBF0EE408A401C80B29842F0D9D01E72
:103BB00080B2D21C0DE000BF04EB800191ED000A41
:103BC000B4EEC80AF1EE10FA01DDB0EE408A401CF6
:103BD00080B29042F0D969EEA99A1AEE100A49EE25
:103BE000099A48EEA89A48EE089AFCF7DCFC41ECEA
:103BF000180B19EE900AFCF7D6FC41EC100BFEF7FF
:103C0000ABFD53EC182B51EC100BFCF737FCFCF719
:103C1000DDFCFCF7C8FCBDEC0A8B41EC100B16A0D8
:103C200053EC102BBDE8F041FEF732BA0000000063
:103C3000780000206666666666660A40000000003E
:103C400000E06F40333333333333F33F78300020B9
:103C500078700020B5DA2564B8F6D6B525660D0A69
:103C60000000000028000020467265666C61673D18
:103C700025640D0A000000005448443D25660D0AE5
:103C80000000000082B0CDE9000121F00040019069
:103C90009DED000B02B051EC100B704713B50A23D9
:103CA000012269460248FDF77BFD00981CBD00001B
:103CB000340000200000000010B582B01446CDE9A9
:103CC00000010023009A2360194B21F00040984224
:103CD0002ADA024328D0B0F5801FA8BF226810DA84
:103CE0009FED150B53EC102B9DED000B51EC100BC1
:103CF000FCF752FBCDE900016FF0350221F00040E6
:103D000022600F4B6FF31E5103EB205010442060D4
:103D100041F0FF5040F0005001909DED000B00BFBE
:103D200002B051EC100B10BD9DED000BF8E7000048
:103D30000000F07F00000000000000000000504381
:103D400002FCFFFF10B541EC100BFEF73DFA51EC01
:103D5000100B10BDFDF722F8FDF7D0FFFDF7ECFDCD
:103D6000FDF746FE034800688047034C2068804703
:103D7000FCE70000100000201400002000000000FC
:103D8000000000000102030406070809000000000B
:103D900001020304000000004C5555555555A53F40
:103DA0007751C1166CC156BF9015CB19A001FA3ED0
:103DB000AD529C804F7E92BEC4B1B4BD9EEE213EFA
:103DC000D43888BEE9FAA8BD04FA97999999D93FE1
:103DD000AF788E1DC571CC3F9FC678D0099AC33F7E
:103DE000935555555555E53F599322942449D23F53
:103DF000DE03CB966446C73F44523EDF12F1C23F1A
:103E000000004054FB21F93F3163621A61B4D03D98
:103E10000000601A61B4D03D7370032E8A19A33B71
:103E20000000002E8A19A33BC14920259A837B39C3
:103E300000000000000000006E83F9A22915444E26
:103E4000D15727FCC0DD34F5999562DB4190433CA6
:103E5000AB6351FE61C5BBDE3A6E24B7E0D24D4282
:103E6000EA2E49061C92D1091CEB1DFE3EA729B182
:103E7000F53582E88444BB2E26709CE9417E5FB410
:103E800039D69139F43953838B5F849C3B28F9BD33
:103E9000FF97F81F0F9805DE8B112FEF1F6D0A5A41
:103EA000CF7E366DB709CB27663F464F2DEA5F9E22
:103EB000C7BA27757BF1E5EBF739073DEA92528ADD
:103EC000B15FFB6B085D8D1FA6F810111111813FCA
:103ED000D561C119A0012ABF7DFEB157E31DC73EC0
:103EE000EB9C2B8AE6E55ABE7CD5CF5A3AD9E53D04
:103EF0000000000000000000183F00080000002043
:103F000034000000303000084C3F0008340000202E
:103F10004494000040300008010000001000000040
:103F2000000000000024F400311A0008F11A000813
:103F30007D0900087309000800000000000000006F
:0C3F400000000000000000000000000075
:040000050800018965
:00000001FF
